:020000040000FA
:1000000000400020A9B80100E5B80100E7B80100F0
:1000100000000000000000000000000000000000E0
:10002000000000000000000000000000E9B801002E
:100030000000000000000000EBB80100EDB8010076
:10004000EFB801004D370100F1BF0100EFB801002A
:10005000EFB8010000000000A9B90100EFB80100ED
:10006000098701005DC5010065BE0100EFB8010010
:10007000EFB80100EFB80100EFB80100EFB80100E0
:10008000EFB80100EFB80100EFB80100EFB80100D0
:10009000EFB8010059B5010025B6010045880100FF
:1000A00055880100EFB801000000000000000000CA
:1000B0000000000000000000000000000000000040
:1000C000054B0648033310B51B1A062B03D9044B06
:1000D000002B00D0984710BD180100201801002007
:1000E000000000000648074910B5091A8910CB0F17
:1000F0005918491003D0044B002B00D0984710BD6D
:1001000018010020180100200000000010B5074C65
:100110002378002B09D1FFF7D3FF054B002B02D02A
:10012000044800E000BF0123237010BD200100201F
:100130000000000078E90300094B10B5002B03D044
:100140000849094800E000BF08480368002B02D1B5
:10015000FFF7C8FF10BD064B002BF9D09847F7E713
:10016000000000002401002078E9030018010020AD
:1001700000000000144B002B00D1124B9D46402282
:1001800092029A1A924600218B460F461148124A53
:10019000121A23F01FFC0D4B002B00D098470C4B7C
:1001A000002B00D098470020002104000D000B48D0
:1001B00023F01CF923F0D6FA200029002CF087FA4E
:1001C00023F032F900000800004000200000000089
:1001D0000000000018010020F82F0020A1360200C6
:1001E000F0B5050085B000AF1E0079603A6006F0FA
:1001F0002FFCA86825F057F8B860A86825F059F8D2
:1002000025F051F803235843BB68C0188300FB60F6
:100210002C2B2DD86B46F8682230C008C0001B1A62
:100220009D4600236C46FB600023256063603A68AE
:1002300033007968200000F0DBF8164E0021736867
:10024000200023616B68736007F070FF2369051E4F
:10025000736014D1A3681E68FB68002B04D02000D3
:1002600026F049F8002D12D13000BD4605B0F0BD92
:10027000F868143026F01DF8041ED5D1CAE7BB6813
:1002800003339B00E3185E68FB68002BE7D1300066
:1002900016F006FE942E00200122030030B5134014
:1002A00085B004004510002B14D125491D0088425B
:1002B00010D0244988420DD0234B1500984209D014
:1002C0000323034009D1214A0168914205D125F059
:1002D00065FB0500280005B030BD1D4A2500224001
:1002E000062A05D0002B08D11A4B22689A4204D165
:1002F00001A920000EF032F8EBE7200012F0DAFC42
:10030000154B984207D1FF23DB05E01803239843E0
:100310001DF098FBDDE7114B984202D0104B98423C
:1003200006D101AA6946200012F04EFE019DD1E7D8
:10033000022201A9200029F0ECFB0028CAD0F5E731
:10034000F0D7020068D6020070D6020064D2020024
:10035000070080FF502403004C3C03009C41030035
:10036000E4F00200F7B506000F0000920193041EAE
:1003700000D044683800431E9841201804308000A3
:1003800025F08AFF0C4B050003600C4B5B68436053
:10039000009B8360019BC360002E05D03100A2004A
:1003A0000831103023F084FA002F02D00434A40066
:1003B00067512800FEBDC046E4CB0200942E002009
:1003C00070B5060010200D00140025F065FF034BEA
:1003D000466085600360C46070BDC046A8CB020063
:1003E00010B54A6801492AF018FC10BD145A0300E0
:1003F000F0B58FB0069242680993944603680400F2
:1004000003939B6804300093634403600E0024F060
:100410003AFF0590606824F04CFF431C636003784A
:10042000A34A0193831C6360437800210093C31C9B
:1004300063608378B5000493031D6360C378200074
:10044000029323001033A360059B14309A18930085
:100450000793C318E360079B0C331A00089323F03B
:10046000B9FA099B009A5B190B93059B9B1A049A96
:100470000A939D1A2F1D009ABF00E7190123B2426B
:1004800068D2019A1A4207D13300009A89498A48F2
:1004900015F0E8FE16F004FD009B03359900099B5A
:1004A000AD005918009B6519F01A17F07BFF009EEC
:1004B000043F68600022964200D075E0069B002B46
:1004C00003D1019B1B0700D4D7E002230026019A29
:1004D0001A400992B24204D0069827F035FA060075
:1004E00038600027039B0B9DDB680893069B9F42A7
:1004F00063D10A9D029A05350399AD000332631951
:1005000092008A181900029E002E00D082E0029A02
:1005100092009B18079A2032A218934200D282E0E0
:100520000827009B089A9B00143DD3186519069371
:10053000049B9E4200D280E065680DA80D9524F0D2
:10054000A2FE28180578461CFF2D00D0A4E06660A6
:100550000FB0F0BD019A1A4205D00335AD00574BDC
:100560006519043F6B60069B002BA3D1019B1B0701
:10057000A0D4009B029A9A1A964213D3009A029B27
:10058000991A32008900009B9A4200D392E79300A7
:10059000039D58182818089D0069EB1AE318186184
:1005A0000132F0E7330071E7099908989300C958C0
:1005B000C31AE318196101327DE7009B04980022F9
:1005C0001B189C462968624505D3099B002B1CD14A
:1005D000CA083B490EE0089B90001858814212D18E
:1005E000059B013B9B1A9B00E3185A69002A05D022
:1005F000CA083449304815F035FE4BE76A685A613D
:100600000137083572E70132DDE76A68300027F00C
:10061000D3F9F5E70868002801D110680860013EA9
:100620000431043A70E7191D1B68002B03D1521ADC
:1006300092102549DEE70B006FE72A69002A11D1E5
:10064000019B3B4211D0029903980431890008585C
:100650000699B3000430C95813F0B0FF002804D045
:1006600043682B610136043D62E7009B1749F61889
:10067000089BB600F258D208BCE7049B002B02D0BE
:10068000134804F0D9FC019B9B0700D454E704985D
:1006900027F05AF938604FE7ED43059BED18AD00A0
:1006A000651968690FF078FD686130004AE7C04657
:1006B000FDFFFF3F4A5303005436030094410300FB
:1006C000B253030083530300D353030005540300C4
:1006D00035540300F0B589B0002807D1654B664852
:1006E00019682AF0D2F9654809B0F0BD0D68644B6D
:1006F0009D425AD10021080025F052FD002405003A
:100700000590604B5A680192944216D300265E4AC7
:1007100005A9012005F01EFF07AA06A9059825F0E6
:1007200056FD069BDD1CAD08AB000393524FB5424E
:1007300038D0B3000293019612E09B680193019AAE
:10074000E3009958002904D0042902D0280005F0BC
:100750009FFE0134D5E7039A029B944663440293BB
:10076000079B029A98580DF0E3FD010038002AF02B
:100770008CF9019B069A5B19019393420CD21223C8
:100780001C1A002C06DD013CE5D3404938002AF054
:100790007CF9F8E71234F4E73D4938002AF075F99E
:1007A0000136C3E73B4938009BE7280012F082FA84
:1007B0009A2342689B009A4200D16D68280017F086
:1007C000D5F8061E00D08EE72B4C334920002AF0C6
:1007D0005CF93100280012F09FFA280029F082F914
:1007E0002E49020020002AF018FAAB0732D12B68FC
:1007F0002B4A93422AD1280024F026FF27F0F1F853
:100800000025061E00D16EE773689D4200D36AE79B
:10081000B268EB00D3181F68002F15D05B68214920
:10082000200001932AF031F90021380012F074FA07
:100830001D4920002AF029F90021019812F06CFAD4
:10084000134920002AF021F90135DDE7174A280075
:10085000934202D0280012F02DFA806B002800D1BC
:1008600041E7830700D03EE7114B02689A4200D06F
:1008700039E7C3E754000020CC2D0300F0D7020075
:100880008618000030D502007C290300C69B0300B7
:10089000295C03005C540300805403008854030067
:1008A0002CD60200C59B030098540300840103006A
:1008B0002407030010B52AF01FFC014810BDC046F4
:1008C000F0D7020010B5C30708D483070ED1036820
:1008D000094A934202D0094A934207D112F0D2FA50
:1008E000002801DD28F0A5F9054810BD12F02EFB07
:1008F0001DF0A8F8F4E7C04664D2020078D60200E2
:10090000F0D7020001220B4B10B51A600A4A516859
:100910000029FCD000215160A1220131D2009A5857
:1009200059600323D01718408018801024F0F9FF75
:1009300010BDC04600C00040FCC0004010B50028FB
:1009400004D1044818F00EF8034810BD086812F0EE
:1009500099FAF7E7E7030000F0D70200F8B503784B
:100960000400002B1BD0402B1CD1012000231900B8
:100970001D001E002278002A3CD10132002E0FDC1F
:10098000002D0DDC00290BDC033B934208D9013C10
:1009900023785C2B04D0002801D00A2B00D1002240
:1009A0001000F8BD3E4924F091FC0028DDD13D49FE
:1009B000200024F08BFC0028D7D13B49200024F0F4
:1009C00085FC0028D1D13949200024F07FFC002883
:1009D000CBD13749200024F079FC0028C5D1354916
:1009E000200024F073FC0028BFD13349200024F0FC
:1009F0006DFCBBE7272A12D1002B01D0032B09D1B4
:100A00006278272A06D1A278272A03D10234243A11
:100A1000D31A02E00122012BFAD90134AAE7222AD3
:100A200012D11A000427BA430AD16278222A05D1CA
:100A3000A278222A02D102343A00E9E7002B01D041
:100A4000022BEAD10222E3E75C2A0BD16778272F39
:100A500003D0222F01D05C2F04D11A00571EBA41B7
:100A6000A418DAE7002BD8D15B2A12D006D8282A9E
:100A70000DD0293A57425741F61BCEE77B2A0AD0C0
:100A80007D2A0AD05D3A57425741ED1BC5E7013632
:100A9000C3E70135C1E70131BFE70139BDE7C04612
:100AA000CF570300A9540300AF540300B35403000D
:100AB00029760300B754030030830300F0B58BB0F0
:100AC000079343180390049201930093009B5C1ECC
:100AD000039BA34201D9009310E0207817F0EAFEAF
:100AE000002801D00094F1E7207817F0EFFE0028ED
:100AF000F8D123785F2BF5D02E2BF3D07E4B1D68D9
:100B0000009C019B9C4243D3009BE71A019B9C42A3
:100B100022D20026AB689E421BD2F3000293EB6800
:100B2000F2009858002838D0042836D009A90DF0D2
:100B300015FC099B01009F422FD13A00009823F039
:100B400043FA002829D1EB68029A9B1858680028BC
:100B500025D100200BB0F0BD0024260002940194A2
:100B6000AB689C4237D3019B002B66D1009B039A54
:100B70009342EED1614C3A002100180022F072FE3F
:100B80000028E6D1079BE41907301C60C01BE1E791
:100B900023782E2BB8D00134B3E70136BAE703230C
:100BA00018420DD10268564B9A4205D124F04CFDF3
:100BB0000500631C0093A3E7524903008A4202D058
:100BC00012F078F803009D6B002DC2D04E4B2A68BE
:100BD0009A42EED0BDE7EA68E300985800281CD09E
:100BE00004281AD009A90DF0B9FB099B05900693BA
:100BF0009F4212D801003A00009823F0E5F900283E
:100C00000BD1029B002B12D03B009E4202D3069ACE
:100C1000934204D9019B013301930134A0E7029A66
:100C2000D15C059AD25C914205D10133EDE7059B79
:100C3000069E0293EEE71E00ECE7019B012B0FD00E
:100C4000BE420DD8002340260193019BAA6893421F
:100C50000CD32E49049829F018FF0120404279E76F
:100C6000029B079ADB191360F01B73E7019BEA688C
:100C7000DB00985800283AD0042838D009A90DF094
:100C80006DFB099B039005939F4230D801003A0009
:100C9000009823F099F90290002828D133000F2200
:100CA0000F33DC171440E41824112401A41B012C79
:100CB00000DC1034059A33199B18402B0DD9039A88
:100CC0001349049829F0A9FF099E10E011490498DE
:100CD00029F0DBFE029B01330293029B9C42F5DC70
:100CE0000399049829F0D1FE099BF6183619019B47
:100CF00001330193A9E7C046942E00209D540300C0
:100D00002CD602008401030024070300295C0300A1
:100D1000A5540300C69B03000023820708D1006886
:100D2000044A0133904203D0034BC01A434243416B
:100D30001800704768CF02002CCF0200044B886077
:100D40000B60044B08004B600023CB607047C0462B
:100D5000F8220300CD53020030B585B0050008002D
:100D6000694603F073FB0400200003F0D1FB011E71
:100D700002D1064805B030BD2B1D0022180029F015
:100D800000FC0028F0D00248F4E7C04670D602000C
:100D900068D6020070B50500102025F07DFA040029
:100DA000074B696808C029F0E2FBAB68E968A360FB
:100DB0006B68E0689A0022F07BFD200070BDC046A1
:100DC00068CF0200F7B505000E0000248B0705D19F
:100DD0000B68224C1C1B62426241D4B2B368002BE8
:100DE0000AD1002C03D01E49280029F04EFE1D49CF
:100DF000280029F04AFEF7BD002C03D01A4928002C
:100E000029F043FE1949280029F03FFE002701235D
:100E10007268974207D31649280029F036FE002C45
:100E2000E9D01449E4E7BA000192F268B9005258D7
:100E3000002A01D0042A01D10137E9E7002B03D1B0
:100E40000D49280029F021FEF368B9005958012204
:100E5000280011F047FF0023EEE7C0462CCF020028
:100E6000F3540300FA540300005503000B5503002C
:100E70006F99030003B703000D55030010B58307F6
:100E800007D1044B02689A4203D10349034824F076
:100E900098FF10BD2CCF0200BB540300A431030007
:100EA00070B50D000400FFF7E9FF2900201D0122A5
:100EB00029F067FB004870BDF0D7020070B50D0047
:100EC0000400FFF7DBFF2900201D022229F059FB57
:100ED000004870BDF0D7020070B5060008680D002C
:100EE0000124FFF7CBFFB44201D3044870BDA30037
:100EF000E958286824F007FA0134F4E7F0D7020033
:100F000070B50D000400FFF7B9FF2800002103F0C1
:100F10009DFA0500280003F0FBFA011E01D10448E8
:100F200070BD231D0322180029F02BFBF2E7C046F9
:100F3000F0D7020010B50400FFF7A0FF201D29F034
:100F4000ABFB014810BDC046F0D7020010B501222E
:100F500024F00AFA004810BDF0D7020070B5040072
:100F60000D00FFF78BFF201D0222290029F009FB4D
:100F7000002804D1034829F0A2FE15F091FF024891
:100F800070BDC04684330300F0D7020010B50400E2
:100F9000FFF774FF201D29F060FB002803D10249F0
:100FA000024824F00EFF10BDDD540300843303001B
:100FB000F8B50D0001280BD0002803D002280BD073
:100FC000002004E08B681448002B00D11348F8BDC2
:100FD0008B685B001843FAE7032400200C4084422E
:100FE000F5D10F4B0E6820009E42F0D14F68A7420A
:100FF00003D1012076003043E9E7EA68A30099585D
:10100000002906D0042904D0022003F0B7F84010CC
:1010100036180134EBE7C04670D6020068D60200ED
:101020002CCF0200F7B507001020019125F034F90C
:1010300005000A4B060008C53900280029F097FA78
:101040000024BC4201D13000FEBD0199A300012261
:10105000C958280029F095FA0134F2E768CF020058
:10106000F7B505000E00171E2CD0FFF707FF194C2F
:10107000B5422DD000210800FFF7D4FF0021040065
:10108000300003F0E3F90190019803F041FA061EE5
:101090000CD1002F1CD0E86825F02DF963686B6037
:1010A000A368AB60E3680B4CEB6011E0281D0022E5
:1010B000310029F066FA0028E6D031002000FFF761
:1010C000EFFEE1E78842D5D1280024F02FF9040093
:1010D0002000FEBDF0D70200F0B589B01600040074
:1010E00003900291FFF718FE0027021E06D103AB02
:1010F0000121214824F092F901270400029D2800D3
:10110000FFF70AFE0023021E06D102AB01211A4896
:1011100024F084F9012305000193002E04D0A36874
:10112000AA68002693420CD0144B06940493144BE7
:1011300005930023079304A824F048F9011E11D158
:101140000126002F02D02000FFF7F4FE019B002BA8
:1011500002D02800FFF7EEFE0A48002E00D10A4810
:1011600009B0F0BD2B1D0022180029F00AFA002852
:10117000E1D10600E5E7C04668CF0200F82203008F
:10118000CD53020070D6020068D6020073B50C0081
:1011900015000091019200268B0705D10B68394E8E
:1011A0009E1B72427241D6B232001F2868D81BF0D3
:1011B000EFFA2810176767671C676767676767211B
:1011C0002D346767673B676767676740464A5358D0
:1011D000675D2900200024F0BAF80400200076BDE5
:1011E0002900200024F00FF9F7E76946022024F0D7
:1011F000E8F8F2E7002E04D069460220FFF76CFE03
:10120000ECE72900200024F098F8E6E72900200008
:10121000002EE0D0FFF774FEE0E729002000FFF782
:101220001FFF002EDAD1D8E76946022024F09CF88F
:10123000D3E7012229002000FFF74EFFCDE701226E
:1012400021002800F8E72800FFF766FD002815D0E8
:10125000A368AA68934211D12900200024F011F953
:10126000BBE72900200024F004F9B6E7201D002286
:10127000290029F086F9044C0028AFD1034CADE7D2
:101280000024ABE768CF020070D6020068D60200E7
:101290001FB503AB01930E4B0431013800930123BA
:1012A00013F02CF9039829F029F940B20300A02289
:1012B0000C21C133FF33D2059B009950A223DB00E0
:1012C000D358C3400348DB0700D5034805B000BD31
:1012D00054D1020070D6020068D602007FB503AB7D
:1012E00001930D4B043100930138012313F006F9EB
:1012F000039829F003F941B204A81AF0F9FA04A8F6
:101300001AF01CFBA0230021044ADB00D15024F07A
:1013100008FB07B000BDC0464CD102000070004081
:1013200070B504000D00160086B0042024F0B4FF50
:1013300003AB0193134B291D3200601E0093012360
:1013400013F0DCF8039829F0D9F841B20B00A02281
:101350000024C133FF339B00D2059C5004A81AF02F
:10136000C7FA04A81AF0EAFA0300A520A022400058
:1013700058430549D2008C50801224F0D2FA06B0AE
:1013800070BDC04618D2020000700040F0B5486839
:1013900087B00F0011F076FD041E02DA002003F082
:1013A0008BFCBB68164A01939D186B1E9D41010082
:1013B00002A824F0FFFB049E22000021300022F04E
:1013C00009FB3868EDB2C3070AD4330022002900B4
:1013D00024F073FA02A90B480CF032FB07B0F0BD01
:1013E00043102000042C00D904200749019F00224B
:1013F0008F4200D0221AB218290024F097F8E9E7AA
:1014000032E8FFFFA8100300CE170000F0B50C0073
:1014100087B0012203A9606811F0EEFEA3681349AA
:10142000039A8B420DD10126049976424C1E0191FC
:101430001419049900200D00002D05D124F08CFA18
:101440000DE014000126F4E7094F013DB84208D928
:1014500008481B18581E8341D8B224F01FFA07B061
:10146000F0BD277800023843A419E5E7CE17000045
:10147000FFFF3F0032E8FFFF70B546007408051C0F
:10148000211C201C1CF0C6FA002829D11649201C5A
:101490001BF076FB00281DD1002D0FDA002E06D0A0
:1014A000FF23DB05EB189C22D205934209D8281CA8
:1014B0001CF0C8FA01244000204370BDEB0DDB0591
:1014C000F1E701F0D3FA0400291C043027F0FCFDF9
:1014D0002000F2E70549064829F0FEFB15F0E0FC84
:1014E000044803F0E9FBC046FFFF7F7F205503005F
:1014F0002835030039550300F0B50C00002585B0F0
:10150000110020001E00009502232A0012F0C6FFE1
:101510000120AC422BD0844231D13068204226D108
:1015200003230340AB4203D11C4A016891421ED001
:101530001B4A0240062A06D0002B0DD10268194B27
:1015400092699A4208D103A90CF008FF00231A00FF
:1015500003990FF0A7F80AE0032302001A40022AB9
:1015600007D1FF22D20580189843FFF785FF05B009
:10157000F0BD11F087FC012340001843F7E703A9F1
:1015800030680CF0EBFE04007068039F11F07AFCE9
:101590002B00020039002000DBE7C04664D20200C5
:1015A000070080FF05E90000F8B51F000B4B150090
:1015B0005918013909781BF009F900260400B742CF
:1015C00004D0013003211BF001F90600281E01D0D0
:1015D00022F0C8FC0334A4192018F8BD10550300EC
:1015E000F0B58DB00A9214AA147815AA12780600E4
:1015F0000F000792DA0748D55D100023002D01DAAD
:101600002D236D420693139A079B12992020FFF712
:10161000CBFF3A680590904204D924F03DFE059B2B
:1016200030603B6000213768059BFB185A1E117023
:101630008D4246D00A3C099208920B9412992800D8
:101640001BF04AF90C00280012991BF0BFF8230088
:101650003033092C01D90B9B1B19089A541E237097
:10166000079B002B4BD000282ED0A7422CD2099BE1
:101670001B1B032B06D16B461B7F013C2370A7422B
:1016800022D2099405000894D8E79A0712D1244A77
:10169000196891420ED1079A02940392139A390065
:1016A0000192129A00920A9A24F0CEF804002000C7
:1016B0000DB0F0BD0023326813700A9A34681360CD
:1016C000F5E79C1E30232370139B002B06D01800D7
:1016D00022F048FC0023201A874217D3069B002BD8
:1016E00005D0BC4203D96B461B7E013C2370336896
:1016F000059A9B181B1B0A9A013B1360D7E7A74268
:10170000E2D20028BED1DFE7C2540133139AD25C83
:10171000002AF9D1069B0400002BE4D1E7E7C0467C
:1017200064D202001300144A10B50400934204D19D
:101730000122200003F0C8FA10BD104A934201D1E3
:101740000322F6E70020072CF6D10D4A1A40062A9C
:101750000ED09A07F0D11A680A4CA24208D00A4C5F
:10176000A24205D0094CA24202D0094CA242E3D1C8
:101770000A0007201900DDE768D6020070D60200D3
:10178000070080FF50240300A81003009C410300C1
:10179000E4F00200F7B50023A024A225354E019302
:1017A000E405ED0063593278D340DB0745D4642764
:1017B00063593278D340DB0742D563593278D3403E
:1017C000DB073AD5F625A027A224FF35FF05E40064
:1017D00032783B59D3400122134027D0013D002DE0
:1017E00035D12C000927013F002F23D03D25A02310
:1017F000A222DB05D2009B583278D340DB0717D4F6
:10180000013D002D27D1A023A222DB05D2009B5849
:101810003278D340DB0722D401AAA35C5B083C2DBD
:1018200002D9802149420B43A354DCE71C00D9E7CD
:101830000025E8E70134042CD4D101AB987816E0F8
:101840006420013F27F0F1F9002FB6D0B0E70A205D
:1018500027F0EBF9BCE70A2027F0E7F9C7E70135E5
:101860000A20EDB227F0E1F98D2DCCD1002024F033
:1018700058F8FEBDD62D00207FB504000D001600DF
:10188000042024F009FD03AB01930B4B3200291D0A
:10189000601E0093012312F031FE039828F02EFE03
:1018A000064B04221870A023C130FF308000DB05F6
:1018B000C250034804B070BD10D30200D62D0020E2
:1018C000F0D70200F7B545681600A8681F0001911F
:1018D00023F0E9FC0400A86823F0EBFC23F0E3FC10
:1018E00003000320584307340019800024F0D4FC7F
:1018F000074B040003606B6832004360002385607F
:10190000C36001993B000830FEF772FD2000FEBD68
:1019100060D3020070B5050088680C0023F0A9FCB4
:10192000230002000249280029F077F970BDC04663
:101930007255030010B5024829F0C1F915F0B0FA4C
:10194000A035030010B50400082024F0A5FC024BCC
:101950004460036010BDC0469CD30200F7B5C56863
:1019600004001E00002D02D11D602800FEBD036989
:101970001830834205D1184B994203D0174803F021
:101980005BFB19602000164F11007B680830019343
:1019900063687B6006F0CAFB019B05007B60012841
:1019A00007D002280CD00023E36023691B68336052
:1019B000DBE723691B683360002BD6D1E360D4E7F3
:1019C000A368986823F06FFC002305308000E36073
:1019D00024186368EBE7C046F0D702009055030077
:1019E000942E002013B501ABFFF7B8FF01280ED0ED
:1019F000104C02280DD0019BA34219D0002B17D008
:101A000001AA01210C4829F054F915F049FA01986E
:101A100016BD019811F04EF9074906F007FB0028A2
:101A200001D10198F1E7019814F0EAFBA042F8D146
:101A30000020EDE7F0D70200A035030010B50B0041
:101A4000022808D14A6805491868FFF7CBFF00282B
:101A500003D1FFF76FFF8A68F5E710BDF0D70200EA
:101A600010B500220149FFF7BDFF10BDF0D70200FD
:101A700013B5114C01AB114A2100FFF76FFF01288C
:101A800003D0022805D0200016BD0D490D4824F0D2
:101A900098F9019811F00EF90B4906F0C7FA0028E1
:101AA000F1D1019811F006F9084906F0BFFA0028B3
:101AB000E9D1019815F0F4F9F0D702000C310300D8
:101AC000525503006435030094320300A03503002F
:101AD00010B53E2803D040280DD03C2808D142390B
:101AE000C9B22F2904D80A4B585C012300280BD116
:101AF000084803F0E1F80139C9B27029F8D8064B5B
:101B0000585C064B5B56F1E7002A00D0136010BD0D
:101B1000C6550300D8560300F65503006756030068
:101B200010B551283DD011D849282ED007D84228C9
:101B300003D0482826D0012806D18B5C10E04F281E
:101B40004BD017D84C2820D0002309E0682816D0A5
:101B50000AD8642836D066282AD06228F4D18B5659
:101B600001205B00184314E06C2803D0712811D0C9
:101B70006928E9D19200505823F0D3FE09E05200C1
:101B8000535EEDE75200535AEAE79200505823F0B3
:101B9000E3FE10BDD2008A181068516823F0B2FE2F
:101BA000F7E7D2008A181068516823F0C6FEF0E704
:101BB0000323920050589843030002201843084B17
:101BC000C018E6E7D2008A18106851681DF092FD2F
:101BD000032302009A431300EFE792005058D8E71E
:101BE00000008080F7B51700156801AA04000E00F8
:101BF000FFF76EFF402C05D1019B043C5A1EAA182A
:101C00005D4215405A213E3C62426241B1428941E7
:101C10002B183B60D2B22B00494223F05EFC04003B
:101C20000D004F2E08D0532E07D122F09BF9002231
:101C3000010020000BF03AFFFEBD662E06D1032303
:101C400002249843154B2043C018F5E7642E06D1B3
:101C50001DF050FD0323040002209C43F2E75A2E9E
:101C60000FD980220023D20512196B41002B04D119
:101C7000002A02DB23F055FEDEE7290023F042FEB6
:101C8000DAE7002905D1064B984202D823F064FE1A
:101C9000D2E7290023F051FECEE7C0460000808045
:101CA000FFFFFF3FF0B587B0160003AA01931C6841
:101CB00000900F00FFF70CFF009B0500402B06D1A2
:101CC000039B5A1EA2185C423C2314400093019AC5
:101CD00063191360009B3E3B0193642F15D0662F60
:101CE0000ED04F2F2FD1019928004B425941C9B234
:101CF000042D00D904203300220023F017FC31E02A
:101D0000300011F023F90600EDE7300011F01EF964
:101D10001DF09EFC04900591019906AA4B42594181
:101D2000C9B28B00D318083B22001B68042023F0A3
:101D3000FDFB019B04345A1E934106AA9B00D31855
:101D4000083B1E68CFE7B3070ED1124B32689A42A8
:101D50000AD101992A004B4259413000C9B22300EF
:101D600023F0ABFD07B0F0BD300011F08BF806009A
:101D7000042DB8D900215A2F02D9884200DAFF3148
:101D80002A00200021F026FE009B3E2BABD12B1F0A
:101D9000E418A8E764D20200F7B506000F001400AB
:101DA0001D0064280DD0662804D04F2813D194005C
:101DB000E35105E0940018000F1911F0C7F83860DE
:101DC000F7BDD40018000F1911F0C0F81DF040FC49
:101DD00038607960F4E703232B40019311D10E4B57
:101DE0002A689A420DD1019A01004020FFF770FE47
:101DF000230043430200FB180199280023F05DFDF6
:101E0000DEE7280011F03EF8220003003900300020
:101E100023F09FFBD4E7C04664D202007FB503AB3A
:101E200001930D4B043100930138012312F066FB3E
:101E3000039828F063FB41B204A819F059FD04A8E7
:101E400019F07CFDA0230021044ADB00D15023F0CF
:101E500068FD07B000BDC04638D4020000700040E5
:101E600010B50C0023F09AFD631E184207D0020043
:101E700023000349034814F0F5F915F011F810BDDB
:101E8000E5560300CC36030010B54A680249D2007B
:101E900028F0C3FE10BDC0460D57030070B50B00FF
:101EA00004001500101E0FD061681800042A0ED11E
:101EB000FFF7D6FF6368012B03D0022B05D0006823
:101EC00000E0007823F02DFD70BD0088FAE7FFF7F1
:101ED000C7FF0600280011F001F8626803000548FA
:101EE000012A03D0022A03D03360EDE73370EBE719
:101EF0003380E9E7F0D70200F0B585B00C000BF0B5
:101F0000F7FD03AA050002A9200011F05DF8029F69
:101F1000039B380010308000019324F0BDF90400C9
:101F20003C22002121F056FD65600025104BE7633F
:101F30002360104BA360104BE360104B6361104BA8
:101F4000A361104BE361104B2362104B6362104B93
:101F50006363AF4202D1200005B0F0BD019BAE002B
:101F600098590BF0C5FDA61930640135F1E7C0465C
:101F700084010300951F0000F91F00004983010040
:101F8000E5830100B91F0000E5840100D58201004E
:101F90009C41030070B50C0005000B6805495A68A8
:101FA00028F03BFE216828004031220012F072FC2C
:101FB00070BDC046145A0300136870B5002B12D1CF
:101FC0000568EE6BB34200D170BD9C002C19246CE7
:101FD000A14201D00133F5E7591CF5D002339B0033
:101FE0001B581360F0E70249024823F0EAFEC0469E
:101FF0001D570300A4310300F0B5C66B85B00393F1
:102000008B180500019117009E4206D03200264928
:10201000264814F027F914F043FF0021300016F091
:10202000C1F90400019B05609B001A000399083068
:10203000029321F03DFC0298BA00083020180021DC
:1020400021F0C8FC029A039B94466344F7191E00D2
:10205000019BBB4202D3200005B0F0BD30680BF0FD
:1020600047FD00210200EB6B0293029B994204D1D1
:102070000F490E4814F0F6F8CDE78B00E818006C15
:10208000824201D00131F0E70131F1D0E3189968C3
:10209000002901D00749ECE7726808369A60019B75
:1020A00002330193D4E7C0464A5303005436030079
:1020B000B25303008353030030B507240278084D60
:1020C000A24314000222224302707F22039C41603B
:1020D0002240D400028883602A402243028030BD1F
:1020E00007FCFFFF10B50B00072401782340A14334
:1020F00019437F23017004990A4C0B40D9000388CF
:10210000426023400B430380039B04685905064B40
:10211000C90A23400B430360029B8360059BC36095
:1021200010BDC04607FCFFFFFF03E0FF1FB503AB78
:1021300001930E4B043101380093012312F0DEF9B4
:10214000039828F0DBF940B20300A0220C21C13330
:10215000FF33D2059B009950A223DB00D358C34024
:102160000348DB0700D5034805B000BD24D50200B5
:1021700070D6020068D60200F0B5324B85B002ACD2
:102180000431013801940093022312F0B7F9029848
:1021900028F0B4F90500606828F0B0F96AB21100BF
:1021A000A0230024C131FF31DB05890040B2CC50AF
:1021B0000100A225C131FF318900CC50ED005959F1
:1021C0000134D1405A592140C24022401E4C23784C
:1021D000994203D11D4B1B789A4231D01C4ECDB28F
:1021E0003378D0B29B00C3186F00DB19DBB23370B9
:1021F000002922D0002A20D04B2B10D11549164B94
:102200000A78002A08D000220A701A800020185E7E
:1022100023F087FB05B0F0BD1A880132F5E7872B64
:102220000ED10C4A0C4B1178012903D001211170F9
:102230000022EAE71A88013AE7E7044B2570187094
:102240000020E5E714D50200D82D0020D92D00206C
:10225000D72D0020D8000020C82D002010B5040084
:10226000486800220430074912F0A8F9064A0028FD
:1022700003D040680CF05CF802000449200028F00C
:10228000CCFC10BD0E120000048203003157030085
:1022900070B5150012680C004368002A0AD1CC0002
:1022A0000621181D214312F089F9002801D0436846
:1022B0002B6070BD1A79180092070BD50C4A934217
:1022C000F7D10C4EF36D002B03D1012025F03CFB20
:1022D000F065F06D06216A68E4002143002A03D10D
:1022E00025F074FB0023E3E725F066FBFAE7C04620
:1022F000B4140300942E002070B50625C0000543D9
:10230000012229000B4812F059F906004068002804
:102310000FD1083023F0C0FF074B040003600120F9
:1023200025F012FB2A006060044925F045FB2000DF
:10233000746070BDD02E00202CD602000E1200005A
:1023400010B50C000621C00001430122024812F022
:1023500035F9446010BDC046D02E002073B5062567
:10236000C3001D430600002229000F4812F026F981
:10237000041E17D1020029000C4812F01FF9041E98
:1023800011D06A460A49406801F0E2FF009B002B29
:1023900008D000216A46080023F0D7FC61683000AD
:1023A000FFF7CEFF606876BDD02E002030D502004A
:1023B0003A02000010B50B790349002B00D1034904
:1023C00028F063FB10BDC0463F570300445703008D
:1023D00037B50C00110000221D00009201232000DF
:1023E00012F05CF8002C05D0286810F089FE034B31
:1023F000002800D1024B18003EBDC04670D6020036
:1024000068D602000021F0B5070087B0816423F090
:102410008DF9FB693C6ABB637B6AFC63002B05DAC0
:102420003A00062140321170013306E0002B07D03C
:102430003A00052140321170013B7B6207B0F0BDCC
:10244000002833D0BB6A002B30D13900043340312F
:102450000B703A6BAD4B786BD3185B001B5A013C89
:102460009C42EBD017D9F96A8A4207D30831490058
:1024700023F030FFFB6A78630833FB623B6B5A1C26
:102480003A637A6B5B009C527B6ACDE7013B3B630E
:102490007B6A013B7B623B6B9C4A9A185200125A42
:1024A0009442F3D3CAD002230B70C7E73C69631C84
:1024B00003D1002240373A70C0E7380023F0DBF840
:1024C0000490002800D127E13B004033059300230E
:1024D000059A13703B69752B5AD0622B07D17B6923
:1024E000722B5CD001240B230022019208E0722B96
:1024F00051D17B69622B52D0049B012401930A23A2
:10250000390040310A78002A4ED10B70002C07D0D8
:10251000380023F0DBF8022C02D1380023F0D6F883
:102520003B690293222B01D027230293380023F02A
:10253000CDF80123029A03933B6993420BD1130018
:102540007A69934207D1380023F0C0F8380023F0AD
:10255000BDF80323039300253E69731C00D1CBE033
:10256000039B012B02D10A2E00D1C5E0039B9D42A3
:102570001DD338002900443023F0AFFB012138007F
:1025800023F0D4F8380023F076F80028A2D155E7DC
:1025900001240A23A8E700240A230194B0E7049B3E
:1025A000022401930B23ABE79342AFD046E7029B93
:1025B000B34209D1380019004430013501F0F6F872
:1025C000380023F083F8C7E7F1B25C2E00D08EE02C
:1025D000380023F07BF8019B3C69002B05D03800C4
:1025E0005C21443001F0E2F849E0622C00D1ACE11A
:1025F00030D84E2C73D01BD8222C4BD0272C49D04E
:1026000000250A2CDCD0200030380728E7D8040049
:1026100003257B69303B072B31D8013D002D2ED09F
:10262000380023F053F83B69E400303B1C19F0E715
:102630005C2C2FD0612C00D18DE1552CE3D13B00D7
:1026400040331B780B2B35D138005C21443001F02E
:10265000ADF81FE0742C00D179E107D86E2C18D0AA
:10266000722C25D0662CCED10C2413E0762C1DD0F4
:10267000E5D30225782CC6D10024013D1FD20025C8
:10268000631C9DD0224B9C4204D90122059B1A70E9
:102690000AE00A243B0040331B780A2B22D1380081
:1026A0002100443001F082F8002589E70B24F1E78E
:1026B0000D24EFE70825752CDED1043DDCE738005A
:1026C00023F004F83E69300016F00CF9002800D120
:1026D00036E1300028F0E0FC24012418CDE70D4855
:1026E00002F0D8FCFF2CD0D8E1B20B2BCDD13800B2
:1026F000443023F0AEFAD7E7039B9D4200D338E77E
:102700003B00032240331A7033E7C046FFFFFF7FD0
:10271000FFFF10008B570300200016F0CBF8041EBB
:10272000386903D15F2801D07F2841D93D000723B4
:102730003C0040352B704434C1B2200023F089FAAC
:10274000380022F0C3FF3869431C1BD1200023F05E
:102750006EFA00240600814FA300D959300021F001
:10276000BDFB00281DD10D34E4B22C70102C00D01C
:1027700064E67B4BA8331A680D23002A00D102338C
:102780002B705BE616F096F8002808D138695F28B0
:1027900005D07F2803D816F099F80028D6D0397CC8
:1027A000CBE7002800DA49E60134222CD4D145E6F3
:1027B00016F08CF8002818D13B692E2B10D000257C
:1027C0000223684C2678002E02D03A69B2425FD1CB
:1027D000380022F07BFF002E63D1403701226AE6E9
:1027E000786916F073F80028E9D03E003969403660
:1027F0002E290AD1092333703D004435280000F00A
:10280000D5FF380022F062FF25E00823337030291D
:10281000F2D17A6918331343623B162B03D8524C1A
:10282000DC4001231C4001231C40E5E7002C16D1AD
:10283000652801D0452812D109236521337028006D
:1028400000F0B4FF380022F041FF396902220B008A
:102850002B3B9343D2D03869431CE7D1EEE516F009
:1028600029F8002805D039692E290BD109233370A6
:10287000C4E7386916F02AF80028F4D13B692E2BFA
:10288000F1D0DBE50B00202293434A2BB6D1EDE7D4
:10289000633E9E43F2B256425641A41901350134BB
:1028A00090E7212E08D13B693D2B96D1380022F0CC
:1028B0000DFF40374122FEE52E2E10D13C003B6932
:1028C00040342E2B45D17B692E2B42D1380022F08B
:1028D000FDFE380022F0FAFE0C232370AEE52A003C
:1028E0000134267802213300633B8B43DBB2002B9B
:1028F0000ED1637839690135994207D1380022F049
:10290000E5FE2A00652E03D00234EAE7632EFBD1F0
:10291000164B9B5C3A00403213701900042291431D
:10292000422901D0442B03D1BB6A0133BB6285E548
:10293000432902D0452B00D080E5BB6A013BF5E777
:102940000122059B04001A70A4E60824A2E60924CB
:10295000A0E64A23C1E707249CE6C046B4D602009D
:10296000942E00204A57030001204000FE57030028
:10297000F0B5234B85B01E78224B10221F78002122
:10298000684621F027F83B00A0240C220125C13322
:10299000FF33E4059B001A512A00A123BA40DB0053
:1029A000E25033000322C133FF339B001A510A2047
:1029B000B54026F03AF90026134B0A20E55026F0E0
:1029C00034F9A123DB00E5500A2026F02EF9A223DA
:1029D000DB00E3580122FB4013406A469355013661
:1029E000102EE9D100206B461B5C0130002B03D177
:1029F00022F097FF05B0F0BD0828F4D10348F9E7AD
:102A0000EF2D0020F02D00200C050000F0D7020073
:102A10007FB504000D001600042023F03DFC0B4B95
:102A2000601E02AC291D320000930194022311F0B4
:102A300065FD029827F062FD054B1870606827F06D
:102A40005DFD044B1870044804B070BDACD70200A3
:102A5000EF2D0020F02D0020F0D7020010B5024924
:102A600028F013F810BDC046A057030010B5102081
:102A700023F012FC0400034B08C026F0A6FA200045
:102A800010BDC04664D2020070B50C00052804D801
:102A900019F07EFE06030C04131C0024200070BDF8
:102AA0008B680E4C002BF9D10D4CF7E7081D26F072
:102AB00006FF012440000443F0E7FFF7D7FF211D84
:102AC0000500043026F015FC2C00E7E7FFF7CEFFE9
:102AD000211D0500043026F01CFCF5E770D602002D
:102AE00068D6020070B5050083070CD1104B026850
:102AF0009A4208D1FFF7BAFF0400291D043026F0DE
:102B0000EDFB200070BD280010F0BCF9C0231B06AF
:102B1000984205D180200021C00522F0F3FEF1E7A4
:102B2000C2178318012053405B001843EAE7C046F0
:102B300064D2020007B5C30701D540100EBD0430B2
:102B400001A910F09BF8002801D00198F6E702498E
:102B5000024823F036F9C0464E58030028350300DA
:102B60000123F0B58BB001900D0017000B402AD067
:102B70004B10022203A904A826F065FA04AEFB0755
:102B80002BD57B10022203A904A826F05CFA04AD21
:102B9000019B092B01D0162B35D16B68002B5FD020
:102BA000300026F0E2FE041C280026F0DEFE011CA8
:102BB000201C1AF083FA032302249843734B20430A
:102BC000C0180BB0F0BD0320084000D0D6E0704B19
:102BD0000A689A42F5D10E1DD1E703231F4205D1A1
:102BE0006B4A3968914201D13D1DD1E73B40022B30
:102BF00003D1684B3B40062B7BD13A00290001985A
:102C0000FEF790FDDDE7019B182B00D98DE0FFF763
:102C10002DFF0400019819F0BBFD454B3F51510DAC
:102C2000141A2075346675454B3F51510D141A2006
:102C300075346600201D2A00310026F001FC2000BA
:102C4000BFE7201D2A00310026F034FCF7E7201DE5
:102C50002A00310026F06EFDF1E76B68002B03D1EE
:102C60004D494E4823F0ADF807A826F0AEF92B00E9
:102C70003200201D07A90FF099FE07A826F0B1F930
:102C8000DDE76B68002BEBD007A826F09EF9211D2D
:102C90002B00320007A8EEE7201D2A00310026F0A5
:102CA00051FCCCE7201D2A00310026F0CDFCC6E700
:102CB000201D2A0031000FF005FEC0E73800FFF7A5
:102CC00039FF021E02DA364801F0F6FF019B201D93
:102CD0003100032B01D0102B02D10FF087FDAEE79E
:102CE00026F04EFBABE76B68002B49D02B78DB0757
:102CF00046D5300026F039FE3A00011C019814F048
:102D00008BF95EE76B68002BAAD0FFF7AFFE0700D8
:102D1000211D04302B0032000FF048FE07A90220CD
:102D20000797089415F03EFB4BE72900300026F08A
:102D3000B2FA019A0300193A0020042A00D940E7A8
:102D4000100019F025FD0309160D12001548002B7F
:102D500000DB36E7144834E71248002BFADC30E792
:102D60001048002B00DD2CE7F4E70E48002BF1DAC9
:102D700027E70C48002B00D023E7EBE7180020E7FB
:102D8000201D2A00310026F058FD58E70000808001
:102D900064D20200070080FF2858030008370300B0
:102DA0003958030068D6020070D6020010B504003E
:102DB000431C02D0024813F0B3FA024B1C6010BD52
:102DC000BC2E0020902E0020014A024B9A647047CE
:102DD000BC2E0020942E0020F0B52E4B8DB01B7819
:102DE000202203932C4B2D491B7804A8019320F03B
:102DF0005FFDA0220126019BD2059B009B18E022CB
:102E000003213700D20099500293019BA0249F40D8
:102E1000A123E405DB00224DE7505D2025F005FFEE
:102E200067510A2025F001FF0322039BE021C133F3
:102E3000FF339B001A510C23029AC90053503100F2
:102E4000039B00229940A223DB0017009C460292BC
:102E50000132112A0CD0A123DB00E15063466151FD
:102E60000198E358C3400298334083401F43EEE784
:102E7000042025F0DAFE0020430004AAD35A9F4222
:102E800003D122F04EFD0DB0F0BD01301028F3D17A
:102E9000EF30F6E7EF2D0020F02D0020EC4D030081
:102EA0000C0500007FB504000D001600042023F07F
:102EB000F3F90B4B601E02AC291D32000093019404
:102EC000022311F01BFB029827F018FB054B18702A
:102ED000606827F013FB044B1870044804B070BD01
:102EE000A0D80200EF2D0020F02D0020F0D7020026
:102EF00010B5040022F09BFE25F0A1FD01280BD0A7
:102F00000649200022F0AEFE200022F090FE25F0BF
:102F100096FD022800D0002010BDC046B75803001F
:102F2000F0B59DB000AF0C68032835D9CB68FB60C5
:102F3000042835D00D6900206D102BD41C232000EF
:102F4000F9180BF00BFA7861002D5AD0964C97497E
:102F5000606808F02BFA060060680022944904308B
:102F600011F02CFB1823FA18D118040030000BF0D4
:102F7000F5F93B6B013D0100C318002C05D19942C6
:102F800003D2013B1A782E2AF9D1013D0ED2994283
:102F90000FD1884801F090FE874B0025FB60CDE7FC
:102FA0000025CBE7013B1A782E2AEED09942F9D3BF
:102FB000EBE7FE695C1A2500002E01D0751C65192F
:102FC0002B006A460E33DB08DB00D31A9D46220035
:102FD00018003B6120F06CFC002E08D02E233A69CB
:102FE000601C135510187969320020F061FC29002B
:102FF000386902F06FFA06243B69C0000443FD61A2
:103000007B6120000AF074FDFFF7A8F9061E15D0B9
:103010002E21786920F0F4FE00280BD0664BFA6868
:103020009A4207D17B69C11A180002F053FAFFF7E0
:1030300095F906003000BD461DB0F0BD18231820DC
:103040000125FA18D2183818103B4021C01822F078
:10305000B9FD7E603E61FB699D4205D9564BFA6819
:103060009A42E7D17E68E5E79D4204D07B695B5DCB
:103070002E2B00D08EE02900786902F02BFA7B6AB3
:103080003860002B18D12A007969083318203818C5
:10309000C01822F062FD18220823BA18D018FFF7D2
:1030A00027FFB860BB68002B14D13A6843494448F5
:1030B00013F0D8F813F0F4FE18220823BA18D01829
:1030C0002F2100F073FB3B693969EA1A7B695918B3
:1030D0000823DBE73868FFF741F9041E44D138685C
:1030E000FFF70AF9FB6904009D4213D1354BFA68DA
:1030F0009A420FD1BB68012B0FD0334A2B4940684D
:1031000024F05AFC18220823BA18D118200022F003
:1031100053FC29E0BB68012BF4D10022796AB86A1C
:103120000AF0C4FC912102008900200001F06AF934
:103130007B6A1822BB600823BA18D0182F2100F030
:1031400035FB18220823BA18D018204922F08AFD2E
:1031500018220823BA18D01822F069FD25F06FFC58
:10316000022819D0BB687B62002E0CD07A693B69BB
:103170009446E91A6344180002F0ACF922000100F9
:10318000300001F03FF97B68002B00D17C60260005
:103190006B1C3B6101355EE718220823BA18D11871
:1031A000200022F009FCDDE7942E00200E12000022
:1031B000261200007B580300F0D702009A58030043
:1031C000D032030068D60200FE110000AF580300A1
:1031D00010B50C000FF06EFD006B00280ED0E30759
:1031E00002D50368002B09D0A30702D54368002B42
:1031F00004D0630706D58368002B03D10249034836
:1032000022F0DFFD10BDC046BB580300EC340300C4
:10321000F0B50D008DB00400012128681700FFF7FC
:10322000D7FF0600012C22D12B680121180004933E
:10323000FFF7CEFF80210700490008A822F0A9FC73
:10324000802400230A9E6400039307AB2200310010
:1032500004983D68A847431C28D107980B2800D044
:10326000ADE0039B002B34D159480DB0F0BD686828
:103270000FF008FE030003900133D5D00124337B07
:10328000234200D184E00027039E08A8310022F0E9
:1032900080FC0594002E70D0310008A822F0B9FC03
:1032A000011E1ED14B494C4822F08BFD002810D046
:1032B000039B1B180393844202D9241A3618C4E7CF
:1032C000802108A8490022F091FC802406006400B7
:1032D000BBE7039B414809933B7BDB0776D440481F
:1032E00074E000230093320007AB286822F081FBD2
:1032F000079B0400002B0ED008A8310022F0EDFC43
:1033000007980B285BD1099B0393002B35D108A8A4
:1033100022F061FCA8E7864229D80A9B3800049372
:1033200002239C46099E049B059ADB5D59B2002945
:1033300012DA19001F246246A143C0290CD01900DB
:10334000103C0322A143E02906D004329343F03B12
:103350001A00511E8A410432D719B74212D8039B72
:103360003800013B0393B742DDD31E0092E7311AC8
:1033700008A822F0B2FC002CCFD1184808A90AF006
:103380005FFB72E7F643039BF618F619070081E727
:10339000039908A822F00EFC009707AB039A0A993C
:1033A000286822F026FB079B002B0AD008A822F0F1
:1033B00012FC079B06480B2B00D156E7180001F0C2
:1033C0005DFE337B09900548234288D008A9D6E7E3
:1033D000F0D70200DA580300383403005024030009
:1033E000A810030030B50C0087B00121050020684B
:1033F000FFF7EEFE022203A960680FF0FDFE049ABB
:10340000022D06D9A0680FF03DFD049A824200D932
:103410000200002303990093206802AB22F0E9FA2E
:10342000029B002B05D005480B2B05D0180001F09E
:1034300025FE43000120184307B030BDF0D702003D
:10344000F0B589B00191019B040001211868FFF7D4
:10345000BFFE0700012C18D9019B5B685C10631C40
:1034600013D0210004A822F094FB631C03D0631E38
:10347000002C2FD01C00012104A822F0CAFB061E3C
:103480000AD11B491B4822F09CFC0124102104A8EE
:1034900022F07FFB6442E8E70100019803AB0122C0
:1034A00000683D68A847431C0ED103980B2809D13A
:1034B000059B0193012B09D104A822F08CFB0E4837
:1034C00009B0F0BD01F0DAFD00280CD1012104A8FB
:1034D00022F003FC3B7B0948DB0700D4084804A921
:1034E0000AF0AEFAECE733780A2BBED1F2E7C04619
:1034F000DA58030038340300F0D7020050240300E8
:10350000A8100300F0B51F0004000D00160085B0E0
:103510000221FFF75DFE03AB009732002900200077
:1035200022F067FA039B002B05D005480B2B05D032
:10353000180001F0A3FD43000120184305B0F0BDC1
:10354000F0D702007FB504000D001600042022F021
:10355000A3FE03AB0193084B291D601E00933200AC
:10356000012310F0CBFF039826F0C8FF034B18701F
:10357000034804B070BDC04670D90200DA2D0020A7
:10358000F0D70200F0B585B00522002102A820F096
:1035900021FA484EA0243278032113000125C133BB
:1035A000FF33E4059B0019512B0093401A00424B56
:1035B0001420E25025F03DFB2A00337828209A4061
:1035C000A123DB00E25025F030FB32780C21130000
:1035D0009540A222C133FF339B001951374BD200D3
:1035E000A158294206D1013B002BF9D1344B188850
:1035F00005B0F0BDA022A221304BD205C90054581D
:103600002C4017D12923072501270093009B013B5C
:103610000093002B3AD03A00A2213378C9009A4097
:10362000264BA020C0054058104207D1013B002B7B
:10363000F7D1DBE7013B002BE1D1D7E725F00DFB0C
:103640003A00A221337801909A401C4BC900A02077
:10365000C0054058104203D0013B002BF7D1C5E70D
:1036600025F0FBFA019BC01A2D2806D93A00AA4082
:1036700002AB1B5D134302AA1355002D03D1013485
:10368000E4B20735C2E7013DEDB2BFE702AB9A787D
:10369000187802A9497813185B1802A9C9785B1831
:1036A00002A90979DBB29942A0D10004044B10436E
:1036B00018809DE7DA2D00200C050000E12E0000A7
:1036C000CA2D002070B506000D00002814DD002969
:1036D00007DD154819F004F90124864209DC0024AD
:1036E00007E00100C020000619F0FAF80124854225
:1036F000F5DAE4B2200070BD002907DDC020000625
:1037000019F0EEF801248642F3DBE8E70024A0423A
:10371000F0D00100044819F0E3F80123854200DBF2
:10372000231CDCB2E6E7C046FFFFFF3F30B5174B76
:1037300085B002AC0431013801940093022310F0EB
:10374000DDFE029826F0DAFE6468631C1AD045B2EA
:10375000142022F0E6F80100002010F095FC2B0068
:10376000A0220321C133FF339B00D2059950E121F0
:103770002D34A002C900001B19F0B2F80100280086
:1037800014F050F8024805B030BDC046F4DA02002B
:10379000F0D7020070B50500140022F0FAF9024BD0
:1037A0002560636070BDC0465B5B020010B50C0015
:1037B0007F2906D8012122F02CFA002800D00470BD
:1037C00010BD224B994210D8022122F022FA002883
:1037D000F6D04023A2095B42134303703F232340EA
:1037E000802464421C434470EAE7194B994214D880
:1037F000032122F00EFA0028E2D02023220B5B42A4
:1038000013433F2180220370A30952420B400C4016
:103810001343224343708270D2E7042122F0F9F966
:103820000028CDD01023A20C5B4213433F2103702C
:103830008023220B5B420A401A434270A2090A40CD
:103840000C401A431C438270C470B9E7FF070000A4
:10385000FFFF000007B5034B00906846019311F08D
:1038600019FD07BD5B5B020010B50D21034820F078
:1038700013F90D2022F055F810BDC046E85803009A
:103880001FB503AB01930E4B0431013800930123A4
:1038900010F034FE039826F031FE40B20300A0225F
:1038A0000421C133FF33D2059B009950A223DB00D2
:1038B000D358C3400348DB0700D4034805B000BD1C
:1038C000C8DB020070D6020068D602007FB5040093
:1038D0000E001500042022F0DFFC114B601E02AC2C
:1038E000311D2A0000930194022310F007FE029874
:1038F00026F004FE40B20300A0220321C133FF33AF
:103900009B00D2059950012321798340002905D0DD
:10391000A121C9000348535004B070BD0249F9E722
:1039200034DC0200F0D702000C05000030B503259E
:1039300087B0144B04AC0431013801940093022386
:1039400010F0DCFD0499247903AA0F4B0F4829409D
:10395000002C0ED05C5C80235B4223431370002359
:10396000343100934900013316F02CFA084807B0AF
:1039700030BD7F255B5C34312B40137049000094CF
:103980000123F1E710DD02004B2E0020202A002049
:10399000F0D702001FB5002303AA1370482100933B
:1039A0000348013316F00EFA024805B000BDC046C8
:1039B000202A0020F0D70200F0B50C008BB006AD35
:1039C00016001949102228001FF072FF20000FF086
:1039D00059FA002804DB20000FF054FA0F2802DD0A
:1039E000124801F069F920000FF04CFA2B5C05AF8A
:1039F00030003B700FF046FA039020000FF042FABF
:103A000003992A5C0A4B30005A540FF03BFA01002C
:103A1000002334310093490001333A00054816F081
:103A2000D1F905480BB0F0BDFC5803002059030044
:103A30004B2E0020202A0020F0D7020070B5040091
:103A400008000FF01FFAFA218900050018F0BEFEE9
:103A500021F067FF0600002021F063FF3100020023
:103A60002000FFF7A9FFFA212800890018F034FF91
:103A70000D006421280018F0A9FE21F052FF060075
:103A8000012021F04EFF310002002000FFF794FFDB
:103A90002800642118F020FF0D000A21280018F0EA
:103AA00095FE21F03EFF0600022021F03AFF310092
:103AB00002002000FFF780FF28000A2118F00CFF09
:103AC000080021F02EFF0500032021F02AFF290025
:103AD00002002000FFF770FF004870BDF0D7020021
:103AE0001FB503AB01930F4B043100930138012341
:103AF00010F004FD039B002B05D0DBB2082B03D98B
:103B0000094801F0D9F805231B0102AA01331370FB
:103B10000023482100930548013316F053F9044867
:103B200005B000BD00DD02000C590300202A002072
:103B3000F0D70200F0B5002705000E0087B004ACF6
:103B400004200392277022F0A7FB05AB0193124BD0
:103B5000311D681E0093039A012310F0CFFC0599D4
:103B60000E4DB9420EDA6826002331000093220080
:103B700001332800023616F025F9702EF4D10848DA
:103B800007B0F0BD3431490000970123220028001E
:103B900016F018F9F3E7C04608DD0200202A0020DD
:103BA000F0D702007FB503AB01930D4B04310093B6
:103BB0000138012310F0A2FC039826F09FFC41B2CB
:103BC00004A817F095FE04A817F0B8FEA023002162
:103BD000044ADB00D15021F0A4FE07B000BDC0466E
:103BE00084DD020000700040F8B5224E3568686838
:103BF00001281DD9AA68431ED15C0A2918D1002BBF
:103C000003DD591E545C0A2C13D11C00844202D2DD
:103C1000115D20290FD0002B0FDC1218023AE31A95
:103C200014789B083A3C614261415C18002C11D128
:103C3000F8BD0B00E3E70134E8E7611C8842ECD1F2
:103C4000591E0029E9D00139575C0A2FF0D0202FE6
:103C5000F7D0E2E7084F04223900280021F07DFF69
:103C6000042138000EF072FB3369013C04333361E8
:103C7000DCE7C04640010020C39B030010B52022B2
:103C8000002102481FF0A6FE10BDC046F42E002001
:103C9000084B10B54268186000209860187501380C
:103CA000D86008005A601A61996124F0B5FFFFF7E7
:103CB0009BFF10BD40010020F8B503780400002BE5
:103CC0001DD00F4E306E002804D0210020F006F9E0
:103CD000002814D0200020F045F9471C380022F0BD
:103CE000E8FA051E0BD03A0021001FF0E1FD054B5C
:103CF000054A1968043B99609A42FAD13566F8BDC5
:103D0000942E00200C2F0020F02E0020F0B5B74C90
:103D100002002068A568436885B00193002D00D09B
:103D2000FDE0531E042B11D8019B61688B4200D12A
:103D300095E0012A00D12AE1022A07D123696268AD
:103D4000934200D94DE10122524288E0032A00D17A
:103D500085E0042A00D12FE1052A00D107E1062AD7
:103D60000ED12369019A9342AD416D42002DEADDE7
:103D70002368290098682369C0180EF0E7FA1FE04D
:103D80000B2A21D1019B2269991A21F0A6FF2368F1
:103D9000019A5B689A4204D913002269981A0EF0BE
:103DA0000DFB2268236951689068C91AC0180EF08B
:103DB000CDFA236858682369C01A401B0EF0ECFA4C
:103DC00023695D192561BEE70E2A13D1E368002B34
:103DD000B9DB013BE3606268019B991A21F07DFF2A
:103DE000E368002B18DB1633814A9B00D3189968CF
:103DF00020680FE0102A16D1E368062BA3DC5D1CB7
:103E00007B4A17339B00D318996800299BD06368BD
:103E1000E560436021F026FF63682269D61A2268B4
:103E20005568ED1A0AE0152A0CD1236962686168A9
:103E30009A1A21F05AFF236962689E1A0127002E00
:103E40002FDCA4E70D2A0DD16A4824F0E5FE206896
:103E500021F0EDFE6368C018FFF72EFF002210006E
:103E600005B0F0BD01231B2A62D0082A01D07F2AA9
:103E700020D121696268914200D864E700238668F6
:103E8000B618F75C202F13D101339F188F42F8D357
:103E90000126032B00DD0336891B320021F025FFAC
:103EA000012730000EF078FA23699E1B266178E026
:103EB0000126F1E7092A28D1636822698068D11AAE
:103EC000C0184D4A03ABFCF7F9FD061E00D13AE7D6
:103ED0000027431C0BD1A06924F09EFE6368226971
:103EE000D11A22689068C0180EF030FA4FE72369A3
:103EF0002068F918039B01375A1C03921A7821F0A5
:103F0000DAFEBE42F3D1350041E71300203B5E2BC1
:103F100000D918E7216921F0D7FE012537E7012DE7
:103F200008D104234F2A03D002235B2A00D00023A8
:103F3000A36008E7022D20D11300303B092B03D8E2
:103F400003232275A360FEE60023A360412A00D16B
:103F500052E7422A00D139E7432A00D101E7442A37
:103F600000D1EBE6482A12D0462A00D0EBE6002723
:103F7000019B22693E009D1A0EE00023032D29D1EA
:103F80007E2A24D1227D312A01D0372A0DD1002565
:103F90002F00236962689E1A0023A3609E4200DD01
:103FA0007FE7002F00D1E1E6F1E61100FB2534396F
:103FB0002942DCD0332A0AD12169019B8B4206D9E0
:103FC000012221F092FE002501272E00E4E70025C2
:103FD0002F00FAE7042DABD1462AC8D0482AD6D004
:103FE000A6E7002501262F005BE7C0464001002020
:103FF000942E0020C2BB0300CC2D030070B501F04D
:104000002BFA0F4C0F4B0025A3620F4BE585636322
:1040100023000321A8330D481D60A564A5852563F1
:1040200007F0D6F90A4E0121300007F0D1F930002F
:10403000084A094923F0C0FC26606660E56570BD4A
:10404000942E0020C033030094410300CC2E0020A6
:10405000E02E0020FE1100000E12000070B50624B4
:10406000134EC3001C437368002205002100181D75
:1040700010F0A4FA021E18D1F06D002807D0043009
:10408000210010F09BFA002801D0406870BD00228A
:104090002100084810F092FA021E06D12A000649B3
:1040A000064812F0DFF812F0FBFE5068EEE7C0465B
:1040B000942E0020B8140300365A03007434030011
:1040C0000A4B10B5040018685B6898420AD00621B4
:1040D000E30019430430002210F070FA002801D0E8
:1040E000406810BD2000FFF7B9FFFAE7942E0020CA
:1040F000074B10B5D86D002801D1064810BD04301B
:104100000022054910F05AFA0028F6D04068F5E779
:10411000942E002080130300661100000A00C100E5
:10412000062010B5024B0143186823F045FC10BD72
:10413000942E0020062110B5034BC00001431868DF
:1041400023F044FC10BDC046942E00200A00C1009C
:10415000062010B5024B0143586823F02DFC10BD1A
:10416000942E0020062110B5034BC000014358686F
:1041700023F02CFC10BDC046942E002037B505005E
:104180000C00062806D108000EF0BAFF00280DD05A
:104190002C483EBDCB071BD54B10042816D818F071
:1041A000F7FA03154E4E0700002BF1D02648F0E732
:1041B000C0221206934204D18020C00521F0B1FB39
:1041C000E7E75B425B0001201843E2E7DB43F9E7E6
:1041D00002281AD11D4B0B40062B08D08B0714D197
:1041E0000A681B4B92699A420FD1486802E0C808DE
:1041F00021F0C2FE002806D101A9200009F090FCA0
:10420000019901F017F94300DDE720000EF052FD9F
:104210004369002B0DD10F4BAD002000ED5825F068
:1042200061FC2A0003000C490C4812F01BF812F044
:1042300037FE2100280098470028AAD1EBE70800A4
:10424000A7E7C04668D6020070D60200070080FFCC
:1042500005E90000C0010300C25A03005436030000
:10426000F7B50400019116001F000EF023FD05694B
:10427000002D09D1200025F035FC06490200064832
:1042800011F0F0FF12F00CFE3B003200019920000B
:10429000A847FEBDC959030054360300F8B50E0007
:1042A00015001C00930714D113681F4A934202D1D2
:1042B0006B682360F8BD1D4A934207D1002802D0E5
:1042C0000EF0F8FC06006B6848C4F3E7184A934206
:1042D00001D12560EEE75A68022117008F43AA2119
:1042E00089008F4202D013498A42F2D1002817D1A7
:1042F000114A93420BD0114A934208D0104A93427C
:1043000005D0104A934202D00F4A934208D10C20A4
:1043100021F0C2FF0D4B4660036085602060C9E755
:1043200025606060C6E7C0460C010300D0000300B2
:10433000840103007602000020CC02005CCC020065
:1043400098CC0200D4CC02004CCD020098DD0200D3
:10435000F8B500231360536006000D0014000EF042
:10436000A9FC124B07009D4205D1836A002B02D0A5
:104370000F4B48C4F8BDFB69002B04D02200290074
:1043800030009847F6E7B86B0028F3D00621ED001F
:10439000294304301A0010F011F90028EAD04268CD
:1043A000230039003000FFF779FFE3E74302000004
:1043B0004814030070B5160004000D00FFF7C8FF95
:1043C0003368002B15D10B4EA3070BD10A4B226883
:1043D0009A4207D12B0062680849300011F042FF71
:1043E00012F05EFD200025F07DFB2B000200044949
:1043F000F3E770BDA4310300840103004F5A0300AA
:10440000765A030073B504000D0016000EF052FC3E
:10441000C369002B09D004220196009229006A4644
:1044200020009847009B002B0AD0200025F05AFB63
:104430002B0002000349044811F014FF12F030FD74
:1044400073BDC046765A0300A431030073B504005F
:104450000D000EF02FFC164B426A06009A4225D042
:10446000002D03D1102021F017FF0500736A002BE7
:1044700011D16A460F492000FFF76AFF009B002B0D
:104480000FD1200025F02EFB0B4902000B4811F044
:10449000E9FE12F005FD2900200098470028E8D029
:1044A00076BD2900684611F0DDF9F9E72000F7E74D
:1044B000119B020036020000E55903005436030048
:1044C00037B504000EF0F6FB856A002D02D02000FF
:1044D000A8473EBD6A460B492000FFF739FF009B05
:1044E000002B05D06A462900280021F02EFCF0E7B9
:1044F000200025F0F7FA04490200044811F0B2FE4A
:1045000012F0CEFC43020000175A03005436030099
:1045100030B505008FB002F09BFA28000EF0CAFB00
:10452000846A002C05D02800A047040020000FB0AA
:1045300030BD6A4613492800FFF70AFF009B002B95
:1045400016D002A812F086FC002807D16A460100A6
:1045500021F0FBFB040012F09BFCE7E7039B0A49F8
:10456000186803F063FD0028E0D1039812F098FC6E
:10457000280025F0B7FA05490200054811F072FE3F
:10458000F4E7C04643020000A0350300175A0300B9
:1045900054360300F0B513688FB00793002800D09D
:1045A00073E00400131D0393FF220B00090A13405C
:1045B000114001934B000693069A019B05919B18AD
:1045C000039A9B00D2580492039AD3185F68381E4E
:1045D00009D00020BB0706D1954B3A689A4202D118
:1045E000380023F0E6F9059B1E18049B002B51D1DF
:1045F000019B76000133F3189800009321F04CFEE4
:1046000026000500002C01D001260460019BB000AB
:104610009A00281803991FF04BF9019B9B190293EC
:10462000029B9800059B2818DA00019B9900039BC8
:1046300059181FF03DF9029A069B94466344019372
:10464000002F12D003243C4000D0ABE0784B3A68F6
:104650009A4200D0A6E0380023F0C3F903230600F5
:10466000009373689C4200D27FE0019B029A0299FA
:104670009A1A52082B000798FFF7F2FD0400280051
:1046800021F039FE20000FB0F0BD13000833039372
:10469000546889E7049B9B0730D1049B654A1B68DB
:1046A000934202D0644A934228D10AAA09A90498E5
:1046B0000EF08AFC099B019A01339B1876009B1926
:1046C0009800009321F0E8FD26000500002C01D0A1
:1046D00001260460019BB0009A00039928181FF07E
:1046E000E7F8019B0A999819099B80009A002818FD
:1046F0001FF0DEF8019B099A9B188FE7019B76005B
:10470000181D33189800009321F0C6FD26000500FF
:10471000002C01D001260460019BB0009A0003998F
:1047200028181FF0C5F8019B0AA99B190498029349
:10473000FFF78CFE029B04909C000498FFF7E8FEB4
:10474000061E00D16CE7009B029A934207D8D9005D
:10475000280021F0BFFD0500009B5B000093029B39
:104760002E51013302930434E7E7B368E700D859C8
:10477000002815D0042813D0009B184205D12F4BD8
:1047800002689A4201D123F08BFE019B019A9B00A3
:10479000E85002320192B268EB18D7197A685A6071
:1047A00001345EE70AAA26493800FFF703FE00211C
:1047B0000AAA080021F0C9FA0021FFF747FE019B71
:1047C00003909E000398FFF7A3FE041E00D14CE760
:1047D000019B009A01339A420BD853000093042B9B
:1047E00001D204230093009B2800990021F072FD60
:1047F000050003231C4207D1104B22689A4203D1C3
:10480000200023F04DFE04000AAA0E493800FFF7ED
:10481000D1FD0AAA002101200C9421F096FA019BF7
:10482000AC5102330193AB1958600836CAE7C04651
:10483000240703009C410300E4F00200502403001D
:10484000EE0200003602000070B50C0086B01500C4
:1048500083071AD103681F4A934202D01E4A93422B
:1048600013D102AA01A90EF0AFFB019B9C422AD8EA
:1048700019D3029BA4001C19043B043C9C4201D1A7
:1048800006B070BD226804C5F7E702A9FFF7DEFD98
:10489000002306000193019B3000A34206D3FFF7DB
:1048A00037FE0028ECD022000C490EE0FFF730FE66
:1048B000002808D0019A0A49A31A5B189B0001320C
:1048C00058510192E7E7019A0649074811F0CAFCDE
:1048D00012F0E6FA9C410300E4F00200035B0300DF
:1048E000FFFFFF3FE05A0300CC360300F7B5FF247B
:1048F0000E00090A264015000C40830731D10368D9
:10490000384A934202D0384A93422AD101AA6946D2
:104910000EF05AFB009B32199A425BD89A009446DB
:10492000002001998200A0420FD19B1BB4000919FD
:10493000181AAD1821F034FC019B28601C190023C3
:1049400001360133B34207D1F7BD6746BF1A043FB2
:10495000CF590130AF50E5E79A0051426158A95054
:10496000EFE70021FFF772FD002307000093009B93
:104970009E4217D80021080021F012FC06003800E2
:10498000FFF7C6FD011E1AD1B1688C4222D8A300E0
:10499000EB181E6088009D4215D1091B300021F0E4
:1049A0001BFCD1E73800FFF7B3FD002812D0009AB6
:1049B000B31A1B199B00013258510092D7E73000FF
:1049C00001F066FDDBE7F268C71AAA18D259043B6A
:1049D0001A60E0E7009A0549054811F043FC12F01F
:1049E0005FFAC0469C410300E4F00200E05A030075
:1049F000CC360300F0B591B01D0006000C00170086
:104A00000EF058F9324B984207D12B003A002100A2
:104A10003000FCF7A3FF11B0F0BD826A2D4B002AD5
:104A200008D09C422FD13000904728600028F2D057
:104A30000120F0E79C4226D101AA27493000FFF768
:104A400087FC019B002B0DD1D72101AA4900300022
:104A5000FFF7B0FC039401AA0021012021F075F9B1
:104A60002860E5E704A812F0F5F9002807D101AAAB
:104A7000010021F06AF9286012F00AFAD8E7059BD4
:104A80002B600220C7E7002CDED138000EF012F9AF
:104A9000124903F0CBFA01AA00280ED010493000C9
:104AA000FFF756FC019B002B10D001AA210020002B
:104AB00021F04BF928602000ADE70A493000FFF7EC
:104AC00047FC019B002B01D00397C4E72F60D8E778
:104AD00060D30200F0D702004302000094320300CA
:104AE000750200006A03000010B5040011F000FC1C
:104AF000002808D0002320001A001900FFF7B0FB9F
:104B00000400200010BD200026F0EAF80028F8D1AB
:104B10000249034826F0E0F8F2E7C046985A03003D
:104B2000543603007FB5C30006201843054B01909F
:104B30000491052001A9029303930592FEF7F0F971
:104B400007B000BDF0D702001423F0B58DB000AF60
:104B5000FA1805000C00FFF7FBFBBB69002B06D021
:104B600022002C492C4811F07DFB12F099F978694C
:104B700000284BD1280020F031FF0028F0D014236A
:104B80002800FA182549FFF7E3FB10237869F91884
:104B900009F0E4FBB860200021F0F3F96A463E69B1
:104BA000B968731C7B60C318FB600E33DB08DB0045
:104BB000D31A9D46320068461EF07AFE6D462E23BB
:104BC000AB557B682000EB18BB6021F0DFF90600D5
:104BD000200021F0D6F931000200B8681EF068FE0E
:104BE000F968684600F076FCC300062018430C4BB9
:104BF00010223B627B620B4BBA18BB620123FB6243
:104C00000B33F861D1180520FEF78AF9BD460DB0C7
:104C1000F0BDC046015A0300D0320300410200003B
:104C2000F0D7020070D60200F0B5174C0F00616893
:104C300095B003912168060008A804916260236082
:104C400012F008F9051E06D0039B09986360049BC7
:104C5000236012F025F933683A00310005A801936A
:104C600002F0FCF82B002A00019905A805F0CEFF00
:104C700021F05CF8050012F00BF92800039B63603B
:104C8000049B236015B0F0BD942E002010B50400E5
:104C900000F0E2FF031E054802D0054921F091F81B
:104CA0002200044911F0DEFA12F0FAF83834030059
:104CB0004D59030076590300010010B5014821F059
:104CC00080F8C046CC360300F0B589B003900F00E1
:104CD0001600202803D191420FD0B048ABE0039BCF
:104CE0001B2B01D01E2B0DD1310038000EF078F8AF
:104CF000039B002803D01B2BEFD1A9489BE01B2B63
:104D0000FBD1EAE7039B212B28D1100011F0F0FA28
:104D1000002806D03100380025F0E8FF0028ECD14B
:104D2000DBE70324344000D05CE19E4B32689A42BA
:104D300000D057E173689C42CFD2A300F3189D685E
:104D4000280011F0D5FA002800D14AE129003800E6
:104D500025F0CCFF0028D0D10134EBE70123194224
:104D600000D1FBE013404D100293002B00D1EDE089
:104D7000039B54101D2B00D934E1180017F01CFDC3
:104D80001E0028002A002D0045004C004F00510055
:104D90005D0066007C008400B9001E0028002A0027
:104DA0002D0045004C004F0051005D0066007C0066
:104DB0008400D200D6003201DA00DE0025430295DD
:104DC000029B5C00634000D5BCE00120204332E040
:104DD0006540F4E72C400294F2E7002C02DA7248B6
:104DE000FFF76AFF1F2C08DC704B23419D4204DC57
:104DF000C0231B0623419D4205DAE917280020F055
:104E000081FD07004CE0A540D9E7002CE7DB1F2C13
:104E100000DD1F242541D2E72B190293D0E72B1B7D
:104E2000FBE721002800FEF74DFC0028E5D101201A
:104E300065436D00284309B0F0BD002C00D1E4E0CB
:104E40002100280020F060FE0290B9E7002C00D17C
:104E5000DBE0280018F016FE051C200018F012FEFA
:104E6000011C281C18F02AF90323050002209D4389
:104E70004F4B2843C018DEE7002C00D1C5E02100CD
:104E8000280020F031FEDFE72F00002C2EDA28006A
:104E900018F0F8FD032302279843454B0743FF18FA
:104EA00038000DF007FF8369002B00D19AE0320033
:104EB0003900039898470028BDD193E001231C4294
:104EC00008D039000298FEF7FDFB002895D1029B1F
:104ED0007B430293012C00D172E739003800641043
:104EE000FEF7F0FB002800D087E77F43002CE5D1D8
:104EF00066E7002C00D188E00021022013F052FA6E
:104F000021000600280020F0FFFD01274000384363
:104F1000B0602100280020F0E7FDB8400743F760AB
:104F2000300088E7A54200DAE7E6D6E6A54200DDD4
:104F3000E3E6D2E6A54200DCDFE6CEE6A54200DBF2
:104F4000DBE6CAE6029820F0ECFC74E7032313408A
:104F5000022B03D1174B1340062B5AD1039B1F2B57
:104F60009ED130000DF0A6FE83690400002B0CD109
:104F7000636A002B24D1300024F0B4FD0E490200F6
:104F80000E4811F06FF911F08BFF3A0031000398D1
:104F90009847002800D04EE7EAE7C04668D60200EE
:104FA00070D602009C41030039580300FFFFFF3F09
:104FB00000008080070080FFE5590300543603009D
:104FC00004A93000FFF742FA04002000FFF7A0FA1E
:104FD000002800D181E639000DF002FF0028F4D04E
:104FE0008BE62E00039B38009A000E4BD45824F019
:104FF00079FD0500300024F075FD2B0000902200A3
:1050000009490A4811F02EF9BDE70949094820F07D
:10501000D8FE280018F036FD3200011C039811F06C
:10502000FBFF48E738000300A4590300543603008F
:105030002858030008370300010010B5014820F08C
:10504000C0FEC04654360300F8B504000D0017003A
:105050001E00002908D018680DF02CFE63689842E5
:1050600002D00548FFF7E8FF33003A002900A068A6
:10507000FFF7F6F8F8BDC04635590300012140009E
:10508000014310B5024825F020FE11F009FFC0468B
:10509000EC340300010010B5014820F092FEC04638
:1050A000B0340300F0B585B005001600080003AB6E
:1050B00002AA01A925F035FF0398364FB84209D05E
:1050C000032807D00DF0DEFEB060002804D132487E
:1050D000FFF7F2FD0123B3600198B84229D1002403
:1050E000B368A34200DC6C1E0298B84225D1B368B5
:1050F000002B47DD2800002C2ADA641901D5B3689B
:10510000DC17002834DA401901D501204042B36889
:10511000002B00DA0130B368002B2DDDA04200DA4D
:105120002000013B706058425841C0B2346005B065
:10513000F0BD0DF0A7FE0400D6E70DF0A3FEB368A6
:10514000002801DBDA0F8018002CD6DB002B03DDF2
:10515000A542D6D22C00D4E7002BD2D0A54200D84D
:105160006C1E002804DA4019D4D501204042D1E752
:105170008542D0D22800CEE7002BD2D0A042D0DD8D
:10518000601CCEE7002C01DA0020B6E70020834245
:10519000E4D1C0E7F0D702002B5B0300F0B50600B6
:1051A00085B017001B2805D10A9A974209D0002024
:1051B00005B0F0BD19281AD01C281AD00A9A0A97EF
:1051C00017001A000B0011000A9A0192BA4200D986
:1051D00001971D000C0000230093009B019A93424D
:1051E00009D10A9BBB4220D0E1D30120E0E71A2677
:1051F000EAE71D26E8E70295039401CD02CC0DF005
:10520000EFFD002802D0009B0133E5E71B2ECED036
:10521000039B30001A68029B1968FFF755FD044B89
:10522000C01A43425841C0B2C2E71A2EDDD1BEE7D0
:1052300070D60200F0B51E0085B0039018680D000E
:1052400017000DF037FD7368019002930024022FC0
:105250000ED90123B26829000DF0ECFE0400032FE3
:1052600006D029000123F26801980DF0E3FE050045
:10527000A54202D80848FFF71FFD039AA300029930
:10528000D0580DF0ADFD002801D10134F0E7012028
:105290006400204305B0F0BD455B0300F0B50E008F
:1052A000002485B011000700039322000D4B30004D
:1052B00000940FF0F3F8B01C800020F0EDFF050023
:1052C00007604660B44202D1280005B0F0BD039BE0
:1052D000A700D8590021FFF7B9F8EF19B8600134D9
:1052E000F0E7C046FFFF0000F0B5802787B02C4DE7
:1052F00002907F422C78002C1CD063B2002B10DA75
:105300006E1C6D787C40E4B2002D13D0013CE4B2F9
:10531000FF2C0DD004AB981D012105700DF024F871
:10532000F4E704ABD81D012104702E000DF01CF829
:10533000751CDFE70627013F002F2ED0029823F0CF
:1053400078FC0124BC42F6DA0025052D22D0154E4A
:1053500022002900300011F039FC6B4601901B79C6
:10536000002B15D0631E1A0029003000039311F0A2
:105370002DFC031E0CD122002900300011F0F2FB9D
:10538000FF22019B290013403000621E11F0EAFB4E
:105390000135DAE70134E4B2D4E707B0F0BDC04626
:1053A0005C5B03001C00002010B5C820FFF79CFFC9
:1053B000004810BDF0D70200074B5B69002B01D1FC
:1053C000180006E05A68824204D8801A043080002F
:1053D000C05870471B68F1E7942E002070B5144D3B
:1053E00004006B699868DB68834215D30230C00003
:1053F00020F05FFF6B69002803D198684000FFF739
:1054000045FC5A68D96803609B6852185B0083604A
:1054100000234260C36068616A69D3685068591CA0
:1054200004339B000138D16040189C5070BDC046C9
:10543000942E0020074B4118884204D3D8B200288C
:1054400000D1013070475A01D3180278013053401F
:10545000F2E7C04605150000034B044A5A610022DA
:105460009C331A607047C046942E002040DE020034
:10547000F0B585B001900E00FFF7DCFF144B0290F1
:105480005C69002C01D120001EE0270010373D0090
:10549000E3689B00FB180393039B9D4201D32468A0
:1054A000EFE72868029A03789A420FD143789E4228
:1054B0000CD10230320001991EF0D4F9002805D138
:1054C000ED1B6068AD10281805B0F0BD0435E3E7AA
:1054D000942E0020F0B585B003900191FFF7C8FF2E
:1054E000002862D1324D019B2F009C37DC1C3B68A9
:1054F000002B18D02E002F4AA03612683168029275
:10550000A2188A420FD902006118180020F0EFFE9D
:105510000290002822D1274B02001968386820F039
:10552000E6FE029B3B602B009C331B68002B20D1C6
:105530002600802C00D2802630002F0020F0B9FEFB
:105540009C37386000280DD1200020F0B2FE2600E4
:105550003860002806D12000FFF798FB33681B193C
:105560003360E0E72B00A0331E602B000022A43341
:105570001A602B00A4331A689C352D68A418019971
:105580000398AD181C60FFF755FF6B461B79287018
:105590006B70019AA81C03991EF08AF90022019BE6
:1055A0002800EB189A70FFF719FF05B0F0BDC04650
:1055B000942E0020382F0020F7B51D001600002380
:1055C000070003600B6033602B60174B00915C6930
:1055D000002C02D0154B9C4204D133682A68D318A2
:1055E0002B60F7BD3B6801333B60E268009B94464B
:1055F0001B68009A0193634413602200E368103231
:105600009B00D3189A4207D3200000F025FD2B6899
:10561000246818182860DBE702CA3068497803302C
:1056200009183160EEE7C046942E002040DE0200EB
:105630000C4B70B55C69002C02D00B4B9C4200D126
:1056400070BD2600E36810369D007519AE4201D387
:105650002468F0E704CE05490232054825F0DDFA5A
:10566000F4E7C046942E002040DE0200005C0300F8
:10567000CC2D0300F0B508C98DB00593244B06ACC2
:1056800001380093019406230EF038FFE068214EA4
:10569000214FB04202D00EF04DFD07001F4B206994
:1056A0000393B04202D00EF045FD03901C4B60699D
:1056B0000493B04202D00EF03DFD0490194D380025
:1056C000290001F09DFA2900039801F099FA2900B8
:1056D000049801F095FA01200523049A0399059D89
:1056E0005279497904354042FB5652B2009049B292
:1056F000280016F07BFD0023A2686168280016F0E0
:10570000FBFC2800069916F02FFD30000DB0F0BD0F
:10571000D8EC0200F0D702005C2703006C270300DE
:105720006427030008F30200F0B50F6887B07B68B8
:1057300005000C00002B02D11248FFF7BDFA4868A3
:105740000DF0A0FB010002A820F034FA0026032D82
:1057500003D1A0680DF096FB06000024039B019383
:105760009C4209D2049B381D31001D19019316F08B
:1057700025FE01342870F1E702A9034808F060F91A
:1057800007B0F0BDD77F0300A810030070B5050077
:105790006B6886B00800002B02D10B48FFF78CFA2B
:1057A000012203A90DF028FD039E3400049AA31BD7
:1057B00001929A4205D92178281D16F0FFFD013487
:1057C000F4E7024806B070BDD77F0300F0D70200AF
:1057D000F0B505006B6889B008001400002B02D1F9
:1057E0000E48FFF769FA012202A90DF005FD20001D
:1057F0000024022205A9029F0DF0FEFC059E039BDA
:1058000001939C4206D2395D281D16F0D7FD305514
:105810000134F4E7024809B0F0BDC046D77F030069
:10582000F0D702001FB503AB01930E4B04310138D2
:10583000009301230EF062FE039824F05FFE40B255
:105840000300A0220421C133FF33D2059B009950ED
:10585000A223DB00D358C3400348DB0700D403482E
:1058600005B000BD90ED020070D6020068D60200BF
:10587000F0B5124B87B003AD40C9013800930195D4
:1058800003230EF03BFE68680D4F1E24B84202D081
:1058900024F034FE44B2A8680023B84202D024F0B9
:1058A0002DFE43B2706803994371047115F0E4FE54
:1058B000706816F04DFA380007B0F0BD10EE020027
:1058C000F0D7020030B5124B8BB003AC20C90138C1
:1058D0000093019403230EF011FE616806A820F0E6
:1058E00069F9039B089A5900237A00936868079B1B
:1058F00014F058FA021E05D00649074810F0B2FC11
:1059000011F0CEFA06A9054808F09AF80BB030BDA0
:1059100028EE0200EB7F0300EC340300A810030024
:1059200030B5114B89B002AC20C901380093019405
:1059300003230EF0E3FD012205A960680DF05CFC75
:10594000029B059A5900237A00936868069B14F01D
:1059500039FA021E05D00549054810F083FC11F004
:105960009FFA044809B030BD40EE0200FD7F0300FD
:10597000EC340300F0D702000021F8B547680800B6
:1059800020F00EFC08250600B1223B68D2009D5095
:1059900080220020920098501A000121FC32114C04
:1059A0009960906059619168002913D1002C0FD142
:1059B000380016F0CDF9002C05D001216B001943F9
:1059C000300000F065FD0135782DDDD13000F8BDE7
:1059D000013CE8E7002CEBD0034A9C5863425C4151
:1059E000E4B2E5E710270000C40400001FB503ABD4
:1059F00001930E4B04310138009301230EF07EFD1C
:105A0000039824F07BFD40B20300A0220C21C13397
:105A1000FF33D2059B009950A223DB00D358C3402B
:105A20000348DB0700D5034805B000BDE4EE0200E3
:105A300070D6020068D60200F0B50D000400160012
:105A400087B0042020F028FC2A4B291D03AD32002A
:105A5000601E0195009303230EF050FD039824F07F
:105A60004DFD44B2686824F049FD2300A0210322C3
:105A7000C133FF339B00C90547B2AD685A503B00A4
:105A8000C133FF339B005A502B006433C82B02D91B
:105A90001948FFF711F90126002D17DA200011F03F
:105AA0003FFFA023A640154ADB059E50684219F02F
:105AB0008DFD134A134B18F0BFFF19F053FD010081
:105AC000380011F0AFFE104807B0F0BD380011F0FB
:105AD00027FFA023BE40094ADB059E50280019F08D
