:020000040000FA
:1000000000400020A1B70100DDB70100DFB701000B
:1000100000000000000000000000000000000000E0
:10002000000000000000000000000000E1B7010037
:100030000000000000000000E3B70100E5B7010088
:10004000E7B7010015600100E9BE0100E7B7010054
:10005000E7B7010000000000A1B80100E7B7010008
:100060000104000055C401005DBD0100E7B70100B7
:10007000E7B70100E7B70100E7B70100E7B7010004
:10008000E7B70100E7B70100E7B70100E7B70100F4
:10009000E7B7010051B401001DB501003D050000A6
:1000A0004D050000E7B7010000000000000000005F
:1000B0000000000000000000000000000000000040
:1000C000054B0648033310B51B1A062B03D9044B06
:1000D000002B00D0984710BD180100201801002007
:1000E000000000000648074910B5091A8910CB0F17
:1000F0005918491003D0044B002B00D0984710BD6D
:1001000018010020180100200000000010B5074C65
:100110002378002B09D1FFF7D3FF054B002B02D02A
:10012000044800E000BF0123237010BD200100201F
:1001300000000000ACE80300094B10B5002B03D011
:100140000849094800E000BF08480368002B02D1B5
:10015000FFF7C8FF10BD064B002BF9D09847F7E713
:100160000000000024010020ACE80300180100207A
:1001700000000000144B002B00D1124B9D46402282
:1001800092029A1A924600218B460F461148124A53
:10019000121A23F09BFB0D4B002B00D098470C4B01
:1001A000002B00D098470020002104000D000B48D0
:1001B00023F098F823F052FA200029002CF045FA99
:1001C00023F0AEF80000080000400020000000000E
:1001D0000000000018010020F82F002099350200CF
:1001E00070B504000EF088FD00230C4AD9008D582C
:1001F000AC4207D152185168094828F069FA012326
:10020000180070BD0133612BF0D1064A944202D030
:1002100000239042F4D10449EEE7C04620CB02000F
:10022000B00503001C2E03004252030070B5050008
:100230000C200C0026F0AFF9024B4560036084608F
:1002400070BDC04628CE020070B50500140024F031
:1002500020FF024B2560636070BDC0465B5002000A
:1002600010B50C007F2906D8012124F052FF002888
:1002700000D0047010BD224B994210D8022124F006
:1002800048FF0028F6D04023A2095B4213430370C5
:100290003F232340802464421C434470EAE7194B07
:1002A000994214D8032124F034FF0028E2D02023FF
:1002B000220B5B4213433F2180220370A309524269
:1002C0000B400C401343224343708270D2E7042159
:1002D00024F01FFF0028CDD01023A20C5B42134353
:1002E0003F2103708023220B5B420A401A43427075
:1002F000A2090A400C401A431C438270C470B9E73B
:10030000FF070000FFFF000007B5034B00906846A1
:1003100001930DF0EDFA07BD5B5002008022044B03
:1003200052001A600123034A1360034A13607047A6
:1003300000E100E00C8C0040008000408022054B72
:100340005200DA67044BFF3A5A600022034B1A60EE
:100350007047C04604E100E0008000400C8C004083
:1003600070B5002501261E4B1E4C1D601E4B1860EB
:100370001E4BE650C046FFF7E1FF1D4A1D4BE660ED
:10038000E25002221C4BFF20E5500433E250921849
:100390000833E2508022C12312039B00E250053B48
:1003A000FF3BE550C2244022144BA400195981435D
:1003B0000A4380211A510C341A5909061202120AF2
:1003C0000A431A51C0220434195981430A431A516D
:1003D000802212041A60802252041A6070BDC04646
:1003E000902E0020008000404C010020FC0F0000F7
:1003F000701700004C0500000405000000E100E05B
:1004000070B51F4C1F4D636C002B0AD00023636432
:100410001D4B1B689847A823DB00EA580001801891
:10042000E850A36C002B09D00023A364164B5B6833
:100430009847164B0001EA588018E850E36C002BEF
:100440000AD00023E364104B9B689847A923DB0084
:10045000EA5800018018E850236D002B0ED00023CD
:100460000B4A2365AB580B495B18AB500A4A13681B
:10047000063313608022094B12045A6070BDC046D7
:10048000FC8000400080004008000020440500007F
:100490004C05000070170000902E0020FCE100E0E9
:1004A000F7B50191032823D8134B8000C758C22306
:1004B000124D9B00EF50012344192364A8230F2100
:1004C0000F4EDB009C46E358AE59921BD218D3174F
:1004D0000B409A1801990B4B1211C150C1239B007C
:1004E000EF5063460020013212019619E650FEBD1E
:1004F00001204042FBE7C0467CD70200008000405C
:100500004C0500000800002003280BD8074B800092
:10051000C158C223064A9B00D150064A064BC2501E
:100520000020704701204042FBE7C0467CD7020014
:1005300000800040915202000800002010B5024BDC
:100540001B68984710BDC0464C01002010B5002420
:10055000054AA358002B02D00021A150984704342B
:10056000102CF5D110BDC0463C010020074A89007F
:100570008B58002B06D1885080211800044A49046A
:100580005160704701204042FBE7C0463C0100201B
:10059000FCE100E0030010B50548002B03D127F073
:1005A000AFFD0DF055FC096827F0B0FDF9E7C04636
:1005B000CC00030010B5034809680EF0D9FB0248CF
:1005C00010BDC046B0050300B80D030010B5437957
:1005D000012B03D1C06A25F053FF10BD0B00C26A86
:1005E0000249006B25F076FFF7E7C046E0EE020017
:1005F00010B54379012B03D1C06A25F052FF10BD1D
:100600000B00C26A0249006B25F064FFF7E7C046A1
:10061000F0EE020010B54379012B03D1C06A25F03A
:1006200040FF10BD0B00C26A0249006B25F052FF6B
:10063000F7E7C046D0EE02007FB50B7804000D004E
:100640004E1C002B0AD0032B0BD103A9280027F046
:100650009EFA03990600206B26F093FC300004B04C
:1006600070BD012B07D18E1C49780429F6D0006B90
:1006700007F090FAF2E7042B0BD14B788978006BE6
:100680000902194326F0C5FC280027F0BBFA060032
:10069000E4E7052B15D14379042B04D02649006BE0
:1006A00026F0C3FCF0E788784B780002184303A9D2
:1006B00025F0DEFE0399246B09F0BCFD010020004B
:1006C000EEE71A000A3A0F2A09D803A9280024F0F5
:1006D000EBFD039906002000FFF778FFBEE7082B2B
:1006E0000CD103A9280027F048FA039B226A9B003B
:1006F00006009958206B26F098FCAFE703AB02AADE
:1007000001A9280027F0AFFA05000299206B07F035
:10071000F5F9019B094A9B009B582900039A200088
:100720009847A368002B04D0E368002B01D1029BFB
:10073000E360039E92E7C046B80D03005CD8020058
:10074000F7B506000192FFF777FF04270500019B2C
:100750009D4200D1F7BDA91C30006C78FFF76CFFFB
:100760002F3CE4B205003900082C01D8024B195D7A
:10077000306B26F0CDFDEAE7BF78030010B5024BE1
:10078000672224F0B8FF10BDBB5C020010B5024B1D
:10079000972224F0B0FF10BD1D180000F7B50F0020
:1007A00011001A00C38A8579868A01930023040008
:1007B00083718382C382104B24F09DFFA368002BBA
:1007C00018D1E18A002908D0A38A002B05D1206B1B
:1007D00026F0C0FD206B26F03DFCA38AE28A39009A
:1007E000200024F0B7FD6B1E9D416B469B88A571D0
:1007F000A682E382F7BDC04639140000836870B555
:1008000004000D00002B09D11100054827F085FCDC
:10081000A060200029000C3024F0E4FF70BDC04629
:1008200090000300F0B591B06B46040005920D00F6
:100830001B7DA14A4371E16200212B780161072BE6
:100840003AD1059B012B06D90200836B08321B6845
:100850000599406B9847AB681800089327F0D2F9C8
:1008600063790890032B0FD10D9040210DA827F03C
:10087000E2F9A36B02009B680D99606B9847A3682F
:10088000E882002B00D0D3E0089827F0BBF908904D
:100890000378002B4ED00A3B0F2B46D80DA924F02D
:1008A00003FD0D9B854A934244D00AD80125844A12
:1008B00093420DD0834A08992000FFF79FFF11B0A3
:1008C000F0BD814A934202D0804A0325F0E700251B
:1008D000089827F097F91821089008A827F0ABF995
:1008E000089B07900693069B079A934224D163794D
:1008F000012B15D9A36B29005B68606B984763795E
:10090000042B0DD10023E06A03950293C18A626B28
:100910000191009393680521D26800690BF0ACF84F
:10092000A368002B00D083E0C9E70100684A2000DB
:10093000FFF764FF0225CBE7069B08931B78222B69
:1009400004D1069827F05EF90690CCE71F2B01D062
:10095000604AB0E709A9069827F05EF90378060017
:10096000432BF5D127F04EF9099B9842F0D109A904
:10097000300027F051F9037807000A3B0F2BE7D826
:1009800027F040F9099B06009842E1D00378472BF5
:10099000DED127F037F9099B9842D9D10AA938004E
:1009A00024F082FC300027F032F99F210B900BA835
:1009B00027F041F901000B9827F018F9BD220A9B96
:1009C0000600920093421BD1012804D10B980378B2
:1009D0000A3B0F2B01D9404A6DE72669731C23613E
:1009E000059B012B21D90DA924F05EFCA36B0D9A68
:1009F000DB683100606B9847002816D1374A5AE708
:100A0000374A93421AD1012803D10B980378032B5C
:100A100001D0344A4FE7059B012B06D9666B27F0BE
:100A2000C5F80100300025F0D3FEA368002B88D064
:100A3000200008990C3024F0D5FE40E72A4A934262
:100A400022D1012803D90B980378032B01D0274A20
:100A500031E7059B012BE8D90CA927F098F801276D
:100A60000B900B980378032B01D0214A23E70DA9A3
:100A700027F08DF801370B900D9A0C99606B25F0DB
:100A8000AEFEBE42EDD1D0E7059B012BCDD90328A8
:100A900000D95DE70B9B18000D9327F0B3F80E907B
:100AA00027F0B0F8A36B0F901F6932000DAB0A99C5
:100AB000606BB847B9E7C046FC7A0300D302000078
:100AC0006A020000207B0300250300007D03000074
:100AD0002D7B0300557B0300787B0300947B030090
:100AE0005A020000A47B030087020000C07B0300C1
:100AF000E57B030010B5024AFFF780FE10BDC0463B
:100B0000077C0300F0B587B000920A000493531EDF
:100B10009A410D00060004990098059227F066F8A6
:100B20002C1E019009D02B7800243A2B05D102000D
:100B30002100306B26F07FFC2C00019B009F013BC5
:100B40000393059B0293049B9F421ED1002C39D135
:100B5000019A059B944663441900306B26F05FFCB4
:100B6000002D3CD1009B9F422AD0009B9C4239D152
:100B7000200027F04CF800220100300000F038F887
:100B8000009827F03FF80090ECE73B783A2B07D12C
:100B9000002C10D1039A0299306B26F04CFC3C00DB
:100BA000380027F02FF8029B070001330293039BC4
:100BB000013B0393C7E70D4A39003000FFF71EFEE3
:100BC00007B0F0BD002DCDD0AC4208D1200027F0F9
:100BD0001EF800220100300000F00AF8C2E70022EF
:100BE0002900F8E700220099C7E7C04632790300E0
:100BF000F0B50B7817001A000A3A85B004000D0012
:100C00000F2A10D803A9280024F04EFB03992000D6
:100C1000002F01D0022F03D1FFF7EAFC05B0F0BD91
:100C2000FFF7D4FCFAE76A4A192B00D8CBE01A3B4D
:100C30002A2B00D182E005DC062B08D0292B11D00D
:100C4000644AC0E02B2B00D194E0972BF8D1002F01
:100C500000D0B7E003A9280026F0DEFF0200039BC6
:100C600000219BE002A9280026F0D6FF0600022FF3
:100C700003D001002000FFF7DFFC300026F0C2FFA8
:100C80000299060024F007FB0028D9D13378A22B63
:100C900013D1300003A926F0BFFF0600300026F074
:100CA000B1FF039A0190904207D2022F03D0310086
:100CB0002000FFF7C1FC019EF0E73378482B21D1DB
:100CC000022F06D1206B26F050FA206B26F00CFA8A
:100CD0000EE0300026F09BFF01002000FFF7ACFC87
:100CE000206B012FF2D126F014FA206B26F0E4F9E4
:100CF000300026F087FF029924F0CDFA002800D0BA
:100D00008CE79DE7492B9BD1300026F080FF03A99B
:100D100024F0CAFA012F07D1206B26F0F0F90399CD
:100D2000206B26F0A1F9E3E7022F02D1206B26F019
:100D300005FA0399206B26F0CAF9D9E703A9280020
:100D400026F06AFF0399060024F0A5FA002800D0D7
:100D500076E7002F36D1350003A9280026F05CFF86
:100D6000060026F04FFF0378A92B1BD100231A00A1
:100D7000310013E0002F25D103A9280026F04CFFF5
:100D80000399050024F087FA021E02D03B003A00C6
:100D900066E72B78A62BDFD0030029002000FFF7A1
:100DA000B1FE3BE7AA2B05D103A926F035FF039B33
:100DB0000200DDE7C12B00D142E726F023FF32001D
:100DC00003004DE7044A29002000FFF717FD25E73F
:100DD000D3780300EB78030006790300F0B5170021
:100DE00085B0040008000D0026F00CFF3900060055
:100DF00024F051FA019000281ED02379002B16D040
:100E0000E36A1E78002E12D137492000FFF7DEFB7F
:100E100029002000FFF710FC330032000121206B75
:100E200026F048FB206B26F07EF905B0F0BD2900C6
:100E30002000FFF701FCF5E733786D2B1DD1290069
:100E400001222000FFF7D4FE300026F0E0FE4378B8
:100E5000811C4E3BDBB218260A2B01D8234AD65CF4
:100E60002000FFF7E9FB3100206B26F051FA022247
:100E700029002000FFF7BCFED7E76E2B2ED13000F3
:100E800003A926F0C9FE06000700039B9F421FD15D
:100E900001992000FFF7D0FB206B26F030F90022EB
:100EA00029002000FFF7A4FE019BB342BDD0300013
:100EB00026F0A8FE019B0500834202D0206B26F09D
:100EC0001EF9310000222000FFF792FE2E00EBE712
:100ED000380026F097FE01970700D6E73100200082
:100EE000FFF7AAFB019AC3E749020000C878030094
:100EF000F0B50B788FB00A3B0400019103920F2BE1
:100F000000D90DE1080026F07DFE0378432B00D0C8
:100F100006E1019826F076FE0BA926F07DFE037807
:100F200042780A3B1B021343CE229200934200D028
:100F3000F6E026F067FE03780500472B00D0EFE0CF
:100F400026F0A5FE002800D0EAE0280026F05AFE90
:100F50000B9B984200D0E3E0280026F058FE9F212A
:100F60000C900CA826F067FE0C9B0700029301234F
:100F700002980D9326F046FE05000C90874200D1A2
:100F8000C3E026F03FFE0C9087420ED00378032B7F
:100F900000D0C5E00DA926F0FAFD0D9B0C90002BAA
:100FA00000D1BDE0874200D0BAE0029B1B784533F8
:100FB000DBB2022B00D8B3E02B784533DBB2022B37
:100FC00000D8ADE00B9B1800049326F01BFE039B9A
:100FD0000600984200D100260D9B27690593238BBC
:100FE00027830693638B0793E38B08937B1C039300
:100FF0006B469B896383A38BE3833B1D23612B7823
:10100000D91E03930B00591E8B410993039B032B9D
:1010100003D029002000FFF70FFB02992000FFF703
:101020000BFBF91C206B26F0B5F8B91C206B25F0E2
:1010300074FF206B26F063F8002201992000FFF76F
:10104000D7FD04992000FFF7F7FA791C206B25F0F3
:1010500064FF0599206B25F094FF1221206B26F088
:1010600057F9206BF91C25F058FF039B206B032BCD
:101070004FD026F04EF8206B26F060F8059B192122
:10108000002B00DA1A21206B26F042F9BA1C01214C
:10109000206B26F08BF86B461B8B350023836B4649
:1010A0009B8B63836B461B8CE383002E18D0206BD5
:1010B00026F039F8039B032B02D0206B26F033F87F
:1010C00031002000FFF7B8FA2569206B6B1C29005E
:1010D000236126F05FF80999206B013125F065FE48
:1010E0003900206B25F019FF206B26F01CF8039BBC
:1010F000032B02D0206B26F016F8002E03D0290017
:10110000206B25F00AFF0FB0F0BD2E4B029D02931D
:101110004BE725F0F4FF29002000FFF78DFAADE73B
:10112000238B25690293638B6E1C0493E38B668388
:101130000593AB1C0693A38B0198E383224B2B43AF
:101140002383EB1C236126F05DFD01002000FFF7E7
:1011500073FA07000121206B26F079F83100206B2B
:1011600025F0DBFEA91C206B26F084F800220199F3
:101170002000FFF73DFD39002000FFF75DFA070072
:10118000206B25F00DFE002803D13100206B26F0E6
:1011900001F8A91C206B25F0C0FE206B26F076F824
:1011A0006B461B8923836B461B8A63836B469B8A32
:1011B000E383039BBB42A2D039002000FFF73CFA37
:1011C0009DE7C046F7BF03000080FFFFF0B589B080
:1011D00005000591049200930191002904D09F21FC
:1011E00005A826F028FD019000231E001F00059C85
:1011F00003930293019BA3421AD1002E0DD0029BB0
:10120000002B00D079E0286B25F024FF039B002BF6
:1012100000D077E0286B25F01DFF049B002B00D148
:1012200075E033003A000099286B26F04CF90AE08B
:101230002378BB2B14D1BA3B1E4206D0374A21007B
:101240002800FFF7DBFA09B0F0BD012320001E43A0
:1012500026F0DDFC0290200026F0D4FC0400C9E753
:10126000BC2B0BD1BA3B1E4201D02D4AE7E702232B
:1012700020001E4326F0CBFC0390ECE7BD2B2AD1C7
:10128000200026F0C4FC040026F0BCFC0378C12B2F
:101290000BD128000622210024F0ACF8009B20008E
:1012A0000133009326F0AEFCD6E723780A3B0F2BE0
:1012B00001D91C4AC3E707A9200023F0F5FF040069
:1012C0000799286B25F0A5FE21002800FFF7B4F947
:1012D000013704008EE7002E01D0134AAFE7002F3C
:1012E00001D0124AABE721002800FFF7A5F9009BC7
:1012F0000400013300933E007CE702992800FFF7C9
:101300009BF983E703992800FFF796F985E73300F7
:101310003A000099286B26F0CDF894E7247C03006E
:101320003B7C0300537C0300747C03008F7C030030
:10133000F0B589B00400039103A83D2126F07BFCA1
:101340000027E36A02905E7D0398029B834215D1D9
:10135000180026F05CFC029B03901B780100320011
:1013600020001D2B4FD124F001FA0500013F4DD282
:1013700029002000FFF73CF909B0F0BD05A926F0CF
:101380004BFC6821039003A826F055FC06A9050034
:10139000039823F089FF9623069AFF3301909A421F
:1013A0003DD1854207D8214A00212000FFF726FAC7
:1013B000059B0393C8E7019826F024FC8542F2D1EF
:1013C00007A9019823F070FF079B194A934224D084
:1013D000184A9342E7D10426EAE707A923F064FFFD
:1013E00007990390206B25F03FFE03988542F4D1C6
:1013F0000599280023F04FFF0028D9D129002000AB
:10140000FFF71AF9D4E724F050FAAEE700230121E0
:101410001A00206B26F04EF8A8E70126C8E70399CA
:101420002000FFF709F901370390DEE7EB790300AD
:101430006F02000062020000F7B50A780E00130088
:1014400008215D3B8B43DBB20400002B02D101334A
:101450008371F7BD13005E3B8B43DBB2002BF8D0EA
:1014600013000A3B0F2B2FD95C2A11D101A93000A0
:1014700026F0D2FB070026F0C5FB019B984205D061
:1014800026F0C0FB019B0500984208D1002506E02C
:10149000300026F0BCFB070026F0B4FB050001A9D4
:1014A000380023F001FFA379002D02D02A78002A0A
:1014B0000CD1002BCDD1E38A002BCAD0184A3100C1
:1014C0002000FFF79BF9C4E73700DFE7002B1ED0B1
:1014D000A38A01339BB2A382012B09D1E18A206B3D
:1014E000002911D025F036FF0021206B25F04CFF9C
:1014F00029002000FFF7A0F8206B019925F089FD55
:10150000206B25F04DFFA4E725F0A4FDECE7E38A6E
:1015100029000133E3822000FFF78EF899E7C046E7
:10152000097A0300F0B504000E00056987B0029344
:101530006B1C0393AB1C03612900006B170025F0A3
:1015400063FE200023F0B8FE31002000FFF774F89E
:10155000206B25F0A1FE691C206B25F01BFE2900E5
:10156000206B25F0DAFC206B25F0F1FF2669731C57
:101570002361029B9F4218D1A38B206B013BA38365
:1015800025F05AFE206B25F0E7FF0399206B25F02C
:10159000C4FC0C9B002B03D019002000FFF74CF873
:1015A0003100206B25F0B9FC1BE0380026F02FFB42
:1015B0000023059323690500019301332361037818
:1015C000002B10D126F01EFB26F01CFB029B834251
:1015D00024D03C4A29002000FFF710F9A38B013BDF
:1015E000A38307B0F0BD07008B2B07D126F00FFBBC
:1015F000070026F007FB05A923F056FE206B25F017
:101600007EFD39002000FFF717F82121206B25F01F
:101610007FFE019A0021206B25F0C8FD280026F0EE
:10162000F1FA05990700002948D1206B25F07BFDD0
:101630000025059BAB4209D02569206B6B1C2361FB
:10164000290025F0EDFD200023F036FE39002000B2
:10165000FEF7F2FF059B0700002B02D0206B25F060
:101660001BFE206B25F03DFE059B002B19D00E21A3
:10167000206B06F08FFA2900206B25F04EFC0E211E
:10168000206B06F087FA05992000FEF7B1FF2000D5
:101690000599FEF7BFFFA38B206B013BA38325F0C9
:1016A000CBFD3100206B25F075FD0199206B25F0F5
:1016B00034FC0121206B25F078FB5AE72000FEF76F
:1016C00097FFB5E7B17C0300F0B587B0039143798C
:1016D0000400012B06D1C36A1B78002B04D11A4ADF
:1016E000FFF78CF807B0F0BD039B692103A80193B5
:1016F00026F0A1FA02900398029B8342F2D005A93A
:101700000B2723F0D1FD02AB059EFF1803903A0092
:101710003100E06A25F0D8FF3B780500002B0DD0A2
:1017200032000100E06A25F0FCFF2B78074A002B0D
:10173000E1D101992000FFF761F8DCE70378042B81
:10174000D9D0034AF5E7C046567A03007B7A0300F6
:10175000997A0300F0B587B0039144790500012C14
:1017600009D1019103A8692126F065FA0290039836
:10177000029B834201D107B0F0BD05A90B2723F0DE
:1017800093FD02AB059EFF1803903A003100E86A12
:1017900025F09AFF3B78002B08D10378012B05D068
:1017A000074A01992800FFF729F8E0E704703100A3
:1017B000E86A25F0ADFF0028D9D00470D7E7C0460D
:1017C000377A030010B5084B428B04009A4202D1CD
:1017D000064AFFF713F8A28BE38B618BD21A206BBA
:1017E00006F0FEF910BDC046FFFF0000D3790300EC
:1017F00010B5084B028B04009A4202D1064AFEF74C
:10180000FDFFA28BE38B218BD21A206B06F0E8F947
:1018100010BDC046FFFF0000BE790300F7B50B788E
:1018200004001A000A3A0E000F2A08D801A9300055
:1018300023F03AFD01992000FEF7ECFEF7BD432BA3
:1018400044D16946300026F0E7F901002000FEF798
:10185000F3FE03780500A22B10D101A926F0DCF9D4
:101860000500280026F0CEF9019B0700984205D01C
:1018700029002000FEF7E0FE3D00F2E72B78482B20
:1018800016D1280026F0C3F901002000FEF7D4FE8F
:101890000500206B25F073FC0099280023F0FBFC69
:1018A0000028CBD1214A31002000FEF7A7FFC5E771
:1018B000492BF7D1280026F0AAF901A923F0F4FC5E
:1018C00001990500206B25F043FCE5E7442BE9D1A5
:1018D000080026F0DCF90028E4D1300026F097F962
:1018E000060026F094F9050001002000FFF796FF9E
:1018F000280026F087F90378A92B9FD0AA2B0ED1B8
:1019000001A926F089F9019B0500984296D0200094
:101910002900FFF783FF280026F074F9F3E7C12BB5
:10192000C0D001002000FFF779FF87E74C79030062
:10193000F7B502260D00C16A0400097D314005D0CB
:10194000344A29002000FEF759FFF7BD019129789C
:1019500008000A380F281DD8280001A923F0A4FC8C
:10196000A279E36A002A03D01A8B01321A8302E0BB
:10197000DA8A0132DA82012601990029E5D06B4624
:10198000DF1C3A00E06A25F09FFE3B78002B3CD13B
:10199000214AD6E71A32914204D1280026F037F9BD
:1019A00001A9DBE71A33994223D1A379002BC7D1D0
:1019B00001272800A77126F06AF903260028DBD149
:1019C000280026F024F90278E36A0A3A0F2A09D897
:1019D00028001A7D17431F7526F019F901A923F075
:1019E00063FCC9E71A7D280017431F7526F00FF91D
:1019F000F2E7280026F00BF901A923F055FCE36A71
:101A00001A7D16431E750526B6E70223467003703D
:101A10009BE7C046D47A0300E37A0300C36A70B53B
:101A20001B7804000D00072B04D00C4A0021FEF7A0
:101A3000E5FE70BD1100280023F02DFC002807D022
:101A40000E21206B06F0A6F8206B25F046FDF0E78E
:101A500029002000FEF7F0FDF6E7C046BA7A030041
:101A6000C36A70B51B7804000D00072B06D0022B4B
:101A700004D0174A0021FEF7C1FE70BD11002800F6
:101A800023F009FC061E07D00E21206B06F082F819
:101A9000206B25F03DFDF0E72B78C42B12D12800F8
:101AA00026F0B5F801002000FEF7C6FD3100206BDE
:101AB00025F0CDFB206B0E2106F06CF8206B25F095
:101AC00036FDDAE729002000FEF7B6FDE0E7C04664
:101AD000D07C0300F0B50D0085B004001100280093
:101AE00023F0D9FB071E05D00021206B25F04CFC0C
:101AF00005B0F0BD2B784E2B0BD1206B012125F0CA
:101B000043FC29002000FEF797FD206B25F048FCE0
:101B1000EEE7B32B61D1280026F079F8050026F016
:101B200071F802900378B62B4DD103A926F074F812
:101B3000039B0290984203D09D2102A826F07BF8D7
:101B40002B784E2B20D103990298266B26F04EF865
:101B5000411C300025F018FC29002000FEF76CFD28
:101B6000206B25F01DFC0127029E039B9E4210D195
:101B7000002FBDD131000298246B26F037F8411CAC
:101B8000200025F018FCB3E729002000FEF754FDE3
:101B9000EAE73378310020000193FEF74DFD019B09
:101BA0000600002F0BD04E2B05D00F4A2900200035
:101BB000FEF724FE9CE7206B25F0F2FBD5E74E2BC9
:101BC000D3D10A4AF2E72B7804224E2B00D005220B
:101BD0002900200023F00EFC8AE729002000FEF7F0
:101BE0002BFD0121206BCCE764790300877903008A
:101BF000F0B504000D00002662711100C562066197
:101C00002A0087B0006B05F0E7FE6279012A01D156
:101C1000EE832E84AE683378542B0AD1300025F041
:101C2000F6FF01002000FEF707FD206B25F055FCB4
:101C30002AE02B78002B08D131002000FEF7FCFCB5
:101C40000E21206B05F0A6FFEFE7072B21D1300016
:101C500025F0D8FF63790500012B07D1002301008F
:101C6000A37140225D4B200023F045FD280025F0A4
:101C7000C9FF25F0C7FF01002000FEF7DDFC206B47
:101C800025F08EF80028DBD0206B25F05CF807B03B
:101C9000F0BD022B17D1012A07D100234732A371CF
:101CA00031004F4B200023F026FD300025F0AAFF25
:101CB00001002000FEF7C0FC2B7D5B07B5D5206B33
:101CC00025F031FABCE7033B032B50D8300025F058
:101CD00099FF05A925F0A0FF25F094FF67790390EF
:101CE000012F09D10B2202ABD2183900E06A25F08E
:101CF000EBFC02230370EF822B78032B20D1002111
:101D0000206B25F034FB2B78062B27D1206B25F098
:101D1000A1F901212000FEF759FC206B25F09AF96A
:101D2000206B25F097F90023059A0093039933005F
:101D3000200024F072F82B78062B00D075E77FE79F
:101D4000042B04D10021206B25F01EFBDBE7052BC3
:101D5000D9D10021206B25F02EFBD4E720000121F2
:101D6000FEF734FC0121206B25F071FADBE7012A34
:101D700006D105AA1B49280025F0A6FC0223037002
:101D800005A9A86823F090FA912120008900FEF7A8
:101D90001DFC15492000FEF72BFCE989206B25F07E
:101DA00038F9922120008900FEF722FCA86825F06E
:101DB00029FF25F027FF01002000FEF73DFC09491F
:101DC000280025F071FC0378022B00D138E7428807
:101DD0000449206B24F0F7FF27E7C046495A020068
:101DE0003D5A02003102000043020000F8B5164BD4
:101DF0000400A8331B681600002B24D105690122BA
:101E00006B1C03612B0023F090FFFC210700FF31C6
:101E1000206B25F005F83100380023F03CFA061E4F
:101E200009D139002000FEF707FC33003200012100
:101E3000206B25F03FFB0121206B25F05BFB290087
:101E4000206B25F06AF8F8BD942E0020F0B585B01F
:101E500005000E000192FEF7EFFB03780400A22BB1
:101E600003D101A925F0D8FE0400EB6A1B78072BEB
:101E70006FD1337872780A3B1B021343DA22920047
:101E8000934266D12378472B63D1200025F0FFFED3
:101E900000285ED04A492800FEF798FB0121EA6A33
:101EA000936A928C002A05D1464A21002800FEF749
:101EB000A5FC51E05878084211D059682800FEF777
:101EC00085FB0199200025F091FE02280ADC002301
:101ED000286B1A00022125F0EDFA200036E0013AC5
:101EE0000833DFE7200025F08DFE0378492BEED183
:101EF000200025F087FE25F085FE0378472BE6D1EC
:101F0000200025F07FFE070025F07CFE060038004B
:101F100025F07DFE03A923F0C7F903990122286B60
:101F200025F0AEF8300025F0B2FE0021884203D142
:101F3000300025F06CFE0100002301222800FFF78D
:101F400045F9200025F05EFE25F05CFE25F05AFEE6
:101F50000400019B9C4201D105B0F0BD200025F09A
:101F600051FE019B0600984224D02378492B21D1B1
:101F70000378472B1ED1200025F049FE07003000D2
:101F800025F085FE0024A04203D1300025F03FFE5D
:101F9000040003A9380023F087F900220399286B75
:101FA00025F06EF82800002301222100FFF70EF92A
:101FB0003000CBE721002800FEF73EFBC8E7C04613
:101FC00031020000A6790300F0B59BB00BAC06907F
:101FD0000F00150000213C2220001E0021F076FC9D
:101FE000069B0B975B682671236201235B42238368
:101FF0006383069B186825F005FE25F0D7FD606217
:10200000800024F0DAFA0022069BA06200951B688B
:102010001100200023F05AF924F07FFE00230290E3
:1020200020630393002633001FE0FFF7E1FD15E076
:10203000A268002A1DD1A16AB2005558002D13D004
:102040002A69002A10D125F0CBFF6B7D286101227F
:1020500029002000042BE8D1FEF7E4FB2369039A52
:102060009A4200D2039301230136626A0792964294
:10207000DED3002BD6D1049301339C46079B049AF0
:10208000934202D00D9A002A3CD00399029824F082
:1020900049FE0025149B04939D4204D20D9B04939A
:1020A000002B00D1DFE00D9B0393002B0CD0169B7F
:1020B0000EA8996823F096FB169B0E9A0393DB8972
:1020C0000B990D980AF0ACF9029824F033FE189899
:1020D000002801D024F01AF90024069825F0E1FD2B
:1020E000159B1B681D69149B02939C4200D2FBE068
:1020F000159824F07FFA0D99002900D1FFE008001F
:102100000BF0A6FE0499159B8900CB58002B39D003
:102110006046197D01421CD09C8C601EC000002CC2
:1021200017D00226996A09184D7835422ED0002A18
:102130000FD00F0050881678059050685578089099
:1021400011CF11C26A46928A0E704A80089A4D7069
:102150004A6000219A8C6D4C99830592059A9142B0
:102160001CDB0021059A8A4236DC5E68002E09D00D
:102170000021B28C09920A00099881423CDB0020C0
:10218000002A65D1049B0133049377E7002A02D12A
:10219000012D00D10A00013C0838C0E7986ACA0046
:1021A00082181878012804D15068A04208D1013162
:1021B000D4E7012804D91078002801D160461070B6
:1021C0001078022803D0654650782842EFD0988BCB
:1021D000451C9D835080EAE7986ACA0082181078EF
:1021E000032807D164465078204203D1988B508051
:1021F000013098830131B5E7B06ACD0040190890ED
:10220000007800240338012810D90131B4E79F6A0F
:10221000E00038180778042F07D1089D6F683D004B
:102220004768BD4201D14280013201340598A04285
:10223000EDDCEAE79C6AC10061180C78042C03D13C
:1022400065464C782C4202D04C88A4184C80013052
:1022500005998142EEDCD98A92B25118D982998BC4
:1022600052189A838EE7159B0493049AAB009C58EE
:10227000002C1DD0637D042B1CD1189B0493002BD4
:1022800004D10399139824F02AF818900023179387
:102290001F4B032221000BA81993FEF7C3FA0D9BD5
:1022A0000493002B04D1042221000BA8FEF7BAFAF4
:1022B0000135EFE6029B022221000BA81793FFF7DE
:1022C00097FC0D9B0493002B04D1032221000BA843
:1022D000FFF78EFC0D9B0493002BE9D10422210013
:1022E0000BA8FFF785FCE3E7159B0293029AA30076
:1022F0009858002801D025F0CEF90134F3E60A0001
:10230000280025F079FE1BB0F0BDC0463102000068
:10231000E0D90200F8B5224E3568686801281DD959
:10232000AA68431ED15C0A2918D1002B03DD591E6F
:10233000545C0A2C13D11C00844202D2115D202966
:102340000FD0002B0FDC1218023AE31A14789B0806
:102350003A3C614261415C18002C11D1F8BD0B0080
:10236000E3E70134E8E7611C8842ECD1591E0029FB
:10237000E9D00139575C0A2FF0D0202FF7D0E2E7DF
:10238000084F04223900280022F067FE042138009B
:1023900010F024FD3369013C04333361DCE7C046AF
:1023A000500100204FE2030010B520220021024816
:1023B00021F08CFA10BDC046F42E0020084B10B559
:1023C000426818600020986018750138D8600800CD
:1023D0005A601A61996128F07FF8FFF79BFF10BDE2
:1023E00050010020F8B503780400002B1DD00F4EDB
:1023F000306E002804D0210021F0ECFC002814D01D
:10240000200021F02BFD471C380024F0D1F8051ED8
:102410000BD03A00210021F0C7F9054B054A196895
:10242000043B99609A42FAD13566F8BD942E00209B
:102430000C2F0020F02E0020F0B5B74C02002068D1
:10244000A568436885B00193002D00D0FDE0531EC0
:10245000042B11D8019B61688B4200D195E0012AC1
:1024600000D12AE1022A07D123696268934200D988
:102470004DE10122524288E0032A00D185E0042A7E
:1024800000D12FE1052A00D107E1062A0ED12369E8
:10249000019A9342AD416D42002DEADD2368290087
:1024A00098682369C01810F099FC1FE00B2A21D10D
:1024B000019B2269991A22F090FE2368019A5B68B9
:1024C0009A4204D913002269981A10F0BFFC2268BE
:1024D000236951689068C91AC01810F07FFC2368FE
:1024E00058682369C01A401B10F09EFC23695D19CF
:1024F0002561BEE70E2A13D1E368002BB9DB013B4F
:10250000E3606268019B991A22F067FEE368002B82
:1025100018DB1633814A9B00D318996820680FE0B6
:10252000102A16D1E368062BA3DC5D1C7B4A173307
:102530009B00D318996800299BD06368E5604360CD
:1025400022F010FE63682269D61A22685568ED1AD7
:102550000AE0152A0CD12369626861689A1A22F090
:1025600044FE236962689E1A0127002E2FDCA4E72F
:102570000D2A0DD16A4827F0AFFF206822F0D7FD61
:102580006368C018FFF72EFF0022100005B0F0BDF1
:1025900001231B2A62D0082A01D07F2A20D1216979
:1025A0006268914200D864E700238668B618F75C39
:1025B000202F13D101339F188F42F8D30126032B0C
:1025C00000DD0336891B320022F00FFE01273000A8
:1025D00010F02AFC23699E1B266178E00126F1E7B2
:1025E000092A28D1636822698068D11AC0184D4A27
:1025F00003AB01F05BF8061E00D13AE70027431C4D
:102600000BD1A06927F068FF63682269D11A22689C
:102610009068C01810F0E2FB4FE723692068F918B2
:10262000039B01375A1C03921A7822F0C4FDBE4264
:10263000F3D1350041E71300203B5E2B00D918E7AA
:10264000216922F0C1FD012537E7012D08D10423BE
:102650004F2A03D002235B2A00D00023A36008E79F
:10266000022D20D11300303B092B03D80323227500
:10267000A360FEE60023A360412A00D152E7422A6C
:1026800000D139E7432A00D101E7442A00D1EBE623
:10269000482A12D0462A00D0EBE60027019B226987
:1026A0003E009D1A0EE00023032D29D17E2A24D15D
:1026B000227D312A01D0372A0DD100252F00236930
:1026C00062689E1A0023A3609E4200DD7FE7002F10
:1026D00000D1E1E6F1E61100FB2534392942DCD0D6
:1026E000332A0AD12169019B8B4206D9012222F0AB
:1026F0007CFD002501272E00E4E700252F00FAE7E6
:10270000042DABD1462AC8D0482AD6D0A6E700254A
:1027100001262F005BE7C04650010020942E0020C8
:102720005FBB0300B005030010B5040004F0C6FE53
:10273000074B02001B690749074826F091F803F090
:1027400041FC012C01D103F05FFC044810BDC046E0
:10275000942E0020E97C0300B0050300B80D0300AF
:1027600010B50CF0B1FB0FF04BF8014810BDC0469E
:10277000B80D030010B503F023F9014810BDC046A1
:10278000B80D030010B503F011F9014810BDC046A3
:10279000B80D030010B586B0040005AB04AA03A968
:1027A00002A802F0DDF9059B029A0193049B0649F9
:1027B00000930648039B26F053F8012C01D102F048
:1027C0000BFA034806B010BDFE7C0300B005030001
:1027D000B80D030010B5084C002805D1A8342368B3
:1027E00001305B00184310BD08680CF06DFBA83485
:1027F00020600248F7E7C046942E0020B80D030081
:102800000139C9B2054B401880301970044A037869
:102810001370044AD25C044B1A707047D72D002005
:10282000D82D0020058F0300D62D00200131C9B21C
:10283000054B401880301970044A03781370044A1D
:10284000D25C044B1A707047D72D0020D82D002081
:10285000058F0300D62D0020074B984206D9074B61
:102860001818074B4118C91808787047054B1818F5
:102870004118054BF7E7C046A4920000468D0300BF
:102880005B6DFFFF5A7D03000083FFFF03002022E2
:102890008033F0B504001A707F2000224F255F2698
:1028A00089B0A15C531C0A00DBB202406F2A28D910
:1028B0000A003240E11880310A701A007F2BF0D1F3
:1028C000BB4A137023001B22FF331A70E4320192BB
:1028D000531CDBB203936B46B6481B7BB6490370AF
:1028E000039BE31880331B780B705B2B0ED19B226C
:1028F000019B0A700133DBB20370E254012009B07E
:10290000F0BD5F2AD6D90A002A40D3E72E2B13D177
:102910000232D2B20270A21880321278A448027039
:10292000A648825C0120024206D1019A0B7012185F
:10293000D2B20192A3546FE202209D4A13709F4AC3
:10294000D25C104000D0ADE0002A19D19948203265
:1029500003780A70E31880331A70019B0133DBB2ED
:1029600001936B461B790370019B782B01D8E254CD
:1029700052E29B23019AA3546B461B7B0B70BDE76D
:1029800016007F2552B2AE430E70002A03DB8C4A3C
:102990008C4B1A60B3E7413B8B4ADBB28B49D25C6C
:1029A000CB5C120213430293029B002101339BB2C2
:1029B00018000293FFF750FF0306F5D50123012706
:1029C00000267B4D2B7039000298FFF745FF7B1CDA
:1029D000DBB2282868D1002E00D02F702B7801336D
:1029E000DBB2059305990298FFF736FF059B01338B
:1029F000DBB22928F5D17F25049304990298FFF7CB
:102A00002BFF049B28400133DBB23D284FD16A469F
:102A1000694B127B1870674B00261A706A467B1C44
:102A2000DBB200931278624B039D1A70069563190E
:102A300080331B78009902980793FFF70DFF079BDF
:102A40008342B1D1009B05990133DBB20093009A18
:102A50006B1CDBB28A422CD1002E01D0554B1D706D
:102A6000039D013FFFB2524B390002981F70FFF7E0
:102A7000F3FE514E030600D504E14E4B7F21187042
:102A80004E4B1B5C1A005BB28A433270002B14DA87
:102A9000484B013DEDB21D70631980331B7898429D
:102AA000DFD081E74A4B7EE71F0001268BE70493C6
:102AB000A3E71D0001260693B9E7307020281BD03C
:102AC000232825D02E282CD0262832D040284ED09E
:102AD0005E2856D02B285CD03A2800D00EE1202664
:102AE00029002000FFF78CFE334A1378334013701F
:102AF000B7D0304B1D78F3E729002000FFF780FEA8
:102B00000023F356002B00DA4EE72A4B1D78A8E786
:102B100029002000FFF774FE402233781342F4D1DD
:102B200042E729002000FFF76BFE33781B07ECD447
:102B30003AE729002000FFF763FE102233781340A4
:102B40003370E2D11B4B1B78E1188031097831706A
:102B5000482900D028E7013B1649DBB20B70E31887
:102B600080331B789343432B00D01DE7CDE729002A
:102B70002000FFF745FE0422337813403370C4D1A0
:102B800012E729002000FFF73BFE33789B06BCD4F8
:102B90000AE7084B013DEDB21D70651980352B78B1
:102BA000452BB2D010229343492B00D0FCE6ACE772
:102BB000D82D0020D72D0020D62D0020058F030012
:102BC000467D0300140000208B8F0300718F0300EB
:102BD000A59200006B1C934ADBB21370E31880339C
:102BE0001B7891490B70452B36D1A81CC0B2231815
:102BF00080331B788D4E33708D4EF656002E02DBDF
:102C0000884B1D783FE010700B70522BF8D0532B7F
:102C1000F6D0442BF4D04C2B08D10335EDB215700F
:102C2000651980352B78592BEAD0BDE6462B00D0AC
:102C3000BAE6EB1CDBB21370E31880331B780B7021
:102C4000552B00D0B0E60435EDB21570651980350E
:102C50002B784C2BD4D0A7E6492B00D0A4E6AB1C94
:102C6000DBB21370E31880331B780B704E2B00D04F
:102C70009AE60335EDB21570651980352B78472B30
:102C8000BED091E6069D6A46009B0133DBB20093FD
:102C90001278664B1A70009B049A934200D19CE014
:102CA00019000298FFF7D8FD614B7F211B5C5D4F37
:102CB0001A005D4E8A435BB238703270002B08DA1E
:102CC0000135EDB2631980331B783D709842DAD03C
:102CD0006AE63070202816D023281ED02E2826D051
:102CE00026282DD0402848D05E2851D02B2858D0F7
:102CF00020263A2864D0252800D16BE74D4A4E4B58
:102D000000201A60FBE529002000FFF78FFD00235B
:102D1000F356002B00DB73E746E629002000FFF79F
:102D200085FD40223378134200D069E73CE6290054
:102D30002000FFF77BFD33781B0700D560E733E603
:102D400029002000FFF772FD102233781340337002
:102D500000D055E73B78E118803109783170482977
:102D600000D021E60133DBB23B70E31880331B78DF
:102D70009343432B00D017E642E729002000FFF7DA
:102D800055FD042233781340337000D038E70BE64A
:102D900029002000FFF74AFD33789B0600D52FE776
:102DA00002E60135EDB23D70651980352B78452B73
:102DB00000D125E710229343492B00D0F4E51FE70B
:102DC00029002000FFF732FD174A137833401370B3
:102DD00000D158E7134B1D78F2E700257F272E001E
:102DE00000990298FFF738FD03003B403D2B04D0CB
:102DF000019A0132D2B20192A354009A0132D2B2A6
:102E000001060BD5002E03D06946084A09781170D7
:102E1000054A1370069B0393039A59E50092012615
:102E2000DEE7C046D72D0020D62D0020D82D00206B
:102E3000058F0300507D03001400002070B5137847
:102E400004000A3BD8B20F2809D90A0010481149DA
:102E500009F078FA0025636A1860280070BD002523
:102E600052781B021A43E36A9D420AD1238C002543
:102E7000042BF2D10849064809F064FA636A186025
:102E8000EBE7206BA90009589142E6D00135EBE74A
:102E900090000300289103003D910300F0B5040069
:102EA00085B00D00100003A9A26A1E0024F084FE64
:102EB000002809D12A000B490B4809F043FA636A3C
:102EC0001860002005B0F0BD03980CF029F803004D
:102ED000B343F7D0030000962A000449024809F0E2
:102EE00031FAECE7E490030090000300FC9003004B
:102EF000F7B51E0013780D000A3BD9B204001B4839
:102F00000F2904D850781B02184323F0ACFA037839
:102F10000193174B5A1C0023177801998F421BD13C
:102F200041785778B94217D1817897788F4213D179
:102F3000002F0ED10E4A9B00D05CB04208D933005E
:102F40002A000C490C4809F0FDF9636A186000205A
:102F5000FEBDC778002FEDD001330432152BDBD135
:102F60002A000649044809F0EDF9EEE7C3C703005B
:102F7000A091030054910300900003006D910300A1
:102F8000F0B5137885B005000E00462B47D101A996
:102F9000100024F041FE019B984240D003781A00B3
:102FA0000A3A0F2A0AD802000F2331002800FFF73F
:102FB0009FFF01248440200005B0F0BDB32B2ED12B
:102FC00024F025FE040024F01DFE02900378B62BA9
:102FD00025D10127A73B220031002800FFF788FFF9
:102FE0003C0003A98440029824F016FE039B029043
:102FF0009842E0D09D2102A824F01DFE029A039B76
:103000009A42D8D00F2331002800FFF771FF3B0010
:10301000834002981C4324F0F5FD0290EEE7320055
:103020000349044809F08EF96B6A00241860C2E76E
:103030008591030090000300F0B50E0087B00400F6
:1030400004A930001F00019223F012FA019B050031
:10305000002B0FD1C9239B009E4205D1BF2109023D
:10306000200025F09BF919E0BE4B9E4200D080E085
:10307000BD49F5E7019B012B00D092E00A23FF3305
:103080009E420DD101003A682000FFF7D7FE0100F3
:10309000200025F0CDF9002800D1EEE107B0F0BD09
:1030A000B24B9E4209D101003A682000FFF7C6FEEC
:1030B0000100200025F014FAEDE7AD4B9E420AD145
:1030C00001000F233A682000FFF712FF8E21C00095
:1030D000C9010143C4E70378622B32D1049B032B5F
:1030E00007D0052B2DD1C3785F2B2AD103796E2B06
:1030F00027D101260023687876429E4AD1184A7863
:10310000824205D1AA7889788A4201D1994A9E5C87
:1031100003332A2BF1D1731C2BD03A6829002000ED
:10312000FFF78CFE049902000023052904D12B79B6
:10313000773B58425841C3B23100200025F094F942
:10314000A9E7A1239B009E4201D18B4988E78B4BC5
:103150009E4201D18A4983E78A4B9E4212D12900BF
:103160003A682000FFF70CFFFF231B02B42118422E
:1031700015D0019B2A008449844809F0E3F8636A6A
:1031800018608BE7824B9E42F3D13A6829002000F9
:10319000FFF7F6FEFF231B021842EAD1BC21090209
:1031A00097E7019B022B00D002E17B68794A1B78EC
:1031B0000A3B0F2B4AD8964212D13A6801000F23DE
:1031C0002000FFF795FE7A68060029000F232000F3
:1031D000FFF78EFE31000200200025F012F95DE7B6
:1031E000972300229B0002929E421AD18026F6016C
:1031F0003A68290007232000FFF77AFE7A680190D9
:10320000290007232000FFF773FE019A0300310015
:10321000200025F0EFF841E7029B013302930F2BCA
:10322000A7D0029B03229E005B4B711C59182800FB
:1032300020F046FE0028EFD1EB78002BECD1564B66
:10324000F65C80233601DB011E43D1E7964219D19B
:10325000802607233A6829002000FFF749FEFF2354
:10326000019029007A682000FFF718FE019BB60143
:10327000190206433143F3E6A026EAE7C026E8E751
:10328000E026E6E7454B9E42F6D0454B9E42F5D000
:10329000444B9E42F4D00023434A99005018408882
:1032A00086425BD18B5A200002933A68072329009B
:1032B000FFF71EFE7E6803903378452B31D1300036
:1032C00024F0E5FC00282CD1300024F0A0FC037889
:1032D000A62B26D105A924F09FFC0599060024F011
:1032E00085FC02281DD1300024F08CFC072332001D
:1032F000070029002000FFF7FBFD029B0600DB040E
:1033000017D51F233A0029002000FFF7C7FDF10061
:10331000039B029E80011E433143F826F600304095
:10332000D7E62A002149194809F00CF8636A1860A9
:103330001FE76B4608229B5E002B07DA3E233A000C
:1033400029002000FFF7AAFD4008E0E77C233A00AF
:1033500029002000FFF7A2FD8008D8E70133062BE3
:103360009BD106E78903000030BF0000690200001E
:103370006D020000A58F030072B6000085020000F8
:1033800062B60000350300005F9003009000030068
:103390002F0300001D030000A89003007B02000023
:1033A0005902000066030000E44C0300349003005F
:1033B000019B032B00D0DCE6334B9E4221D100263B
:1033C0003A68072329002000FFF792FD7A680190F0
:1033D000072329002000FFF78BFD1F230290BA6806
:1033E00029002000FFF75AFD019F029B374381010E
:1033F0003943DE003EE780263601E1E7802676018C
:10340000DEE7C1239B009E42F5D0204B9E42F5D0C3
:103410001F4B9E422BD1C02607233A68290020006B
:10342000FFF766FD072301907A6829002000FFF767
:103430005FFDBA687601137802900A3B0F2B0DD816
:10344000072329002000FFF753FD029BD900019BB1
:10345000194331430F008101394301E68023DB002A
:103460001E43290007232000FFF718FDEDE7094B55
:103470009E4200D07DE6D026CEE707490748646A21
:1034800024F04BFE206009E6030300006302000005
:1034900059020000660300009490030090000300AE
:1034A000F7B50E0007001100300024F09FFB002547
:1034B000040004281ED97C6A1349144824F02DFE08
:1034C000206000242000FEBD73780002184322F023
:1034D000CAFF0236019020F0C1FC022811D1019BE5
:1034E0001B78722B0DD1019B5A782B0030339A42F6
:1034F00007D10135A542E5D030780A38C3B20F2B89
:10350000E2D97C6A0249D8E7CF8F0300900003001C
:103510000290030010B504000C2023F03CF8034B8C
:103520004460036001235B42836010BDF4D9020054
:10353000004870470148E80110B50BF0C5FC80F366
:103540001088014810BDC046B80D0300F8B50378D7
:103550000400002B1BD0402B1CD10120002319009C
:103560001D001E002278002A3CD10132002E0FDC03
:10357000002D0DDC00290BDC033B934208D9013CF4
:1035800023785C2B04D0002801D00A2B00D1002224
:103590001000F8BD3E4922F0F0FE0028DDD13D4983
:1035A000200022F0EAFE0028D7D13B49200022F07B
:1035B000E4FE0028D1D13949200022F0DEFE0028A7
:1035C000CBD13749200022F0D8FE0028C5D135499B
:1035D000200022F0D2FE0028BFD13349200022F083
:1035E000CCFEBBE7272A12D1002B01D0032B09D137
:1035F0006278272A06D1A278272A03D10234243AF6
:10360000D31A02E00122012BFAD90134AAE7222AB7
:1036100012D11A000427BA430AD16278222A05D1AE
:10362000A278222A02D102343A00E9E7002B01D025
:10363000022BEAD10222E3E75C2A0BD16778272F1D
:1036400003D0222F01D05C2F04D11A00571EBA419B
:10365000A418DAE7002BD8D15B2A12D006D8282A82
:103660000DD0293A57425741F61BCEE77B2A0AD0A4
:103670007D2A0AD05D3A57425741ED1BC5E7013616
:10368000C3E70135C1E70131BFE70139BDE7C046F6
:10369000FCD9030000920300069203000A92030083
:1036A000E1AC03000E920300B2B80300F0B58BB09A
:1036B000079343180390049201930093009B5C1EB0
:1036C000039BA34201D9009310E0207808F004FF87
:1036D000002801D00094F1E7207808F009FF0028C5
:1036E000F8D123785F2BF5D02E2BF3D07E4B1D68BD
:1036F000009C019B9C4243D3009BE71A019B9C4288
:1037000022D20026AB689E421BD2F3000293EB68E4
:10371000F2009858002838D0042836D009A907F0BC
:10372000C9F9099B01009F422FD13A00009820F06F
:10373000C7FB002829D1EB68029A9B18586800281B
:1037400025D100200BB0F0BD002426000294019486
:10375000AB689C4237D3019B002B66D1009B039A38
:103760009342EED1614C3A00210018001FF0F6FFA1
:103770000028E6D1079BE41907301C60C01BE1E775
:1037800023782E2BB8D00134B3E70136BAE70323F0
:1037900018420DD10268564B9A4205D125F0CDFB57
:1037A0000500631C0093A3E7524903008A4202D03C
:1037B0000BF0A2FA03009D6B002DC2D04E4B2A687D
:1037C0009A42EED0BDE7EA68E300985800281CD082
:1037D00004281AD009A907F06DF9099B05900693F2
:1037E0009F4212D801003A00009820F069FB00289F
:1037F0000BD1029B002B12D03B009E4202D3069AB3
:10380000934204D9019B013301930134A0E7029A4A
:10381000D15C059AD25C914205D10133EDE7059B5D
:10382000069E0293EEE71E00ECE7019B012B0FD0F2
:10383000BE420DD8002340260193019BAA68934203
:103840000CD32E49049824F043FF0120404279E72D
:10385000029B079ADB191360F01B73E7019BEA6870
:10386000DB00985800283AD0042838D009A907F07E
:1038700021F9099B039005939F4230D801003A003B
:10388000009820F01DFB0290002828D133000F2261
:103890000F33DC171440E41824112401A41B012C5D
:1038A00000DC1034059A33199B18402B0DD9039A6C
:1038B0001349049824F0D4FF099E10E0114904989C
:1038C00024F006FF029B01330293029B9C42F5DC2D
:1038D0000399049824F0FCFE099BF6183619019B05
:1038E00001330193A9E7C046942E0020F491030010
:1038F000380C030088ED0200700F0300A69203004D
:10390000FC91030052E20300F0B5036899B0070090
:103910009868079125F0F1F801220F21431E043029
:10392000800004933B18029304330393FB6806A8BA
:103930001A4009180A70032293430A930CA80AF04C
:1039400061FA031E00D057E3079A7D68BC68002A1D
:1039500000D1A4E22A785E2A00D1A0E2079807935A
:1039600004F0EEFE04000AE0D64B63600434D64B4C
:103970009A6C002A00D191E200229C6C9A640AF0B1
:103980005FFA0D9438E3D14BEFE7D14BEDE77F21A0
:103990006B785B06DB173278DB01100052B208400F
:1039A00003430136002AF6DB01225B001343DCE708
:1039B00000237F213278DB01100052B20840C31887
:1039C0000136002AF6DBDB000622EFE7032203368E
:1039D000964308CEC9E70023C7E700237F2132784A
:1039E000DB01100052B20840C3180136002AF6DB92
:1039F0009B005B42029A9858002800D03EE3B549EC
:103A0000B54824F08AFBADE700237F213278DB0143
:103A1000100052B20840C3180136002AF6DB029AA1
:103A20009B005B42985823F0F8F8E5E700207F22DE
:103A30003378C00119005BB2114008180136002B21
:103A4000F6DB251D04F068F960603EE000207F226F
:103A50003378C00119005BB2114008180136002B01
:103A6000F6DB251D04F026F9EEE700217F223378EE
:103A7000C90118005BB2104041180136002BF6DB7B
:103A8000206823F08DFD206071E700217F223378CC
:103A9000C90118005BB2104041180136002BF6DB5B
:103AA000220001CC04F0B2FA61E700207F223378D3
:103AB000C00119005BB2114008180136002BF6DB7B
:103AC00021000839251F03F075FB2C004FE7251D49
:103AD00004F03AF9B8E7251F0422216828680BF0A2
:103AE0007BFB2860F1E700237F213278DB011000A7
:103AF00052B20840C3180136002AF6DB9B005B4235
:103B0000029A21689950F8E000237F213278DB0186
:103B1000100052B20840C3180136002AF6DB029AA0
:103B20009B005B4221689858251F23F078F8CCE76A
:103B300000207F223378C00119005BB211400818C1
:103B40000136002BF6DB2168251F04F013F9BCE7D2
:103B500000207F223378C00119005BB211400818A1
:103B60000136002BF6DB2168251F04F01BF9ACE7BA
:103B700000217F223378C90118005BB21040411840
:103B80000136002BF6DB231F1A68206804F066FA62
:103B9000083CECE62200231F083A216812681868E6
:103BA0000BF01AFB0C3CE2E600237F213278DB01AC
:103BB000100052B20840C3180136002AF6DB029A00
:103BC0009B00D31A1A68002A00D118E700221A6055
:103BD000CDE600257F223378ED0119005BB211405C
:103BE0004D190136002BF6DB029BAD005D1B2868EA
:103BF00023F013F8002800D101E70021286823F002
:103C00000EF8B4E600207F223378C00119005BB2C1
:103C1000114008180136002BF6DB04F0B7F8A6E6D1
:103C200000207F223378C00119005BB211400818D0
:103C30000136002BF6DB04F0C1F898E6236894E621
:103C40002368A360231F1B68636008348FE6231F6B
:103C5000196822682160BAE7221F1368216823606F
:103C60002300083B18681060196080E6737832788A
:103C70001B021343194A9B18EE1878E633787678BE
:103C8000206836021E4301960BF05CFAEE1C251FDD
:103C90002C00002800D16AE6114A019B9446634437
:103CA000F61864E633787678206836021E4301966B
:103CB0000BF048FAEE1C251F2C00002800D056E619
:103CC000EAE7C046B0090300942E0020B80D0300B7
:103CD000B80903001292030028FF02000380FFFFCF
:103CE0000080FFFF33787678206836021E43019605
:103CF000EE1C0BF027FA0028CED1043C37E63378CF
:103D00007678206836021E430196EE1C0BF01AFAF4
:103D10000028C1D0F1E7266822003000B14904F044
:103D200075F923008D2108331A00300089000193B2
:103D300004F06CF90021019A080023F022FCAB7812
:103D40006A781B0213430A9A0F210C320A920A9ACC
:103D5000EE1CF3181360022206ABC9180A9D0B78FB
:103D60001A43231D13436B6000230A9A0B70936060
:103D7000A060019CFBE5250023689B4A0193083D58
:103D8000934209D16360A3602A000021032023F03D
:103D9000F8FB019B2B6098E60122019B13400593E1
:103DA00031D0019B5A10231F012A13D11A68002118
:103DB00005928D4A03201A6023000C3B226062604A
:103DC0001A00019323F0DDFB019B059A1A6003237F
:103DD0002B60DDE62A68002105921A68032006920E
:103DE000814A2A601A602300103B22601A00019366
:103DF00023F0C7FB019B059A1A602300069A0C3B2F
:103E00001A600523E4E7019B636018000AF074FF61
:103E1000754B2060A3602A000599032023F0B1FBB5
:103E20000BF090F900280DD001226F4B06A92B60F2
:103E30000A9B5B6813400E32521813700A9B0C3BAE
:103E40000A9342E66368A5E7737832781B0213434E
:103E5000664A9B18EB186360EB78083423600F26E2
:103E60007F210220012506AA2368B6180B4206D13D
:103E7000221F1668002B00D18AE6183C77E50A9AC3
:103E8000013B526802426FD0220008C205236360E2
:103E900014000A9B1E680A9B0C3B0A9335007D6048
:103EA0002B786E1C180010385A2800D908E318F037
:103EB000F5FB5BFD6AFD6CFD07036EFD07037FFDEF
:103EC0008DFD92FD94FDABFDBDFDCDFDDCFDECFD5A
:103ED000FCFD0EFE12FE1AFE2BFE3FFE4FFE5FFEA5
:103EE00071FE7BFE90FEA9FEB7FE070307030703E2
:103EF0000703C5FEC7FE24FFCEFED3FEDDFEE5FEB2
:103F0000F9FE19FF26FF07030703070332FF62FFCD
:103F1000630063008000BE00CF00E700E700CBFF36
:103F2000C300070307030703070307030703070388
:103F30000703F300050107031701260107032F01FB
:103F40006201410184019A014B027802A5029002AC
:103F50000703AF01BB01C601D401E001FD01170257
:103F60003402DE02F00201030A9A52682A403270DB
:103F70000A9A0C3A0A9279E7737832781B02134353
:103F80000A9AEE1C0C320A920A9AF31813602B78E4
:103F90000A9A403B584258410F21430006A809188D
:103FA000087803432343536000230A9A0B709360FD
:103FB000DDE423680C4A934200D19EE6DA0717D568
:103FC0005B10DBB2043C012B00D048E702220A9BC5
:103FD0000399994200D8CDE109F032FF0020BC607E
:103FE00019B0F0BD36020000B80D03000380FFFFDA
:103FF00009F026FF23680D930D9BDB49186803F039
:10400000E9F8002800D1A1E27A68002A00D19DE2F7
:104010001378432B00D08BE2937850781B02D11C8D
:104020000343CB187B60BB68103BBB6086E4002178
:10403000206804F037F826E52500210020680C35BB
:1040400004F030F8844200D13FE500232360FBE414
:104050002000337876780C383602BC601E43036843
:104060000196EE1C002B02D12300083B186804F0D7
:1040700053F8002802D1103C019B11E6606075E402
:1040800001220A9B06A95B6813400E325218137076
:104090000A9B0C3B0A936AE400207F223378C0011C
:1040A00019005BB2114008180136002BF6DB8100C5
:1040B000641A0434210008F029FEE4E400207F2281
:1040C0003378C00119005BB2114008180136002B8B
:1040D000F6DB8100641A0434210025F0E6FAD2E40C
:1040E00000207F223378C00119005BB2114008180C
:1040F0000136002BF6DB251D25F0B8F8A4E42500D9
:10410000231F083D1A682168286825F0E7F8DCE4D9
:1041100000207F223378C00119005BB211400818DB
:104120000136002BF6DB8100641A0434210009F00B
:10413000DFF8A8E400237F213278DB01100052B2BF
:104140000840C3180136002AF6DB251F022B05D1D3
:10415000864A2168286800F0F5FFC2E42300083B86
:10416000226818682968019300F0ECFF019B186031
:104170001C00FFF7FCFB00237F213278DB011000DD
:1041800052B20840C3180136002AF6DB9A089200A2
:10419000524210590322251F134003D121680DF00C
:1041A00083FB92E4012B04D12A68216825F096F85C
:1041B000EEE4216824F03AFA87E400257F21337881
:1041C000ED011A005BB20A4055190136002BF6DBEF
:1041D00022002900206804F063F9654B5D19AD00E9
:1041E0006419FFF7C4FB00257F213378ED011A0025
:1041F0005BB20A4055190136002BF6DB220029007C
:10420000206804F09FF9FF222B0A13401540E5E7D0
:104210000322F31C93430022186811001E1D251D64
:1042200023F0EAFEFFF710FC0322F31C9343251F43
:104230002268296818681E1D23F0DEFE51E403225F
:10424000F31C934319795E1D8A00A41A04342200DA
:10425000186823F0ECFEFFF716FC0322F31C9343CF
:1042600018798021C243490092005E1DA4180143C1
:10427000EDE700207F213378C0011A005BB20A40CD
:1042800010180136002BF6DBFF25FF220100C309C1
:104290006D0011402B405B189B00E41A000A02409D
:1042A000231D206803F008FEFFF7EDFB00217F22AD
:1042B0003378C90118005BB2104041180136002B59
:1042C000F6DBFF22CB0952001340CAB29B189B00B9
:1042D000E41A083C2200002003F088FFFFF7D3FB1C
:1042E00000237F203278DB01110052B20140CB184D
:1042F0000136002AF6DBFF211800FF250840DA0905
:104300006D002A40451C52199200A41A1B0A19403C
:10431000220023F036F9FFF7B6FB00217F22337825
:10432000C90118005BB2104041180136002BF6DBC2
:10433000FF22CB0952001340CAB29B189B00E41A1B
:104340000C3C22000120C7E70F2206ABD2181378DD
:10435000002B00D13AE601210A9B5B680B401370E9
:104360000A9B0C3B0A9331E654000300B80D03008E
:10437000FFFFFF3F0A9B5B6813420ED003220A9B9C
:1043800021685B6893431C0059609A600A9B08345B
:104390001E680A9B0C3B0A9380E50A9B0C3B0A9320
:1043A00015E66B78022B03D1043C2068FFF7D8FA9E
:1043B000002BFAD10A9B039A934203D29B499C4853
:1043C000FFF71FFB9868002801D0FFF7C9FA0C3BE4
:1043D000F1E7231F0593079B0193002B1BD00021BE
:1043E000079B07910193019A0BAB201F006804F013
:1043F0002DF9012813D12E000B9B236009F020FD1D
:104400000F2306AA9B181A780A9B7E601343BC6090
:10441000FB600120E4E50BAB019A2168E5E7002889
:1044200012D10B9B043C002B00D1824B2360019BDB
:10443000002B19D08049180023F079FE002813D0F2
:1044400009F0FEFC019BD6E57C490B9823F06FFE3A
:10445000002805D00B9807F041FF043C2060E6E7F8
:1044600009F0EEFC0B9BC6E5059CFFF780FA0020E7
:104470007F223378C00119005BB211400818013661
:10448000002BF6DB251F2A68216804F077F9FFF777
:1044900028FB00217F223378C90118005BB210404D
:1044A00041180136002BF6DB250001CD04F078F928
:1044B000FFF7CAFA2068251F23F07EF8FFF705FBF7
:1044C000AF2B05D80120803B5B000343FFF74DFA7B
:1044D000BF2B04D8B022D31A9B00FFF78BFACF2B47
:1044E00004D8C022D31A9B00FFF70AFBD62B06D8AC
:1044F000D03B1800216803F06DFCFFF7C4FAFA2BDB
:1045000008D8251FD73B18002268296804F006FA4E
:10451000FFF7E7FA4A494B4823F0FFFD040009F092
:104520008FFC049B04339B00FB185C60022057E562
:104530005E2B0BD1BC680D98231DBB6007F0CEFE2F
:1045400060607B6801337B60FFF7F8F90D9B3E4AA2
:1045500093422AD03D4A934227D03B68986824F082
:10456000D2FA24F0D0FA7B68051D28005C1B24F0E9
:10457000C4FA0600280024F0C6FA050024F0BDFAAB
:10458000A41B0600280024F0BEFA050024F0B5FAAA
:104590000190280024F0B7FA01220378002B1ED1E5
:1045A000330001990D9807F03BFF0F23012106AA64
:1045B0009B181A78002A29D10A9A039991422DD87A
:1045C00001221A700A9B02321B687B600A9B0A99BF
:1045D0005B6893430D9A04338A601A6025E559B2EB
:1045E000002909DB19001F255B09294001308C4295
:1045F000D6D3641AD218D0E70F21E0251940ED0078
:104600001B012B40457802302B43F0E70A9A526891
:104610000A401A700A9A0C3A0A92CAE7049B0D9A49
:1046200004339B00FB185A6080E7C0465892030091
:1046300018000300B80D030048FD020054000300F9
:104640003E92030064FF0200C0FB0200D0FB0200A8
:10465000F7B5254B00261A68244B94461B78191D84
:104660004900501807008C5A51886405640D4C436A
:104670001F49A412096801967878C0081F2822D023
:1046800001258540A1272800A025FF00ED05013365
:10469000E851DBB2181D400015182F00855A5088CC
:1046A0006D056D0D68438012001BE5D00F4A137035
:1046B000019B002B01D00E4B1960002E02D06246E8
:1046C000094B1A60FEBDA0200A4B5468C005C450B7
:1046D000002902D10B000C00DCE701268C460A0001
:1046E00001960021F6E7C0466C010020D92D00207C
:1046F000700100200C05000010B572B600220F4BAF
:1047000018681A6062B6904211D10D4B0D4A1B68B1
:104710000D48934200D010001A78002102705A8888
:1047200042805A68426008221C78A14200D310BD22
:104730009C5A013184520232F6E7C04670010020D3
:104740006C01002074010020A4010020044A054BE4
:104750001A600023044A1360044A13707047C0466D
:10476000B8DA02006C01002070010020D92D002071
:1047700010B5782202490220FBF792FE10BDC04618
:1047800051460000421E084BFF3A10B504009A4201
:1047900007D8FFF7B1FF054B2411448018600020B3
:1047A00010BD01204042FBE740410F007001002096
:1047B000044B1B68002B01D1034B1B685888000178
:1047C0007047C046700100206C0100203C4BF7B5DB
:1047D00004000D00994200D91D008023DB005B1B03
:1047E0000193FFF789FF0122A2404668009216421A
:1047F00007D12300A0210327C133FF339B00C90544
:104800005F50002703789F4206DB002D01D0132B59
:104810000BD92C4B1860F7BD391D4900421852784E
:10482000D208944242D00137EDE7009A191D324375
:104830004260019A490055050A5A6D0DD20AD2020A
:104840002A430A525205E400520F4118144301331F
:104850004C7003700122851C03789A42D9DA2F002C
:10486000131D5B00195A2E894905490D531E1C1D45
:104870006400245A6405640D8C4204DDFC88023F08
:104880007C81013BF3D205335B001E5201320235BD
:10489000E2E7009A013BDBB2964303704660BB42FD
:1048A000D8DD04335B001B5A0B52D3E7002DF0D048
:1048B000019B5A050B5A520DDB0ADB021343F3E747
:1048C000FF0300007001002070B500210400FFF715
:1048D0007DFF00210D4B18680578A94200DB70BDF3
:1048E0000B1D5B00C3185A78161CD208944201D0E5
:1048F0000131F2E70822524232435A700123A021CB
:10490000A340034AC9058B50E9E7C0466C0100206B
:104910000C050000F0B50E00002485B01100070062
:10492000039322000D4B300000940AF055F9B01C9F
:10493000800021F030FE050007604660B44202D1DD
:10494000280005B0F0BD039BA700D859002103F053
:10495000A9FBEF19B8600134F0E7C046FFFF000083
:10496000074B5B69002B01D1180006E05A688242B0
:1049700004D8801A04308000C05870471B68F1E7E3
:10498000942E002070B5144D04006B699868DB68A4
:10499000834215D30230C00021F00AFE6B69002863
:1049A00003D19868400003F09BFF5A68D968036000
:1049B0009B6852185B00836000234260C36068619B
:1049C0006A69D3685068591C04339B000138D16070
:1049D00040189C5070BDC046942E0020074B4118D3
:1049E000884204D3D8B2002800D1013070475A0160
:1049F000D318027801305340F2E7C0460515000095
:104A0000034B044A5A6100229C331A607047C04627
:104A1000942E002024DB0200F0B585B001900E003A
:104A2000FFF7DCFF144B02905C69002C01D12000E1
:104A30001EE0270010373D00E3689B00FB1803933E
:104A4000039B9D4201D32468EFE72868029A03780C
:104A50009A420FD143789E420CD102303200019924
:104A60001EF07CFE002805D1ED1B6068AD102818F3
:104A700005B0F0BD0435E3E7942E0020F0B585B015
:104A800003900191FFF7C8FF002862D1324D019BCE
:104A90002F009C37DC1C3B68002B18D02E002F4ABF
:104AA000A036126831680292A2188A420FD9020019
:104AB0006118180021F09AFD0290002822D1274B9E
:104AC00002001968386821F091FD029B3B602B00C1
:104AD0009C331B68002B20D12600802C00D280261E
:104AE00030002F0021F064FD9C37386000280DD184
:104AF000200021F05DFD26003860002806D120004E
:104B000003F0EEFE33681B193360E0E72B00A0339F
:104B10001E602B000022A4331A602B00A4331A68F5
:104B20009C352D68A41801990398AD181C60FFF7F7
:104B300055FF6B461B7928706B70019AA81C03996E
:104B40001EF032FE0022019B2800EB189A70FFF73E
:104B500019FF05B0F0BDC046942E0020382F00206C
:104B6000F7B51D0016000023070003600B603360DB
:104B70002B60174B00915C69002C02D0154B9C42B6
:104B800004D133682A68D3182B60F7BD3B68013322
:104B90003B60E268009B94461B68009A0193634463
:104BA00013602200E36810329B00D3189A4207D3A7
:104BB000200001F00FF92B68246818182860DBE743
:104BC00002CA30684978033009183160EEE7C04600
:104BD000942E002024DB02000C4B70B55C69002C85
:104BE00002D00B4B9C4200D170BD2600E36810360A
:104BF0009D007519AE4201D32468F0E704CE054943
:104C00000232054823F02CFEF4E7C046942E002023
:104C100024DB02007D920300B0050300002803D0CE
:104C2000012807D0002004E08B680448002B00D145
:104C3000034870478B685B001843FAE7B809030024
:104C4000B0090300034B48600B60002308008B6031
:104C5000CB60704770E902007FB5040001220800B4
:104C600001A90AF0EBFA00222179402007F080FC2C
:104C700001000500029817F025FD636806001A0A76
:104C8000904217D9A368C1186943E06821F0A1FCDC
:104C90002379E0602A00A06863606843E368724398
:104CA000181801991EF080FDA36805489E19A6609A
:104CB00004B070BD121A1202DBB21343EAE7C04619
:104CC000B80D0300F7B5FF27456804000191BD4307
:104CD0001DD101792A00402007F04AFC63680600D4
:104CE0003B408027A1683F011F4308314143676073
:104CF000E06821F06EFC6368E0601A0AA368013A7C
:104D0000013372435E43290080191EF0DFFD2079D4
:104D1000019BA268E16807F08FFDA3680348013397
:104D2000A3606368013BFF3B6360FEBDB80D0300F9
:104D3000F8B5002207000D000100402007F018FC24
:104D40000600102021F027FC074B0400012F00D0A3
:104D5000064B28002360FBB2A5607043636021F01E
:104D60001AFCE0602000F8BD08EA0200CCE902006D
:104D700070B506008AB00C00150012285CD003D86C
:104D8000052826D0002454E01B2800D16CE01F2801
:104D9000F8D1012207A9280024F006F803230028EF
:104DA0004FD01C4213D13B4B22689A420FD10122B3
:104DB00004A9200021F0ACFB0123079A0093059978
:104DC000089B049822F08FFF334C002831D1334CDC
:104DD0002FE0012204A9200021F09AFB28000122E3
:104DE00007A90AF02BFA069B002203936B4640208A
:104DF000197B07F0BDFB01000600089817F062FC64
:104E0000069BA16803936B4641180500187BFFF7CA
:104E10008FFF059B04001A000499C06803931EF0DD
:104E2000C3FC2A000598E3687243181807991EF01E
:104E3000BBFC20000AB070BD11002000FFF70CFF82
:104E4000F7E7EA070DD41D4203D1154B2A689A42B1
:104E500007D003232B40022BB9D1124B1D40062D46
:104E6000B5D0114803F040FF012204A9200021F031
:104E70004FFB012207A9280023F096FF0028A6D0A7
:104E8000089B059A00930499079B300021F0F6FBDC
:104E90009AE7C04608EA0200B8090300B009030017
:104EA0008CEB0200070080FFC3C70300F0B50500CC
:104EB00087B00E00012808D08B0726D10B68264A40
:104EC000934202D0254A93421FD1012203A9300008
:104ED00023F06AFF002818D000222900402007F0A4
:104EE00047FB01000700049817F0ECFB06000100E7
:104EF0002800FFF71DFF320004007A430399C068C1
:104F00001EF052FC200007B0F0BD30000AF0F6F8A9
:104F1000071E00D0471039002800FFF709FF0021C5
:104F20000400300003F0BEF800260090009803F063
:104F30001BF9031EE6D0002F04D119002000FFF753
:104F4000C1FEF3E7721C0192E1683200280007F00D
:104F500073FC019EEAE7C04678F4020008EA02000A
:104F600070B50E7904000D00012E0DD1194923F002
:104F7000AFFB3300AA68E968200005F0A9F81649DC
:104F8000200023F0A5FB70BD3200144923F068FC1B
:104F9000AB68002BF3D01249200023F099FB0026C8
:104FA000AB689E4204D30F49200023F091FBE6E753
:104FB000002E03D00C49200023F08AFB3200E96860
:104FC000287907F0FDFA01220100200009F0ACFE6B
:104FD0000136E5E788B603002ACC030094B6030047
:104FE0009FB603005D900300A3B6030070B50500F3
:104FF00086B0161E44D003240C402DD1214B0A68E4
:105000009A4229D103AA806800F030F9002802D121
:105010001D4803F069FE2000042E1BD122002979CF
:10502000402007F0A5FA049B06000093039B287913
:105030000193019A009B991AFFF77AFE04000399E5
:10504000049AC068521A71437243EE6871181EF0D8
:10505000ABFB200006B070BD0A000023A9682868D9
:105060000AF00AF802002879042E03D1E96807F053
:10507000A7FAEFE73300E96807F0DEFB0348E9E74A
:105080001000E7E744EA0200A6B60300B80D0300EB
:1050900037B50C00110000221D00009201232000F2
:1050A00009F09AFD002C04D121000120FFF740FEF9
:1050B0003EBD2968CB0705D48B0713D10B4B0A687B
:1050C0009A420FD1080009F0FFFE010005000120FF
:1050D000FFF72EFE04002A000021C0681EF0F6FB38
:1050E0002000E5E70120FFF7E1FEE1E78CEB02009D
:1050F00070B504000D00104923F0EAFA6968012236
:10510000200009F011FE0D4E2000310023F0E0FADE
:10511000A9680122200009F007FE3100200023F0D9
:10512000D7FAE9680122200009F0FEFD04492000B9
:1051300023F0CEFA70BDC046D7B60300A3B6030075
:105140002ACC030070B5060010200D00140021F0D9
:1051500022FA034B466085600360C46070BDC046A0
:1051600044EA020010B50C0023F07DFD631E1842D6
:1051700007D0020023000349034807F0E3F808F0D2
:1051800067FE10BDDEB603008001030010B54A685B
:105190000249D20023F064FB10BDC04606B70300ED
:1051A00070B50B0004001500101E0FD061681800C8
:1051B000042A0ED1FFF7D6FF6368012B03D0022B20
:1051C00005D0006800E0007823F010FD70BD008875
:1051D000FAE7FFF7C7FF0600280009F0A1FE6268A2
:1051E00003000548012A03D0022A03D03360EDE70B
:1051F0003370EBE73380E9E7B80D0300184BF7B5E0
:1052000030CB0F00160001281AD94B68154A93427B
:1052100007D0990711D114491C688C420DD11C008C
:105220001D0002280CD0BB68934209D09A0704D114
:105230000D4A19681C00914202D0002003F026FD9F
:1052400001A9386805F036FC019A010000231020FE
:1052500023F064FF2A003100230003F00FFBFEBDA2
:10526000942E0020B80D0300700F0300F0B585B038
:1052700005001600080003AB02AA01A921F083F97A
:105280000398364FB84209D0032807D009F01CFE16
:10529000B060002804D1324803F038FB0123B3602A
:1052A0000198B84229D10024B368A34200DC6C1EE7
:1052B0000298B84225D1B368002B47DD2800002CA6
:1052C0002ADA641901D5B368DC17002834DA4019EA
:1052D00001D501204042B368002B00DA0130B368E9
:1052E000002B2DDDA04200DA2000013B7060584207
:1052F0005841C0B2346005B0F0BD09F0E5FD0400CE
:10530000D6E709F0E1FDB368002801DBDA0F801869
:10531000002CD6DB002B03DDA542D6D22C00D4E72F
:10532000002BD2D0A54200D86C1E002804DA401908
:10533000D4D501204042D1E78542D0D22800CEE723
:10534000002BD2D0A042D0DD601CCEE7002C01DAC9
:105350000020B6E700208342E4D1C0E7B80D030087
:1053600016B70300F0B5060085B017001B2805D15D
:105370000A9A974209D0002005B0F0BD19281AD02A
:105380001C281AD00A9A0A9717001A000B0011005D
:105390000A9A0192BA4200D901971D000C0000231D
:1053A0000093009B019A934209D10A9BBB4220D0F3
:1053B000E1D30120E0E71A26EAE71D26E8E7029597
:1053C000039401CD02CC09F02DFD002802D0009BF2
:1053D0000133E5E71B2ECED0039B30001A68029BF9
:1053E000196803F09BFA044BC01A43425841C0B2FB
:1053F000C2E71A2EDDD1BEE7B8090300F0B51E00E2
:1054000085B0039018680D00170009F075FC7368EB
:10541000019002930024022F0ED90123B2682900C3
:1054200009F02AFE0400032F06D029000123F268A8
:10543000019809F021FE0500A54202D8084803F0B2
:1054400065FA039AA3000299D05809F0EBFC0028F2
:1054500001D10134F0E701206400204305B0F0BD24
:1054600030B70300054B10B59A6C002A04D0002217
:10547000986C9A6408F0ECFC10BDC046942E002095
:10548000F0B5486887B00F0009F01EFD041E02DA6F
:10549000002003F03BFABB68164A01939D186B1E6F
:1054A0009D41010002A81FF005FE049E220000217C
:1054B00030001EF00BFA3868EDB2C3070AD433008F
:1054C0002200290023F05EFB02A90B4804F064FED1
:1054D00007B0F0BD43102000042C00D90420074978
:1054E000019F00228F4200D0221AB218290022F018
:1054F000B3FEE9E70AE8FFFF78F40200F6170000C0
:10550000F0B50C0087B0012203A9606809F096FE8F
:10551000A3681349039A8B420DD101260499764260
:105520004C1E01911419049900200D00002D05D185
:1055300023F077FB0DE014000126F4E7094F013D4D
:10554000B84208D908481B18581E8341D8B223F026
:105550000AFB07B0F0BD277800023843A419E5E73D
:10556000F6170000FFFF3F000AE8FFFF70B5460096
:105570007408051C211C201C18F0C8F9002829D12A
:105580001649201C17F078FA00281DD1002D0FDADB
:10559000002E06D0FF23DB05EB189C22D205934298
:1055A00009D8281C18F0CAF901244000204370BD16
:1055B000EB0DDB05F1E708F0FFFE0400291C0430C9
:1055C00024F031FA2000F2E70549064822F0A5FD53
:1055D00008F03EFC044803F099F9C046FFFF7F7FC6
:1055E00057B70300DCFF020070B70300F0B50C00F2
:1055F000002585B0110020001E00009502232A001E
:1056000009F0EAFA0120AC422BD0844231D1306853
:10561000204226D103230340AB4203D11C4A016838
:1056200091421ED01B4A0240062A06D0002B0DD103
:105630000268194B92699A4208D103A905F03AFA17
:1056400000231A00039901F071FF0AE0032302000E
:105650001A40022A07D1FF22D20580189843FFF78B
:1056600085FF05B0F0BD09F02FFC01234000184371
:10567000F7E703A9306805F01DFA04007068039F7E
:1056800009F022FC2B00020039002000DBE7C046B5
:105690008CEB0200070080FF5DB00000F8B51F0032
:1056A0000B4B150059180139097817F00BF8002633
:1056B0000400B74204D00130032117F003F80600BC
:1056C000281E01D01EF0CAFB0334A4192018F8BD0F
:1056D00047B70300F0B58DB00A9214AA147815AA42
:1056E000127806000F000792DA0748D55D100023F4
:1056F000002D01DA2D236D420693139A079B129910
:105700002020FFF7CBFF3A680590904204D920F0A3
:1057100042FF059B30603B6000213768059BFB180A
:105720005A1E11708D4246D00A3C099208920B9481
:105730001299280017F04CF80C002800129916F066
:10574000C1FF23003033092C01D90B9B1B19089A88
:10575000541E2370079B002B4BD000282ED0A7424D
:105760002CD2099B1B1B032B06D16B461B7F013CD4
:105770002370A74222D2099405000894D8E79A071B
:1057800012D1244A196891420ED1079A02940392C9
:10579000139A39000192129A00920A9A23F0B9F9E9
:1057A000040020000DB0F0BD0023326813700A9A87
:1057B00034681360F5E79C1E30232370139B002B85
:1057C00006D018001EF04AFB0023201A874217D388
:1057D000069B002B05D0BC4203D96B461B7E013CC7
:1057E00023703368059A9B181B1B0A9A013B1360B0
:1057F000D7E7A742E2D20028BED1DFE7C254013387
:10580000139AD25C002AF9D1069B0400002BE4D144
:10581000E7E7C0468CEB02001300144A10B5040001
:10582000934204D10122200003F078F810BD104A01
:10583000934201D10322F6E70020072CF6D10D4A4E
:105840001A40062A0ED09A07F0D11A680A4CA242D2
:1058500008D00A4CA24205D0094CA24202D0094C01
:10586000A242E3D10A0007201900DDE7B0090300D6
:10587000B8090300070080FF040A030078F402005F
:105880002003030034110300F7B52D4FB4370197FF
:105890002B4A2C49FC32536C8B4200D8F7BD0325B0
:1058A000043B53641A68264B501CAC331E6804003A
:1058B0008108715C2C4064002141831A2940013029
:1058C0000229F4D003260199120109681B018A18E4
:1058D0001B499B08002BDBD00F201468044229D100
:1058E00019480068844225D30D00B8352D68AC42B4
:1058F00020D2241A200900900800AC300068A409C6
:10590000009D0419207835406D00844628413040C0
:1059100001280FD13700AF403D0067463D43257059
:105920000D00FC356C6C094FBC4206D2201D68642A
:1059300000982060013B0432CCE70C00BC34F8E74F
:10594000942E0020542F0020482F0020D42F002018
:105950000F23994370B506000D00081A412116F077
:10596000B1FE114C02002300B03318602300210067
:10597000AC331E608301EB1AB4310B60230030009E
:10598000B83300211D601DF0A1FFA22100220120DB
:10599000230049006252023160524839FC33FF391A
:1059A0005A651965DA6470BD942E0020A22203495D
:1059B00052008B5A01338B527047C046942E002000
:1059C000A222034952008B5A013B8B527047C046BA
:1059D000942E0020A223034A5B00D05A431E984114
:1059E000C0B27047942E0020F7B500240325009024
:1059F0000191019B9C4200D1F7BD009AA300D158B0
:105A00000F23194229D1184B1A00B432126891425F
:105A100023D31800B830006881421ED2891A1A00B8
:105A20000F093800AC321268890951180A782840E9
:105A30004000944602412A40012A0ED12E008640A1
:105A400030006646304308701800FC30416C074E49
:105A5000B14206D20B1D43640F60FFF715FF0134FE
:105A6000C7E7BC331A60F8E7942E0020D42F00203B
:105A7000A22210B508485200835A01000133835214
:105A800003000022FC33BC310A60DA64034A272198
:105A90005A64FFF7A9FF10BD942E0020542F002058
:105AA000F8B503262E4C00252200BC321368AB4209
:105AB00013D102221900032794462200B032126843
:105AC000920091422AD323000022FC335A654532CA
:105AD000FF32A35A013BA352F8BD23001560214AAF
