:020000040000FA
:100000000040002001B801003DB801003FB80100E8
:1000100000000000000000000000000000000000E0
:1000200000000000000000000000000041B80100D6
:10003000000000000000000043B8010045B80100C6
:1000400047B8010095E8000049BF010047B801002A
:1000500047B801000000000001B9010047B80100E5
:10006000D9B50000B5C40100BDBD010047B801000D
:1000700047B8010047B8010047B8010047B8010080
:1000800047B8010047B8010047B8010047B8010070
:1000900047B80100B1B401007DB5010015B70000FB
:1000A00025B7000047B80100000000000000000074
:1000B0000000000000000000000000000000000040
:1000C000054B0648033310B51B1A062B03D9044B06
:1000D000002B00D0984710BD180100201801002007
:1000E000000000000648074910B5091A8910CB0F17
:1000F0005918491003D0044B002B00D0984710BD6D
:1001000018010020180100200000000010B5074C65
:100110002378002B09D1FFF7D3FF054B002B02D02A
:10012000044800E000BF0123237010BD200100201F
:100130000000000094E90300094B10B5002B03D028
:100140000849094800E000BF08480368002B02D1B5
:10015000FFF7C8FF10BD064B002BF9D09847F7E713
:10016000000000002401002094E903001801002091
:1001700000000000144B002B00D1124B9D46402282
:1001800092029A1A924600218B460F461148124A53
:10019000121A23F0CBFB0D4B002B00D098470C4BD1
:1001A000002B00D098470020002104000D000B48D0
:1001B00023F0C8F823F082FA200029002CF075FA09
:1001C00023F0DEF8000008000040002000000000DE
:1001D0000000000018010020F82F0020F93502006F
:1001E000A3230021024A5B000248D1527047C04657
:1001F000982E0020F8D30200A3230121024A5B00BD
:100200000248D1527047C046982E0020F8D3020011
:10021000A323044A5B00D35A0348002B00D10348B0
:100220007047C046982E002060F5020058F5020085
:1002300010B510F00DF8014810BDC046F8D302000B
:1002400010B50C4C002808D1FC34236D18005A1C42
:1002500002D0180129F044F810BD086807F0E8FA48
:10026000FC34031E044803DA01235B422365F3E7F1
:100270001B09FBE7982E0020F8D3020000487047C6
:100280000148E80110B507F0D3FA80F3108801485F
:1002900010BDC046F8D3020010B50400082025F0B8
:1002A0003DFF024B4460036010BDC0469CCC020081
:1002B0000021F0B5070087B0816424F02FFFFB69AF
:1002C0003C6ABB637B6AFC63002B05DA3A000621BB
:1002D00040321170013306E0002B07D03A000521AF
:1002E00040321170013B7B6207B0F0BD002833D073
:1002F000BB6A002B30D13900043340310B703A6BAC
:10030000AD4B786BD3185B001B5A013C9C42EBD081
:1003100017D9F96A8A4207D30831490025F01CFF32
:10032000FB6A78630833FB623B6B5A1C3A637A6B57
:100330005B009C527B6ACDE7013B3B637B6A013BE0
:100340007B623B6B9C4A9A185200125A9442F3D338
:10035000CAD002230B70C7E73C69631C03D100229B
:1003600040373A70C0E7380024F07DFE0490002842
:1003700000D127E13B00403305930023059A137019
:100380003B69752B5AD0622B07D17B69722B5CD0ED
:1003900001240B230022019208E0722B51D17B69CA
:1003A000622B52D0049B012401930A23390040316F
:1003B0000A78002A4ED10B70002C07D0380024F0A8
:1003C0007DFE022C02D1380024F078FE3B690293B6
:1003D000222B01D027230293380024F06FFE012343
:1003E000029A03933B6993420BD113007A699342BB
:1003F00007D1380024F062FE380024F05FFE0323AA
:10040000039300253E69731C00D1CBE0039B012BB5
:1004100002D10A2E00D1C5E0039B9D421DD33800B6
:100420002900443027F0C0F80121380024F076FE7E
:10043000380024F018FE0028A2D155E701240A2331
:10044000A8E700240A230194B0E7049B0224019347
:100450000B23ABE79342AFD046E7029BB34209D1EF
:1004600038001900443001350DF028FA380024F026
:1004700025FEC7E7F1B25C2E00D08EE0380024F0F4
:100480001DFE019B3C69002B05D038005C214430E7
:100490000DF014FA49E0622C00D1ACE130D84E2CBA
:1004A00073D01BD8222C4BD0272C49D000250A2CE6
:1004B000DCD0200030380728E7D8040003257B690A
:1004C000303B072B31D8013D002D2ED0380024F0D1
:1004D000F5FD3B69E400303B1C19F0E75C2C2FD0A4
:1004E000612C00D18DE1552CE3D13B0040331B78CA
:1004F0000B2B35D138005C2144300DF0DFF91FE0C3
:10050000742C00D179E107D86E2C18D0722C25D02C
:10051000662CCED10C2413E0762C1DD0E5D3022519
:10052000782CC6D10024013D1FD20025631C9DD02C
:10053000224B9C4204D90122059B1A700AE00A242E
:100540003B0040331B780A2B22D138002100443075
:100550000DF0B4F9002589E70B24F1E70D24EFE74E
:100560000825752CDED1043DDCE7380024F0A6FD1B
:100570003E69300000F0F2FA002800D136E1300088
:1005800024F0AFFE24012418CDE70D4804F0D0FC80
:10059000FF2CD0D8E1B20B2BCDD13800443026F05F
:1005A000BFFFD7E7039B9D4200D338E73B00032200
:1005B00040331A7033E7C046FFFFFF7FFFFF100094
:1005C0006B530300200000F0B1FA041E386903D118
:1005D0005F2801D07F2841D93D0007233C004035EA
:1005E0002B704434C1B2200026F09AFF380024F06A
:1005F00065FD3869431C1BD1200026F07FFF0024D5
:100600000600814FA300D959300023F013FC0028C5
:100610001DD10D34E4B22C70102C00D064E67B4B5D
:10062000A8331A680D23002A00D102332B705BE631
:1006300000F07CFA002808D138695F2805D07F28AF
:1006400003D800F07FFA0028D6D0397CCBE7002809
:1006500000DA49E60134222CD4D145E600F072FAE2
:10066000002818D13B692E2B10D000250223684C9E
:100670002678002E02D03A69B2425FD1380024F0C9
:100680001DFD002E63D1403701226AE6786900F033
:1006900059FA0028E9D03E00396940362E290AD19E
:1006A000092333703D00443528000DF007F9380068
:1006B00024F004FD25E0082333703029F2D17A6953
:1006C00018331343623B162B03D8524CDC400123F2
:1006D0001C4001231C40E5E7002C16D1652801D001
:1006E000452812D109236521337028000DF0E6F862
:1006F000380024F0E3FC396902220B002B3B9343C2
:10070000D2D03869431CE7D1EEE500F00FFA00289B
:1007100005D039692E290BD109233370C4E7386914
:1007200000F010FA0028F4D13B692E2BF1D0DBE564
:100730000B00202293434A2BB6D1EDE7633E9E4344
:10074000F2B256425641A4190135013490E7212EE8
:1007500008D13B693D2B96D1380024F0AFFC4037DF
:100760004122FEE52E2E10D13C003B6940342E2B59
:1007700045D17B692E2B42D1380024F09FFC3800F4
:1007800024F09CFC0C232370AEE52A00013426786B
:1007900002213300633B8B43DBB2002B0ED1637825
:1007A00039690135994207D1380024F087FC2A00C5
:1007B000652E03D00234EAE7632EFBD1164B9B5C17
:1007C0003A0040321370190004229143422901D0AB
:1007D000442B03D1BB6A0133BB6285E5432902D0B8
:1007E000452B00D080E5BB6A013BF5E70122059B64
:1007F00004001A70A4E60824A2E60924A0E64A230D
:10080000C1E707249CE6C046D8CC0200982E002001
:100810002A53030001204000FB5303000023F0B5DE
:100820002F4F91B0040004A83B600E00150007F0A4
:10083000FBFD031E38D1EA0630D56268A16811209D
:1008400024F0DCFC320001260468010001A805F058
:100850003DFBAB0821003340002201A811F086FFC8
:100860000400032003F0F0F9200025F08AFC0120A9
:100870002C00404203F0E8F9344007F0F3FD002C6F
:100880002BD0310017480AF0F1F901210D4202D0B6
:1008900014480AF0EBF9200011B0F0BD2000AB06BF
:1008A000D0D528F002FECDE70120404203F0CCF97C
:1008B00001210D4202D00B480AF0D8F9059806F044
:1008C000CFFE09490FF012F9041E01D03C68DCE7A5
:1008D0000599064806F000FFD7E73400D5E7C04683
:1008E0004001002025540300A8370300E817030047
:1008F00010B586B0202102A8802426F0B1FD640046
:100900001E4826F022FB00231D48039326F01DFB02
:100910000AF094F90128F3D002280BD1194826F0E7
:1009200014FB02A826F0BEFD01220020164B1A700F
:1009300006B010BD032802D100230393E8E7042882
:1009400004D0C1B202A826F0EBFDE1E70F4826F083
:10095000FCFA039B0193002B08D10A4826F0F5FA14
:1009600002A826F09FFD80204000E1E7112201212E
:1009700002A8FFF753FF2042C5D0D9E70655030070
:10098000F0AA03001C8A0300D800002021550300B0
:1009900030B587B0202102A8802526F061FD6D00CA
:1009A000394826F0D2FA394826F0CFFA384826F0EE
:1009B000CCFA0024374902A803942AF0DDFA012872
:1009C0000AD1354826F0C1FA02A826F06BFD2000B6
:1009D000324B1C7007B030BD022803D12E4826F0E0
:1009E000B4FADDE7032801D12B48E0E7042808D159
:1009F000294826F0AAFA02A826F054FD80204000DB
:100A0000E8E7052827D1264826F09FFA03940AF044
:100A100015F96B46C1B2DC1D21700329E4D004290D
:100A20000AD11D4826F091FA0121162202A8FFF7EB
:100A3000F5FE2842BDD0CDE702A826F071FD23784F
:100A40000D2B03D1174826F080FAE0E701212000A2
:100A50000AF00CF9DBE7039B002BAAD002A826F0D2
:100A60004DFD15F0EBF800280BD00A2102A826F066
:100A700057FD0D4902A82AF07FFA0328B4D00428B4
:100A8000ECD10021D1E7C046275403008154030074
:100A90009F540300C55403001C8A0300D8000020A3
:100AA000CA540300FA5403000155030030B5174B34
:100AB00085B002AC0431013801940093022317F091
:100AC0004FFC029825F025FF6468631C1AD045B2DC
:100AD000142028F005FC0100002005F043FE2B0047
:100AE000A0220321C133FF339B00D2059950E1219D
:100AF0002D34A002C900001B1BF09EFE010028003F
:100B00000FF0C4FC024805B030BDC04610CE020054
:100B1000F8D3020000237F2803D8034B1B5C9B07FC
:100B2000DB0F18007047C0462455030000237F28C0
:100B300003D8034B1B5C1B07DB0F18007047C04634
:100B40002455030000237F2803D8034B1B5C5B075D
:100B5000DB0F18007047C0462455030000237F2890
:100B600003D8034B1B5C5B06DB0F18007047C046C5
:100B70002455030000227F2808D8054B0132195C58
:100B80000C23194202D15F384242424110007047A3
:100B90002455030000237F2803D8034B1B5CDB068E
:100BA000DB0F18007047C0462455030000237F2840
:100BB00003D8034B1B5C9B06DB0F18007047C04635
:100BC0002455030073B501A90BF0CCFE019B060070
:100BD0001748502B17D88020400025F09FFA154C5D
:100BE00005002300943318600023019A93420CD12E
:100BF0005B222800EA540EF033F82B00002808D1BD
:100C0000943420600C4803F0A5FFF15CE9540133F3
:100C1000ECE75A1B0133591E09789B29F9D12900A9
:100C2000064826F0A2FA00239434236076BDC0461D
:100C3000B3550300982E0020C155030068E202005E
:100C4000F0B58BB00600080011001A0010AB1F7839
:100C5000324B05AD01950093052317F081FB9120E0
:100C6000000125F05BFA2E4B04A9186002AB1B7B38
:100C7000476043702B792B4F03702B7A04008370ED
:100C80002B7BC3702B7C30003B600BF06BFE002590
:100C9000254B03900C201D6025F040FA234B0600E5
:100CA000036000F085FCB06000F082FC204B214A1C
:100CB0001860214B11001D70204B70601D70204B7F
:100CC00030001D602B0000F049FB2000049A0399BE
:100CD00026F03DF8200008F079FC0400A84207D176
:100CE00000F042FA0E4B1C60164B186803F032FFFE
:100CF0000122154B1A7000F055FC0028FBD1134B54
:100D0000943318603B68002B04D00D4B10481968D1
:100D100022F06EFE07480BB0F0BDC0465CCE02006C
:100D20002C2F00203C01002048010020A8CE02000A
:100D300044010020F8D30200D82D0020D62D002039
:100D40004C01002018000020D72D0020982E0020F4
:100D5000A455030000220D4910B50B78DBB2934275
:100D600010D10B4A1478002C02D001240C7013709F
:100D7000084B1B78002B07D0074A136820331360F9
:100D8000064B1A68100010BD8268FBE7D62D0020C4
:100D9000D72D0020D82D002048010020440100203C
:100DA000D2235B005843134AF0B51368000C9842F5
:100DB00006D2114C2368013323601368203B136073
:100DC0001F23050001270D4E9D431468A5420BD833
:100DD00003401A1D202A00D92022094C246893427E
:100DE00004D3084B1860F0BD3770EEE7E5182971A1
:100DF0000133F4E7480100204C010020D82D0020E9
:100E0000440100205001002001220020074B084926
:100E10005A600860A821DA60064AC9005A5006499B
:100E20005A5004315A5005495A50704700A00040AA
:100E30000CAC0040FCFF0000440500004C05000025
:100E4000034B04481B78002B00D103487047C04671
:100E5000DA2D002060F5020058F50200F8B5A8264A
:100E6000324A334BF600196813680420CB18C918AE
:100E70001160304A8C4612781B11170009112E4A56
:100E80002E4C2F4D002F48D0002B3ADA9051C31A28
:100E9000A920C000135081239B00002937DA591A7A
:100EA000135151510123274CD3602378002B22D0BA
:100EB0003F222548254B01688C331B6801310A40CD
:100EC0009D5C1C4B1B78002B01D0803D6D001C23CA
:100ED000026062466B4308339B1A154A9B101360ED
:100EE0001F23194007D11A4B1A78002A03D019483A
:100EF00019700AF027FC0123227804205340237044
:100F0000F8BDA9270433FF00D0519351C3E75351D3
:100F100081239B00C9181151C4E7043390515351E8
:100F2000A9208123C0009B001350F3E75401002047
:100F300064010020D900002000A000404C05000002
:100F400044050000D92D002058010020982E0020D3
:100F5000DA0000209753020030B585B0012204006A
:100F6000080001A906F01EFE029A202A00D92022BC
:100F70000023019D934204D0E85CE118087101331D
:100F8000F8E7014805B030BDF8D3020070B50400A1
:100F90000800150006F04CFC1F2802D90C4803F08D
:100FA000D9FD002D02D10B4803F094FF2418042D25
:100FB00004D1012023795B00184370BD280006F09E
:100FC00037FCFF2801D90448E9E720710348F4E71A
:100FD000095603001D56030033910300F8D30200A5
:100FE0000123A022834010B5134CD20513510300F6
:100FF000C133124CFF339B009C50114B8900C91820
:10100000A223DB00CA580F4C00022240CA50F8222B
:1010100052011040C022CC589202224310430322B6
:10102000C850CC58084822432043C850C046C04648
:10103000C046CA5010BDC0460C05000003030000A6
:1010400000600040FFE0ECFF031F0000A0221E2113
:10105000114BD20070B59C58104D8C439C50A3246A
:10106000E4001D510E4C0F4D0F4E5C5104355E5186
:101070000E4D80005C51A5240D4DE4001D51084C1F
:101080000C4D00190C4C185104341D510B4C1851C7
:1010900098580143995070BD00F0014040A10040B4
:1010A000006000401C05000044A100402405000031
:1010B00048A100404CA100402C0500003405000070
:1010C00010B504000A4905F0D7FE0A4BA0211C60A8
:1010D00001236079084A8340C9058B500021FFF73E
:1010E0007FFF0020FFF7B2FF0022044B1A7010BDF3
:1010F000D0F202005C0100200C050000D9000020A5
:1011000070B50D000400134E2800310005F0B4FE48
:101110003100200005F0B0FE0F4BA0221C600F4BE9
:10112000D2051D60607901242100814026000C4B0E
:10113000D15069798E400021D650FFF751FF687970
:101140002100FFF74DFF2000FFF780FF054B1C70CB
:1011500070BDC046D0F202005C010020600100209A
:101160000C050000D9000020F8B50025FFF74CFE63
:10117000214B280090331D600AF0B2FAA0221E20F5
:101180001E4B1F491D701F4BD2001D601E4B1F4C74
:101190001D608B581E4F83438B50A223DB00E25807
:1011A0001C4E3A40E250E2581B493243E2500122C1
:1011B000E5501A4B186843799A401300A022D205D3
:1011C000535005F043FE164B1B78AB4213D0154B22
:1011D0001149E2581740E750E25816430122E65001
:1011E000E550114B186843799A401300A022D205AC
:1011F000535005F02BFEF8BD982E0020DA2D00206C
:1012000000F0014054010020640100200060004013
:10121000FFE0ECFF001F03000C0500005C01002054
:10122000D90000201405000060010020F0B53E4EFA
:101230008DB0330090331B680500002B03D1FFF7FE
:1012400093FF0DB0F0BD002801D008F0B5FA684654
:1012500007F0EAF8002822D133009033186803F031
:101260007FF8040007F0FEF8002D01D008F0AEFA78
:101270002E4B20221D6833006D118C3301356D011A
:101280001B6815405D19002C2DD1903621002800D7
:10129000346022F04BFB0122254B1A70D1E7002D60
:1012A00001D008F093FA019B224918680EF01EFC49
:1012B00000240500A042DBD1019F380006F0D0F9E0
:1012C0001D4B98420BD12900012016F0BBFA2A00D1
:1012D0000400F8601F2119480AF0ECFEA060019B91
:1012E0000024B364C4E7200006F0BAF9144B984216
:1012F00009D0330000229033124913481A6029F0B4
:101300007BF8B0649DE763682B60A3686B60E3685B
:10131000AB602369EB6063692B61A3696B61E3696F
:10132000AB61236AEB61B6E7982E002058010020DC
:10133000DA00002030370300C8350300D75503001A
:101340009CCF0200F7550300E437030010B5FFF708
:101350000BFF014810BDC046F8D30200F0B589B0BC
:101360000493724B03901B780E001500002B01D0E4
:10137000FFF7FAFE6E4C8C342368002B06D16C4AC2
:1013800040209032136024F0C9FE20608022694B17
:10139000D200DA670122684C684BE250FFF734FD57
:1013A0000023674AF021A3500432A3500832A3500F
:1013B000C22209039200A150624F093AFF3AA3509A
:1013C0000594BE4200D0A1E0B54200D09BE05E4D46
:1013D00007AC280005F044FD002805D001235B4937
:1013E0002800237005F048FD594D280005F038FD10
:1013F000002805D0012355492800637005F03CFD05
:10140000544D280005F02CFD002805D001234F493C
:101410002800A37005F030FDA0270024FF0507ABCE
:10142000E35C002B38D10134022CF8D1464805F09A
:10143000EFF9FFF745FE0021039802F057FF002562
:1014400001243F223A4B802190331860424B1D709B
:10145000424B1C70424B1A60354B12198C33186882
:1014600022F064FA2800FFF7E1FE3E4B2F4E1C608D
:10147000059B50221C603C49280034700AF0FCF89F
:10148000049BAB4250D02A4B3278002A4CD09A6C45
:10149000002A49D120BFF7E7344BA200D6580322D7
:1014A0007379651CC133FF339B00DA5107ABEB5CEA
:1014B000002B24D02D4BAA00D35801930423009372
:1014C000012273799A40A123DB00FA50019B053376
:1014D0001800029323F03FFF012810D17379984040
:1014E000234BF850029823F036FF002807D1009BC9
:1014F000013B0093002BE3D10199300011E001354D
:10150000032DD3D18FE71B4803F0E4FC300005F036
:101510007FF90400BD428CD0280005F079F9010064
:101520002000FFF7EDFD86E709B0F0BDDA2D0020C1
:10153000982E002004E100E000A00040FC0F000015
:1015400004050000F8D3020004EC0200A0F202003F
:101550004CEC02005CEC0200D92D0020DA000020E7
:10156000580100200CAC00405D0E000068CF020066
:101570000C0500004256030010B5084B86B002ACC3
:1015800000930194042316F0EBFE02982379E2689D
:10159000A168FFF7E3FE024806B010BD74CF020059
:1015A000F8D30200014B1878C0B27047DA2D002042
:1015B00010B5242024F0B2FD0400044B202208C002
:1015C000802122F0B3F9200010BDC0469CCF02005C
:1015D000F8B5050008000E00170006F041F8324B80
:1015E000984201D00020F8BD681F0F28FAD81BF0E0
:1015F00071F8080835F9F9F9F9F9F9F9F9F9F93350
:101600003358FFF7D5FF04230400F25CE2540133A2
:10161000242BFAD1380006F023F8234B9842E1D16D
:101620000121052D05D0123D691E8D4101216D421C
:1016300029430422FF20BB5CA55C803B4B435B1924
:10164000FF2B03D90500DB179D432B00A354013268
:10165000242AF0D12000C6E73400DBE7FFF7A8FF1B
:1016600004230400F25CE2540133242BFAD1380045
:1016700006F042F90F2123F093FE2100FF25221DE1
:1016800024311378803B4343DB138033FF2B03D992
:101690002E00DB179E433300137001329142F0D1CC
:1016A000D8E73400E3E7C0469CCF0200F0B508C994
:1016B0008DB00593244B06AC0138009301940623AA
:1016C00016F04EFEE068214E214FB04202D005F0E8
:1016D0009FF807001F4B20690393B04202D005F02A
:1016E00097F803901C4B60690493B04202D005F058
:1016F0008FF80490194D3800290005F0BDFB290032
:10170000039805F0B9FB2900049805F0B5FB01200A
:101710000523049A0399059D52794979043540427D
:10172000FB5652B2009049B228001AF00BFD00237C
:10173000A268616828001AF08BFC280006991AF04C
:10174000BFFC30000DB0F0BD44D00200F8D3020061
:1017500024EC020034EC02002CEC0200E8F202005F
:10176000F0B50F6887B07B6805000C00002B02D134
:10177000124803F0EFF9486806F05AF8010002A891
:1017800025F07FFE0026032D03D1A06806F050F857
:1017900006000024039B01939C4209D2049B381D40
:1017A00031001D1901931AF0B5FD01342870F1E7DD
:1017B00002A903480AF048FC07B0F0BD64560300D4
:1017C000CC0D030070B505006B6886B00800002BD7
:1017D00002D10B4803F0BEF9012203A906F0E2F999
:1017E000039E3400049AA31B01929A4205D92178E2
:1017F000281D1AF08FFD0134F4E7024806B070BDD1
:1018000064560300F8D30200F0B505006B6889B098
:1018100008001400002B02D10E4803F09BF90122AE
:1018200002A906F0BFF920000024022205A9029FA8
:1018300006F0B8F9059E039B01939C4206D2395DE0
:10184000281D1AF067FD30550134F4E7024809B04D
:10185000F0BDC04664560300F8D302001FB503ABC9
:1018600001930E4B043101380093012316F078FDEB
:10187000039825F04EF840B20300A0220C21C1339A
:10188000FF33D2059B009950A223DB00D358C340FD
:101890000348DB0700D5034805B000BDFCD00200BB
:1018A00060F5020058F50200F0B585B0050016009D
:1018B000080003AB02AA01A926F0A2FA0398364F4A
:1018C000B84209D0032807D005F0B2FFB060002865
:1018D00004D1324803F03EF90123B3600198B842C5
:1018E00029D10024B368A34200DC6C1E0298B842E0
:1018F00025D1B368002B47DD2800002C2ADA6419B3
:1019000001D5B368DC17002834DA401901D501206D
:101910004042B368002B00DA0130B368002B2DDDA4
:10192000A04200DA2000013B706058425841C0B22A
:10193000346005B0F0BD05F07BFF0400D6E705F08C
:1019400077FFB368002801DBDA0F8018002CD6DBA4
:10195000002B03DDA542D6D22C00D4E7002BD2D039
:10196000A54200D86C1E002804DA4019D4D5012005
:101970004042D1E78542D0D22800CEE7002BD2D01A
:10198000A042D0DD601CCEE7002C01DA0020B6E7D3
:1019900000208342E4D1C0E7F8D302007856030068
:1019A000F0B5060085B017001B2805D10A9A9742AA
:1019B00009D0002005B0F0BD19281AD01C281AD073
:1019C0000A9A0A9717001A000B0011000A9A01924E
:1019D000BA4200D901971D000C0000230093009B20
:1019E000019A934209D10A9BBB4220D0E1D3012046
:1019F000E0E71A26EAE71D26E8E70295039401CD01
:101A000002CC05F0C3FE002802D0009B0133E5E7BD
:101A10001B2ECED0039B30001A68029B196803F07E
:101A2000A1F8044BC01A43425841C0B2C2E71A2E73
:101A3000DDD1BEE760F50200F0B51E0085B0039071
:101A400018680D00170005F00BFE736801900293F3
:101A50000024022F0ED90123B268290005F0C0FF2F
:101A60000400032F06D029000123F268019805F035
:101A7000B7FF0500A54202D8084803F06BF8039AA7
:101A8000A3000299D05805F081FE002801D101344D
:101A9000F0E701206400204305B0F0BD925603003A
:101AA00070B506000D00002814DD002907DD15487B
:101AB0001AF0C2FE0124864209DC002407E001007E
:101AC000C02000061AF0B8FE01248542F5DAE4B21F
:101AD000200070BD002907DDC02000061AF0ACFE12
:101AE00001248642F3DBE8E70024A042F0D00100A5
:101AF00004481AF0A1FE0123854200DB231CDCB25E
:101B0000E6E7C046FFFFFF3F1FB503AB01930E4B57
:101B1000043101380093012316F022FC039824F0CD
:101B2000F8FE40B20300A0220C21C133FF33D205DE
:101B30009B009950A223DB00D358C3400348DB0726
:101B400000D5034805B000BD84D1020060F5020055
:101B500058F502007FB503AB01930D4B04310093A0
:101B60000138012316F0FCFB039824F0D2FE41B2A9
:101B700004A819F069FE04A819F08CFEA023002126
:101B8000044ADB00D15027F0ABFB07B000BDC046D4
:101B90007CD1020000700040044B88600B60044B55
:101BA00008004B600023CB607047C046040B030065
:101BB00079550200044B0B60037A0B7143680800EF
:101BC0008B600023CB60704784D2020010B5040004
:101BD0000C2024F0A3FA034B446003600223037239
:101BE00010BDC046C0D2020010B5043024F049FF39
:101BF000004810BDF8D30200002803D0012808D007
:101C0000002005E007224B680448934300D10448B4
:101C100070474B68DB085B001843F9E760F502008A
:101C200058F502000B6870B506000D00181D4968D4
:101C3000140006F08DFA002802D04368002B10D162
:101C4000022E08D1094B022C06D16968084828F0F9
:101C5000CCFB06F00FFCAB68012C00D143601800F0
:101C600070BD022CFBD100224260F8E7F8D30200DD
:101C70001435030070B504000D000B7A164A9B0062
:101C800086B0995825F0E9FF1449200025F0E5FFBA
:101C9000134B02AA02932B7A012613716B680193EE
:101CA00004930023059302A823F070FC051E05D1C0
:101CB0000C49200025F0D1FF06B070BD002E03D1E5
:101CC0000949200025F0C9FF01222900200005F064
:101CD000DFFC0026E7E7C046FCD20200F456030012
:101CE00084D20200FA560300F7560300F0B51368D9
:101CF0001400012287B00F680D000092D90802235A
:101D0000060016F0FDFA022E12D103236868034084
:101D10001DD101682A4AC968914218D12A689042A7
:101D200006D0059305A9686823F011FC061E06D1AC
:101D3000002563689D4232D3224807B0F0BD381DAC
:101D40000122316806F004FA73684360EAE7002173
:101D500002F0CCFA0390039802F02AFB0028E7D0A7
:101D6000002102F0C3FA050002F022FB02902800D5
:101D700002F01EFB0600280002F01AFB029B002B5B
:101D800003D0002E01D0002802D00F4802F0E2FE5E
:101D9000381D0122029906F0DBF94660DBE7A368F3
:101DA000EE009959002909D0042907D0381D0122D5
:101DB00006F0CEF9A3689E19736843600135B8E751
:101DC00035200000F8D30200CE56030030B50025C0
:101DD00085B001A90400019523F0B9FBA84203D105
:101DE00009490A4824F018FA636802A9083B6360AD
:101DF0000368029343680393042328C0022015F06C
:101E000021FD05B030BDC046A956030014350300BE
:101E1000F7B50D0014001B280DD000231F2808D192
:101E2000081D0022210006F093F92B4B002800D159
:101E30002A4B1800FEBD0323194226D128492A68DF
:101E40008A4222D1234020D1216891421DD10093A2
:101E500001930BE03168386805F098FC0028E7D062
:101E60007168786805F092FC0028E1D06946280086
:101E700023F06DFB01A90700200023F068FB06009A
:101E8000002F25D00028E5D1D2E7A307D0D1154BEC
:101E900022689A42CCD162686B6853400722934310
:101EA000C6D1019301A9280023F051FB061E01D1E0
:101EB000094BBEE7201D0022316806F049F90028D1
:101EC000B6D04168706805F061FC0028EAD1AFE740
:101ED000014B0028ACD1ACE760F5020058F50200D8
:101EE00044D3020008D30200F7B50B681C4A040073
:101EF0000D00934203D05A681A4925F076FF1A491B
:101F0000200025F0AAFE00230127019301A9280043
:101F100023F01DFB061E0CD11449200025F09DFE68
:101F20002B680F4A934203D01149200025F095FEFB
:101F3000F7BD002F03D10F49200025F08EFE0122AE
:101F40003168200005F0A4FB0B49200025F085FE38
:101F500001227168200005F09BFB0027D6E7C046F0
:101F600008D30200C8560300CC5603009C5A030055
:101F7000848B0300F7560300A9AA030010B50400E0
:101F80000C2024F0CBF8034B446003600023037261
:101F900010BDC046C0D2020010B504000C2024F0D1
:101FA000BDF8034B446003600123037210BDC046BB
:101FB000C0D2020010B5043000220C0006F0C8F8B0
:101FC000002805D12100034828F00FFA06F052FA44
:101FD000406810BD1435030010B5024B08C024F052
:101FE00031FD10BD08D30200F8B50E000700002136
:101FF000706802F07BF90E4C0500022F00D9B4681E
:10200000706805F02FFD002809D123F0E9FA0600D9
:10201000280002F0CDF9011E03D13000F8BD4010B8
:10202000F3E7331D0122180006F092F84460EFE751
:10203000F8D30200F0B5070089B000201E000D00A3
:10204000019223F0CDFA0E4B040007609F4203D1AA
:102050000423027913430371019B2B430DD0336892
:10206000AA00B218019905A80394049324F0FCFC7B
:10207000681C05AA03A9FFF739FE200009B0F0BDCE
:1020800044D3020010B50C00002A03D123F0EAFA71
:102090000A480EE0042A0DD10430002206F058F858
:1020A000002805D12100064828F09FF906F0E2F942
:1020B000406810BD23F0CCFAEAE7C046F8D302002E
:1020C0001435030010B50C0005F0CAFA006B0028A7
:1020D0000ED0E30702D50368002B09D0A30702D571
:1020E0004368002B04D0630706D58368002B03D117
:1020F0000249034824F090F810BDC0461E57030063
:102100007C360300F0B50D008DB004000121286875
:102110001700FFF7D7FF0600012C22D12B68012101
:1021200018000493FFF7CEFF80210700490008A89C
:1021300025F096F9802400230A9E6400039307ABE0
:102140002200310004983D68A847431C28D1079815
:102150000B2800D0ADE0039B002B34D159480DB0C3
:10216000F0BD686805F064FB030003900133D5D02F
:102170000124337B234200D184E00027039E08A87A
:10218000310025F06DF90594002E70D0310008A8BB
:1021900025F0A6F9011E1ED14B494C4824F03CF80D
:1021A000002810D0039B1B180393844202D9241AE1
:1021B0003618C4E7802108A8490025F07EF980245C
:1021C00006006400BBE7039B414809933B7BDB07A8
:1021D00076D4404874E000230093320007AB2868AF
:1021E00023F089FA079B0400002B0ED008A83100C9
:1021F00025F0DAF907980B285BD1099B0393002B94
:1022000035D108A825F04EF9A8E7864229D80A9BBF
:102210003800049302239C46099E049B059ADB5DCB
:1022200059B2002912DA19001F246246A143C029BD
:102230000CD01900103C0322A143E02906D004323F
:102240009343F03B1A00511E8A410432D719B7421A
:1022500012D8039B3800013B0393B742DDD31E0025
:1022600092E7311A08A825F09FF9002CCFD1184821
:1022700008A909F0E9FE72E7F643039BF618F61980
:10228000070081E7039908A825F0FBF8009707AB42
:10229000039A0A99286823F02EFA079B002B0AD08C
:1022A00008A825F0FFF8079B06480B2B00D156E73E
:1022B000180002F031FE337B09900548234288D094
:1022C00008A9D6E7F8D302003D570300C83503003C
:1022D00068E20200CC0D030030B50C0087B001218C
:1022E00005002068FFF7EEFE022203A9606805F0F2
:1022F00059FC049A022D06D9A06805F099FA049AAF
:10230000824200D90200002303990093206802ABA7
:1023100023F0F1F9029B002B05D005480B2B05D0CB
:10232000180002F0F9FD43000120184307B030BD4A
:10233000F8D30200F0B589B00191019B040001219E
:102340001868FFF7BFFE0700012C18D9019B5B68D6
:102350005C10631C13D0210004A825F081F8631CD5
:1023600003D0631E002C2FD01C00012104A825F0EF
:10237000B7F8061E0AD11B491B4823F04DFF012464
:10238000102104A825F06CF86442E8E701000198E8
:1023900003AB012200683D68A847431C0ED1039897
:1023A0000B2809D1059B0193012B09D104A825F025
:1023B00079F80E4809B0F0BD02F0AEFD00280CD14E
:1023C000012104A825F0F0F83B7B0948DB0700D485
:1023D000084804A909F038FEECE733780A2BBED18F
:1023E000F2E7C0463D570300C8350300F8D30200AA
:1023F00068E20200CC0D0300F0B51F0004000D00E0
:10240000160085B00221FFF75DFE03AB0097320096
:102410002900200023F06FF9039B002B05D005480D
:102420000B2B05D0180002F077FD43000120184364
:1024300005B0F0BDF8D3020010B5040025F05EF839
:1024400026F073FD01280BD00649200025F071F815
:10245000200025F053F826F068FD022800D0002067
:1024600010BDC04687570300F0B59DB000AF0C68A3
:10247000032835D9CB68FB60042835D00D690020CE
:102480006D102BD41C232000F9180AF06BFA786128
:10249000002D5AD0964C97496068FFF78BFD0600D7
:1024A000606800229449043005F052FE1823FA189F
:1024B000D118040030000AF055FA3B6B013D0100D1
:1024C000C318002C05D1994203D2013B1A782E2A59
:1024D000F9D1013D0ED299420FD1884802F03AFB62
:1024E000874B0025FB60CDE70025CBE7013B1A7841
:1024F0002E2AEED09942F9D3EBE7FE695C1A25004B
:10250000002E01D0751C65192B006A460E33DB08BE
:10251000DB00D31A9D46220018003B6121F074F9BC
:10252000002E08D02E233A69601C135510187969C3
:10253000320021F069F92900386911F01DFC0624E8
:102540003B69C0000443FD617B61200009F0D4FDBC
:1025500001F010FC061E15D02E21786921F0FCFB3D
:1025600000280BD0664BFA689A4207D17B69C11AE2
:10257000180011F001FC01F0FDFB06003000BD4623
:102580001DB0F0BD182318200125FA18D2183818EC
:10259000103B4021C01824F07CFF7E603E61FB6947
:1025A0009D4205D9564BFA689A42E7D17E68E5E725
:1025B0009D4204D07B695B5D2E2B00D08DE029000D
:1025C000786911F0D9FB7B6A3860002B18D12A009A
:1025D0007969083318203818C01824F025FF18220C
:1025E0000823BA18D018FFF727FFB860BB68002B84
:1025F00014D13A684349444813F09EFD05F03AFF70
:1026000018220823BA18D0182F210BF057F93B696C
:102610003969EA1A7B6959180823DBE7386801F041
:10262000A9FB041E43D1386801F072FBFB6904006A
:102630009D4213D1354BFA689A420FD1BB68012BEA
:102640000FD0334A2B49406823F002F818220823A0
:10265000BA18D118200023F0BAF828E0BB68012B83
:10266000F4D10022796AB86A09F024FD29490200F0
:10267000200001F017FE7B6A1822BB600823BA18FD
:10268000D0182F210BF01AF918220823BA18D018E5
:10269000214924F04EFF18220823BA18D01824F03C
:1026A0002DFF26F042FC022819D0BB687B62002E69
:1026B0000CD07A693B699446E91A6344180011F01A
:1026C0005BFB22000100300001F0ECFD7B68002B79
:1026D00000D17C6026006B1C3B6101355FE718224E
:1026E0000823BA18D118200023F071F8DDE7C0469E
:1026F000982E0020261200003E1200004B570300C7
:10270000F8D302006A5703006034030058F5020052
:1027100016120000470200007F57030007B5044966
:102720006A4601F065FD0098431E9841C0B20EBD97
:1027300047020000F0B50D00002785B0110003909E
:102740001E002800104B0222009715F0D9FDA81C8E
:10275000800023F0E3FC039B040003606B1E3D003C
:102760000393436033688360039B9D4202D3200040
:1027700005B0F0BD0135AF00F059002101F0B6FD04
:10278000E719B860F0E7C046FFFF000010B5024946
:1027900025F063FA10BDC0468653030010B504004F
:1027A00013F056FE074B02001B690749074825F046
:1027B0001CFB07F00DFB012C01D107F02BFB04489B
:1027C00010BDC046982E00208B570300E817030069
:1027D000F8D3020010B505F02BF801F035FA0148E6
:1027E00010BDC046F8D3020010B506F0EFFF014857
:1027F00010BDC046F8D3020010B506F0DDFF014859
:1028000010BDC046F8D3020010B586B0040005AB79
:1028100004AA03A902A811F021FB059B029A0193C7
:10282000049B064900930648039B25F0DEFA012C21
:1028300001D111F04FFB034806B010BDA0570300B3
:10284000E8170300F8D3020010B5084C002805D1A2
:10285000A834236801305B00184310BD086804F0F9
:10286000E7FFA83420600248F7E7C046982E002012
:10287000F8D3020010B50400080023F00AF80300A2
:10288000002C03D0012C06D0002003E00348002BCD
:1028900000DC034810BD40002043FBE760F5020068
:1028A00058F5020043684B6083688B60C36808007A
:1028B000CB60014B0B60704754D50200F0B50E00A1
:1028C000002785B0110003901D0001220323300072
:1028D000009715F015FD102023F020FC039B040049
:1028E000036001234760C36028689E4205D104F05D
:1028F0009FFFA060200005B0F0BD04F099FF60606C
:10290000686804F095FFA060032EF3D1A86804F076
:102910008FFFE0600028EDD1014802F01BF9C046AE
:10292000E857030070B50D004A688B680849040039
:1029300025F05BFAEA68012A04D10649200025F057
:102940008CF970BD0449200025F04FFAF9E7C04624
:10295000F2570300848B0300FF57030030B50400D7
:1029600087B00D000020042A25D1200022F091FF1D
:10297000AB0722D1184B2A689A421ED103AA29001C
:10298000FEF792FF102023F0C9FB144BE2680360AE
:10299000039B616853435B184360049B6168019328
:1029A00053435B18059983604A43C260002902DAE9
:1029B000E2689B1A836007B030BD002301002A0043
:1029C000206805F00DF8E36858436368C3180120D8
:1029D0005B001843EFE7C046F017030018D502006C
:1029E000F0B5802787B02C4D02907F422C78002CC8
:1029F0001CD063B2002B10DA6E1C6D787C40E4B200
:102A0000002D13D0013CE4B2FF2C0DD004AB981D77
:102A10000121057008F038F9F4E704ABD81D012155
:102A200004702E0008F030F9751CDFE70627013F1F
:102A3000002F2ED0029824F095FA0124BC42F6DA39
:102A40000025052D22D0154E2200290030000EF061
:102A50004DF96B4601901B79002B15D0631E1A00AF
:102A60002900300003930EF041F9031E0CD122001F
:102A7000290030000EF006F9FF22019B29001340C7
:102A80003000621E0EF0FEF80135DAE70134E4B2E0
:102A9000D4E707B0F0BDC046055803003000002061
:102AA00010B5C820FFF79CFF004810BDF8D3020006
:102AB0000022F8B5284EA024B256032113000125A8
:102AC000C133FF33E4059B0019512B009340234F82
:102AD0000220E35124F042FA00232A00F3560F208B
:102AE0009A40A123DB00E25024F038FA00232A00A8
:102AF000F3561B4E9A40E2510022B25604211300B5
:102B00009540A222C133FF339B001951D200A35834
:102B10002B42FCD024F03AFA0500124820F0EEFFD8
:102B200000220123B256A020A2219340C005C90073
:102B300042581342FCD124F029FA04000A4820F03C
:102B4000DDFFAA20641B40000849604319F0EAFD3C
:102B5000C0B226F0C5FBF8BDDC2D00200C0500003E
:102B6000DB2D0020AEB803003FCC0300204E000058
:102B70001FB50B4B02AC04310093013802230194C2
:102B800015F0EEFB029823F0C4FE064B1870606847
:102B900023F0BFFE044B1870044804B010BDC046BB
:102BA00054D60200DC2D0020DB2D0020F8D30200DB
:102BB0001FB50B4B02AC0431009301380223019482
:102BC00015F0CEFB029823F0A4FE064B1870606847
:102BD00023F09FFE044B1870044804B010BDC0469B
:102BE00064D60200DC2D0020DB2D0020F8D302008B
:102BF000F7B50F00019224F0C9F9012500902800D3
:102C000024F0ACF9A224A0230022154EE400DB0539
:102C10001B59B256D3402B409F4217D124F0B6F92E
:102C20000500104820F06AFF00220121B256A023BF
:102C3000DB051B59D3400B409F42F8D024F0A6F986
:102C40000400094820F05AFF601BFEBD24F09EF9E5
:102C5000009BC01A019B9842D1D90020F5E7C046DD
:102C6000DC2D0020AEB803003FCC03000022F8B5F5
:102C70001D4FA024BA56032113000125C133FF3391
:102C8000E4059B0019512B009340184E0220A351DC
:102C900024F064F900232A00FB561E209A40A12349
:102CA000DB00E25024F05AF900202B0038560422B1
:102CB0008340A3510300C133FF339B001A51290005
:102CC0000B4AFFF795FFAA235B005843094919F007
:102CD00029FDC82382B25B009A4200D9180080B255
:102CE00026F0FEFAF8BDC046DC2D00200C050000E1
:102CF000A0252600204E000070B5137804000A3B82
:102D0000D8B20F2809D90A001048114913F014FA53
:102D10000025636A1860280070BD002552781B02E8
:102D20001A43E36A9D420AD1238C0025042BF2D179
:102D30000849064813F000FA636A1860EBE7206B55
:102D4000A90009589142E6D00135EBE76C37030042
:102D5000265A03003B5A0300F0B5040085B00D006D
:102D6000100003A9A26A1E0023F05DFC002809D10F
:102D70002A000B490B4813F0DFF9636A1860002042
:102D800005B0F0BD039804F07FFD0300B343F7D016
:102D9000030000962A000449024813F0CDF9ECE73D
:102DA000E25903006C370300FA590300F7B51E001F
:102DB00013780D000A3BD9B204001B480F2904D830
:102DC00050781B02184326F00FFB03780193174B32
:102DD0005A1C0023177801998F421BD141785778EC
:102DE000B94217D1817897788F4213D1002F0ED135
:102DF0000E4A9B00D05CB04208D933002A000C492F
:102E00000C4813F099F9636A18600020FEBDC7787A
:102E1000002FEDD001330432152BDBD12A000649F7
:102E2000044813F089F9EEE7265403009E5A030084
:102E3000525A03006C3703006B5A0300F0B5137845
:102E400085B005000E00462B47D101A9100023F0E4
:102E50001AFC019B984240D003781A000A3A0F2AC4
:102E60000AD802000F2331002800FFF79FFF01243A
:102E70008440200005B0F0BDB32B2ED123F0FEFB23
:102E8000040023F0F6FB02900378B62B25D101272E
:102E9000A73B220031002800FFF788FF3C0003A970
:102EA0008440029823F0EFFB039B02909842E0D00D
:102EB0009D2102A823F0F6FB029A039B9A42D8D0E8
:102EC0000F2331002800FFF771FF3B008340029879
:102ED0001C4323F0CEFB0290EEE732000349044886
:102EE00013F02AF96B6A00241860C2E7835A0300C2
:102EF0006C370300F0B50E0087B0040004A9300061
:102F00001F00019226F075FA019B0500002B0FD1DE
:102F1000C9239B009E4205D1BF210902200026F053
:102F2000F0FA19E0BE4B9E4200D080E0BD49F5E7C3
:102F3000019B012B00D092E00A23FF339E420DD16A
:102F400001003A682000FFF7D7FE0100200026F0BC
:102F500022FB002800D1EEE107B0F0BDB24B9E424B
:102F600009D101003A682000FFF7C6FE01002000E9
:102F700026F069FBEDE7AD4B9E420AD101000F231D
:102F80003A682000FFF712FF8E21C000C9010143FB
:102F9000C4E70378622B32D1049B032B07D0052BA7
:102FA0002DD1C3785F2B2AD103796E2B27D101262F
:102FB0000023687876429E4AD1184A78824205D129
:102FC000AA7889788A4201D1994A9E5C03332A2BD8
:102FD000F1D1731C2BD03A6829002000FFF78CFE3A
:102FE000049902000023052904D12B79773B58422C
:102FF0005841C3B23100200026F0E9FAA9E7A12325
:103000009B009E4201D18B4988E78B4B9E4201D1A8
:103010008A4983E78A4B9E4212D129003A682000F0
:10302000FFF70CFFFF231B02B421184215D0019BB0
:103030002A008449844813F07FF8636A18608BE79C
:10304000824B9E42F3D13A6829002000FFF7F6FE3A
:10305000FF231B021842EAD1BC21090297E7019B1A
:10306000022B00D002E17B68794A1B780A3B0F2BC8
:103070004AD8964212D13A6801000F232000FFF788
:1030800095FE7A68060029000F232000FFF78EFEC8
:1030900031000200200026F067FA5DE79723002246
:1030A0009B0002929E421AD18026F6013A682900BE
:1030B00007232000FFF77AFE7A6801902900072392
:1030C0002000FFF773FE019A03003100200026F074
:1030D00044FA41E7029B013302930F2BA7D0029BD6
:1030E00003229E005B4B711C5918280020F018FF2A
:1030F0000028EFD1EB78002BECD1564BF65C802307
:103100003601DB011E43D1E7964219D18026072301
:103110003A6829002000FFF749FEFF2301902900AB
:103120007A682000FFF718FE019BB60119020643DA
:103130003143F3E6A026EAE7C026E8E7E026E6E723
:10314000454B9E42F6D0454B9E42F5D0444B9E42A5
:10315000F4D00023434A99005018408886425BD13E
:103160008B5A200002933A6807232900FFF71EFEBE
:103170007E6803903378452B31D1300023F0BEFABE
:1031800000282CD1300023F079FA0378A62B26D121
:1031900005A923F078FA0599060023F05EFA0228C3
:1031A0001DD1300023F065FA072332000700290003
:1031B0002000FFF7FBFD029B0600DB0417D51F2351
:1031C0003A0029002000FFF7C7FDF100039B029E93
:1031D00080011E433143F826F6003040D7E62A002E
:1031E0002149194812F0A8FF636A18601FE76B466F
:1031F00008229B5E002B07DA3E233A0029002000BC
:10320000FFF7AAFD4008E0E77C233A0029002000F0
:10321000FFF7A2FD8008D8E70133062B9BD106E714
:103220008903000030BF0000690200006D02000049
:10323000A358030072B600008502000062B60000C9
:10324000350300005D5903006C3703002F030000B5
:103250001D030000A65903007B0200005902000074
:1032600066030000CC4D030032590300019B032B81
:1032700000D0DCE6334B9E4221D100263A6807237A
:1032800029002000FFF792FD7A68019007232900AA
:103290002000FFF78BFD1F230290BA682900200051
:1032A000FFF75AFD019F029B374381013943DE003E
:1032B0003EE780263601E1E780267601DEE7C1237E
:1032C0009B009E42F5D0204B9E42F5D01F4B9E4264
:1032D0002BD1C02607233A6829002000FFF766FD9E
:1032E000072301907A6829002000FFF75FFDBA6884
:1032F0007601137802900A3B0F2B0DD80723290083
:103300002000FFF753FD029BD900019B1943314375
:103310000F008101394301E68023DB001E432900B1
:1033200007232000FFF718FDEDE7094B9E4200D070
:103330007DE6D026CEE707490748646A27F05CF8A7
:10334000206009E603030000630200005902000048
:1033500066030000925903006C370300F7B50E00B6
:1033600007001100300023F078F90025040004283C
:103370001ED97C6A1349144827F03EF820600024C7
:103380002000FEBD73780002184326F02DF80236A7
:10339000019020F093FD022811D1019B1B78722B24
:1033A0000DD1019B5A782B0030339A4207D1013559
:1033B000A542E5D030780A38C3B20F2BE2D97C6A37
:1033C0000249D8E7CD5803006C37030000590300C9
:1033D000F8B5070008680C0023F09BFA0500606848
:1033E00004F064FB0600022F0AD9A06804F020FA5A
:1033F00002003100280022F0D1FA25F071FFF8BD5B
:10340000004AF6E740420F0010B504000C2022F0FD
:1034100085FE034B4460036001235B42836010BD63
:1034200098D602000300203B5E2B00D93F200523E5
:1034300020384343014A1068C018704768000020D4
:10344000044B0B6043684B6083680800CB6000232B
:103450008B60704754D7020070B5050008006843C0
:103460000130401008300C0022F058FE0122044BBD
:1034700085710360037944719343037170BDC04645
:1034800060DA0200037910B5DB0702D5014801F0CC
:1034900021FD10BDF25A030070B50500202022F076
:1034A0003DFE05210B4B040003600800FFF7D4FF2D
:1034B0006B68EA68A060236162602A7C2000A276C3
:1034C000AA689B1863616B7CE37622F006FB200000
:1034D00070BDC046A4DA020070B50D000400FFF70D
:1034E000D1FF280004F0A4F90100092802D90448FA
:1034F00001F030FB200022F052FB024870BDC046B4
:103500008F5B0300F8D30200F0B50C000B6889B0A4
:10351000070018000493FFF7B5FF6568280004F062
:103520009FF81E4B984202D01D4801F0D3FC072F94
:1035300001D11C48F9E7A06804F07AF90690E06828
:1035400004F076F90790206904F072F9059060693B
:1035500004F06EF9059B0600002B01DB002802DA5F
:10356000114801F0F7FA062F14D0A06904F060F9B1
:103570000700E06904F05CF9059B039000932800C4
:1035800002970196079B069A049922F0B9FB074817
:1035900009B0F0BD00200700EEE7C04660DA020087
:1035A0001F5B0300325B03004C5B0300F8D3020097
:1035B00070B504000800160004F03AF90500300068
:1035C00004F036F90600002D01DB002802DA0C4871
:1035D00001F0C0FA200022F07EFB854204DA2000D0
:1035E00022F087FB864201DB0648F1E73200290022
:1035F000200022F062FB43000120184370BDC0464A
:10360000A85B0300C15B0300F8B50D000C68200047
:10361000FFF738FF686804F00BF90600A86804F0AB
:1036200007F90700002E01DB002802DA0F4801F03D
:1036300091FAE86804F0FCF80500092801D90C4863
:10364000F5E7200022F047FB864204DA200022F052
:1036500050FB874201DB0748E9E72B003A003100C5
:10366000200022F075FA0448F8BDC046A85B0300AC
:103670008F5B0300C15B0300F8D30200F7B50E00B7
:1036800026490400019224F0B0FB019B002B03D1DA
:103690002349200024F0A9FB2249200024F0A5FBA7
:1036A0000025300022F025FB854221DA002730007A
:1036B00022F011FB87420CDA39002A00300022F098
:1036C000FCFA194B19491A5C200024F08EFB0137D3
:1036D000EDE71749200024F088FB019B002B05D162
:1036E000300022F006FB0138854211DB0135D8E7B6
:1036F0000C49200024F079FB019B002B03D10D49DC
:10370000200024F072FB0C49200024F06EFBF7BD72
:103710000A49200024F069FBE8E7C0464E5C03003C
:10372000555C0300615C0300635C03001C600300E4
:10373000F38E03000EB20300848B03005B5C030076
:10374000F0B50F00110000228BB01E000092032381
:10375000380014F0D5FD032F00D9D2E0380018F05E
:10376000C3FF020C919105210800FFF775FE0400CC
:1037700022F023FA20000BB0F0BD3068634B034009
:10378000062B07D0830700D0BEE0614B02689A4247
:1037900000D0B9E007A909F0E5F8079B039005936D
:1037A000012B04D1039B187822F0AAFCE3E7002345
:1037B0001E00039A029303990598511A814215DA63
:1037C00011780A2901D03A2908D19E4200DA1E0058
:1037D000029B0133029300230132ECE701332029DD
:1037E000FAD03929F8DD4B4801F0B4F9002B05D0A7
:1037F000029A013202929E4200DA1E0002993000C3
:10380000FFF72AFE002507002C00039B0493039A70
:10381000049B9B1A059A9A4223DD049B1B780A2B72
:1038200001D03A2B0FD1A64207DD210000232A0048
:10383000380022F08DF90134F5E700240135049BAE
:1038400001330493E3E7202B07D1002321002A0052
:10385000380022F07DF90134F1E7392BEFDC303B01
:10386000F4E7029B3800AB4200DC84E7A64207DDA8
:10387000210000232A00380022F06AF90134F5E71C
:10388000380078E7306803F0D3FF0500706803F074
:10389000CFFF029001002800FFF7DEFD0390022F0A
:1038A00003D122F08AF9039865E7012207A9B068DD
:1038B00004F078F9002D1FDB029B002B1CDB6B430F
:1038C000089A934218D100242700029B9C42EAD018
:1038D0003E00EB190493049BF11B9E420ED0079B04
:1038E0009A5D131C092A00D90923DBB22200039830
:1038F00022F02EF90136EEE7074875E77F1901340B
:10390000E3E7064801F0E6FA0548FBE7070080FF19
:1039100068E20200D15B0300FA5B0300175C03005E
:10392000365C0300F0B585B00191050000210198D7
:1039300019F0BEF8041E02D0214801F00BF928004E
:1039400022F0C9F90600280022F0D3F90100300066
:10395000FFF782FD0700280022F0BDF984422CDA2F
:103960000026280022F0B7F9864224DA320021002E
:10397000280022F0A2F91AF031F8019919F03AFD65
:103980001BF012FE00220F4B1AF0BEF80E4B002265
:103990000290039119F052F80923002804D00298EC
:1039A00003991BF08BFD030032002100380022F048
:1039B000CFF80136D5E70134CDE7380005B0F0BDCA
:1039C000645B03000000E03F00002240F0B587B0D8
:1039D00007000391059222F08CF90400380022F0D0
:1039E0007AF90190039822F084F984422DD12100C4
:1039F0000198FFF731FD0025029006E0049B1B1A99
:103A0000DA43D217134019E00135019B9D421FDABA
:103A10000026A642F8DA32002900380022F04DF9DB
:103A2000320004902900039822F047F9059B002BEF
:103A3000E4D0049B1B18092B00DD09233200290068
:103A4000029822F085F80136E3E7034801F082F896
:103A5000029807B0F0BDC0466E5C0300F8B50400E4
:103A600008000D00160003F0FBFD164FB84201D010
:103A700000200FE0053C042CFAD8200018F02AFEA4
:103A8000141403F80B00300003F036FF011C28006B
:103A9000FFF748FFF8BD300003F02EFF011CFE20A9
:103AA000800519F0B7FAF1E7300003F0D9FDB8420C
:103AB000DED1624262413100D2B22800FFF786FFB8
:103AC000E8E7C04660DA0200F7B50700019314206A
:103AD00008AB0E0015001C7822F020FB044B476059
:103AE00003606B461B798660C56003744474FEBD39
:103AF000E0DA020070B505000C2022F00FFB052172
:103B0000044B0400456003600800FFF7A5FCA060BB
:103B1000200070BD08D70200F7B50023A024A2251D
:103B2000354E0193E405ED0063593278D340DB074D
:103B300045D4642763593278D340DB0742D56359B3
:103B40003278D340DB073AD5F625A027A224FF35EB
:103B5000FF05E40032783B59D3400122134027D0BF
:103B6000013D002D35D12C000927013F002F23D026
:103B70003D25A023A222DB05D2009B583278D340FA
:103B8000DB0717D4013D002D27D1A023A222DB059E
:103B9000D2009B583278D340DB0722D401AAA35C21
:103BA0005B083C2D02D9802149420B43A354DCE73A
:103BB0001C00D9E70025E8E70134042CD4D101AB7F
:103BC000987816E06420013F23F0C8F9002FB6D0A2
:103BD000B0E70A2023F0C2F9BCE70A2023F0BEF9BF
:103BE000C7E701350A20EDB223F0B8F98D2DCCD10D
:103BF000002025F075FBFEBDDD2D00207FB5040003
:103C00000D001600042022F089FA03AB01930B4B40
:103C10003200291D601E0093012314F0A1FB0398BC
:103C200022F077FE064B04221870A023C130FF302B
:103C30008000DB05C250034804B070BD8CDB02007D
:103C4000DD2D0020F8D3020010B50400431C02D083
:103C5000024812F0CFFA024B1C6010BDC02E0020AB
:103C6000902E0020014A024B9A647047C02E00201B
:103C7000982E002010B5040048680022043007493F
:103C800004F066FA064A002803D0406808F054FEA3
:103C900002000449200024F0A8F810BD26120000FC
:103CA000265403008B5C030070B5150012680C00ED
:103CB0004368002A0AD1CC000621181D214304F0D4
:103CC00047FA002801D043682B6070BD1A791800AC
:103CD00092070BD50C4A9342F7D10C4EF36D002B93
:103CE00003D1012021F07CFCF065F06D06216A68AB
:103CF000E4002143002A03D121F0B4FC0023E3E7D0
:103D000021F0A6FCFAE7C04648F90200982E0020F0
:103D100070B50625C0000543012229000B4804F0B8
:103D200017FA0600406800280FD1083022F0F6F993
:103D3000074B04000360012021F052FC2A00606060
:103D4000044921F085FC2000746070BDD42E002051
:103D500094DC02002612000010B50C000621C00001
:103D600001430122024804F0F3F9446010BDC0464B
:103D7000D42E002073B50625C3001D430600002283
:103D800029000F4804F0E4F9041E17D102002900AD
:103D90000C4804F0DDF9041E11D06A460A49406857
:103DA00000F026FA009B002B08D000216A4608008C
:103DB00022F0F6F961683000FFF7CEFF606876BD4B
:103DC000D42E002098DB02003D020000F0B58BB03D
:103DD00006AC0D00029003920021102220001FF07B
:103DE000A5FDE2232380DF3B63800127AD23134E33
:103DF0000298291D04AD238166606781AB3B039A5D
:103E000001380195009414F0ABFA049822F081FD7A
:103E100040B20300A0220321C133FF339B00D2052F
:103E200099503B0029798340002905D0A121C90080
:103E3000300053500BB0F0BD0149F9E7F8D3020050
:103E40000C0500001FB5114B02AC04310138009382
:103E50000194022314F084FA029822F05AFD40B231
:103E60000300A0220321C133FF339B00D2059950E8
:103E70006168074B994202D9064800F06BFE890041
:103E80000CF004FB044804B010BDC04608DD02007D
:103E9000FF030000995C0300F8D3020070B50FF037
:103EA0002DFF0F4C0F4B0025A3620F4BE58563637D
:103EB00023000321A8330D481D60A564A585256353
:103EC000FEF78AF80A4E01213000FEF785F830002F
:103ED000084A094921F0BCFB26606660E56570BDB3
:103EE000982E002050350300883F0300D02E00207C
:103EF000E42E0020161200002612000070B50624E1
:103F0000134EC3001C437368002205002100181DD6
:103F100004F01EF9021E18D1F06D002807D00430FD
:103F2000210004F015F9002801D0406870BD00227E
:103F30002100084804F00CF9021E06D12A000649A7
:103F4000064812F0F9F804F095FA5068EEE7C0461A
:103F5000982E00204CF90200E15D030004360300B6
:103F60000A4B10B5040018685B6898420AD0062115
:103F7000E30019430430002204F0EAF8002801D0DD
:103F8000406810BD2000FFF7B9FFFAE7982E002027
:103F9000074B10B5D86D002801D1064810BD04307C
:103FA0000022054904F0D4F80028F6D04068F5E76F
:103FB000982E002014F802007E1100000A00C100B3
:103FC000062010B5024B0143186821F041FB10BDDB
:103FD000982E0020062110B5034BC000014318683D
:103FE00021F040FB10BDC046982E00200A00C10001
:103FF000062010B5024B0143586821F029FB10BD83
:10400000982E0020062110B5034BC00001435868CC
:1040100021F028FB10BDC046982E002037B50500C2
:104020000C00062806D1080003F040FD00280DD042
:104030002C483EBDCB071BD54B10042816D818F0D2
:1040400053FB03154E4E0700002BF1D02648F0E736
:10405000C0221206934204D18020C00525F040F909
:10406000E7E75B425B0001201843E2E7DB43F9E747
:1040700002281AD11D4B0B40062B08D08B0714D1F8
:104080000A681B4B92699A420FD1486802E0C8083F
:1040900025F0A0F9002806D101A9200008F044F875
:1040A00001990FF019FE4300DDE7200003F0D8FA74
:1040B0004369002B0DD10F4BAD002000ED5822F0CD
:1040C0005AFC2A0003000C490C4812F035F804F0A1
:1040D000D1F92100280098470028AAD1EBE7080071
:1040E000A7E7C04658F5020060F50200070080FF10
:1040F0000DCF0000CC1703006D5E0300E437030012
:10410000F7B50400019116001F0003F0A9FA056934
:10411000002D09D1200022F02EFC0649020006489D
:1041200012F00AF804F0A6F93B00320001992000D1
:10413000A847FEBD745D0300E4370300F8B50E0028
:1041400015001C00930714D113681E4A934202D134
:104150006B682360F8BD1C4A934207D1002802D047
:1041600003F07EFA06006B6848C4F3E7174A9342EF
:1041700001D12560EEE75A68022117008F431449E8
:104180008F4202D013498A42F3D1002817D1124A34
:1041900093420BD0114A934208D0114A934205D062
:1041A000104A934202D0104A934208D10C2021F0C9
:1041B000B5FF0E4B4660036085602060CAE725604E
:1041C0006060C7E718170300DC16030090170300B0
:1041D000AD02000079020000ACE80200E8E802004D
:1041E00024E9020060E90200D8E9020060DD020073
:1041F000F8B500231360536006000D00140003F0AF
:104200002FFA124B07009D4205D1836A002B02D082
:104210000F4B48C4F8BDFB69002B04D022002900D5
:1042200030009847F6E7B86B0028F3D00621ED0080
:10423000294304301A0003F08BFF0028EAD04268BB
:10424000230039003000FFF779FFE3E74602000062
:10425000DCF8020070B5160004000D00FFF7C8FF7F
:104260003368002B15D10B4EA3070BD10A4B2268E4
:104270009A4207D12B0062680849300011F05CFFB8
:1042800004F0F8F8200022F076FB2B00020004492D
:10429000F3E770BD3433030090170300FA5D0300A9
:1042A000215E030073B504000D00160003F0D8F979
:1042B000C369002B09D004220196009229006A46A6
:1042C00020009847009B002B0AD0200022F053FBCF
:1042D0002B0002000349044811F02EFF04F0CAF835
:1042E00073BDC046215E03003433030073B5040080
:1042F0000D0003F0B5F9164B426A06009A4225D02C
:10430000002D03D1102021F009FF0500736A002B56
:1043100011D16A460F492000FFF76AFF009B002B6E
:104320000FD1200022F027FB0B4902000B4811F0AF
:1043300003FF04F09FF82900200098470028E8D0E8
:1043400076BD2900684601F0EDF9F9E72000F7E7AE
:10435000A369020039020000905D0300E437030006
:1043600037B5040003F07CF9856A002D02D02000E7
:10437000A8473EBD6A460B492000FFF739FF009B66
:10438000002B05D06A462900280021F009FFF0E73C
:10439000200022F0F0FA04490200044811F0CCFE9B
:1043A00004F068F846020000C25D0300E437030031
:1043B00030B505008FB012F065F8280003F050F911
:1043C000846A002C05D02800A047040020000FB00C
:1043D00030BD6A4613492800FFF70AFF009B002BF7
:1043E00016D002A804F020F8002807D16A46010080
:1043F00021F0D6FE040004F035F8E7E7039B0A49F4
:1044000018680BF073FB0028E0D1039804F032F831
:10441000280022F0B0FA05490200054811F08CFE90
:10442000F4E7C0464602000030370300C25D0300D7
:10443000E4370300F0B513688FB00793002800D06D
:1044400073E00400131D0393FF220B00090A1340BD
:10445000114001934B000693069A019B05919B180E
:10446000039A9B00D2580492039AD3185F68381EAF
:1044700009D00020BB0706D1954B3A689A4202D179
:10448000380021F0E2F8059B1E18049B002B51D147
:10449000019B76000133F3189800009321F03EFE53
:1044A00026000500002C01D001260460019BB0000D
:1044B0009A00281803991FF0A7F9019B9B190293F2
:1044C000029B9800059B2818DA00019B9900039B2A
:1044D00059181FF099F9029A069B94466344019378
:1044E000002F12D003243C4000D0ABE0784B3A6858
:1044F0009A4200D0A6E0380021F0BFF8032306005E
:10450000009373689C4200D27FE0019B029A02995B
:104510009A1A52082B000798FFF7F2FD04002800B2
:1045200021F02BFE20000FB0F0BD130008330393E1
:10453000546889E7049B9B0730D1049B654A1B683C
:10454000934202D0644A934228D10AAA09A9049846
:1045500003F010FA099B019A01339B1876009B190E
:104560009800009321F0DAFD26000500002C01D010
:1045700001260460019BB0009A00039928181FF0DF
:1045800043F9019B0A999819099B80009A00281801
:104590001FF03AF9019B099A9B188FE7019B76005F
:1045A000181D33189800009321F0B8FD260005006F
:1045B000002C01D001260460019BB0009A000399F1
:1045C00028181FF021F9019B0AA99B19049802934E
:1045D000FFF78CFE029B04909C000498FFF7E8FE16
:1045E000061E00D16CE7009B029A934207D8D900BF
:1045F000280021F0B1FD0500009B5B000093029BA9
:104600002E51013302930434E7E7B368E700D85929
:10461000002815D0042813D0009B184205D12F4B39
:1046200002689A4201D122F0DAFE019B019A9B00B6
:10463000E85002320192B268EB18D7197A685A60D2
:1046400001345EE70AAA26493800FFF703FE00217D
:104650000AAA080021F0A4FD0021FFF747FE019BF4
:1046600003909E000398FFF7A3FE041E00D14CE7C1
:10467000019B009A01339A420BD853000093042BFC
:1046800001D204230093009B2800990021F064FDCF
:10469000050003231C4207D1104B22689A4203D124
:1046A000200022F09CFE04000AAA0E493800FFF701
:1046B000D1FD0AAA002101200C9421F071FD019B7B
:1046C000AC5102330193AB1958600836CAE7C046B3
:1046D00008D30200903F03003020030068E202008C
:1046E000F30200003902000070B50C0086B015001E
:1046F00083071AD103681F4A934202D01E4A93428D
:1047000013D102AA01A903F035F9019B9C422AD8D2
:1047100019D3029BA4001C19043B043C9C4201D108
:1047200006B070BD226804C5F7E702A9FFF7DEFDF9
:10473000002306000193019B3000A34206D3FFF73C
:1047400037FE0028ECD022000C490EE0FFF730FEC7
:10475000002808D0019A0A49A31A5B189B0001326D
:1047600058510192E7E7019A0649074811F0E4FC25
:1047700003F080FE903F030030200300AE5E030094
:10478000FFFFFF3F8B5E03005C380300F7B5FF249B
:104790000E00090A264015000C40830731D103683A
:1047A000384A934202D0384A93422AD101AA694634
:1047B00003F0E0F8009B32199A425BD89A009446C5
:1047C000002001998200A0420FD19B1BB40009195F
:1047D000181AAD1824F0ECFC019B28601C1900236A
:1047E00001360133B34207D1F7BD6746BF1A043F14
:1047F000CF590130AF50E5E79A0051426158A950B6
:10480000EFE70021FFF772FD002307000093009BF4
:104810009E4217D80021080024F0CAFC0600380088
:10482000FFF7C6FD011E1AD1B1688C4222D8A30041
:10483000EB181E6088009D4215D1091B300024F042
:10484000D3FCD1E73800FFF7B3FD002812D0009A5F
:10485000B31A1B199B00013258510092D7E7300060
:104860000EF08AFDDBE7F268C71AAA18D259043B9A
:104870001A60E0E7009A0549054811F05DFC03F075
:10488000F9FDC046903F0300302003008B5E03001B
:104890005C380300F0B591B01D0006000C00170055
:1048A00002F0DEFE334B984207D12B003A00210084
:1048B000300002F0F3F911B0F0BD826A2E4B002AED
:1048C00008D09C422FD13000904728600028F2D0B9
:1048D0000120F0E79C4226D101AA28493000FFF7C9
:1048E00087FC019B002B0DD1D72101AA4900300084
:1048F000FFF7B0FC039401AA0021012021F050FC35
:104900002860E5E704A803F08FFD002807D101AA7D
:10491000010021F045FC286003F0A4FDD8E7059BC9
:104920002B600220C7E7002CDED1380002F098FE91
:1049300013490BF0DBF801AA00280FD09E213000AC
:104940008900FFF755FC019B002B10D001AA210024
:10495000200021F025FC28602000ACE70949300048
:10496000FFF746FC019B002B01D00397C3E72F60A4
:10497000D7E7C04620F20200F8D30200460200004A
:10498000243403006E03000010B5040011F01AFC7B
:10499000002808D0002320001A001900FFF7B0FB00
:1049A0000400200010BD200025F02AFD0028F8D1C9
:1049B0000249034825F020FDF2E7C046435E0300AC
:1049C000E43703007FB5C30006201843054B019070
:1049D0000491052001A9029303930592FDF744FD7C
:1049E00007B000BDF8D302001423F0B58DB000AFBE
:1049F000FA1805000C00FFF7FBFBBB69002B06D083
:104A000022002C492C4811F097FB03F033FD786904
:104A100000284CD12800FDF781FE0028F0D0142397
:104A20009121FA1828008900FFF7E2FB102378692A
:104A3000F91807F097FFB860200024F0D0FC6A4610
:104A40003E69B968731C7B60C318FB600E33DB08DA
:104A5000DB00D31A9D46320068461EF0D5FE6D4637
:104A60002E23AB557B682000EB18BB6024F0BCFC08
:104A70000600200024F0B3FC31000200B8681EF0EC
:104A8000C3FEF96868460FF077F9C30006201843A3
:104A90000A4B10223B627B62094BBA18BB620123AE
:104AA000FB620B33F861D1180520FDF7DDFCBD4634
:104AB0000DB0F0BDAC5D030060340300F8D302001C
:104AC00060F50200F0B5174C0F00616895B00391D6
:104AD0002168060008A804916260236003F0A4FC2A
:104AE000051E06D0039B09986360049B236003F0B6
:104AF000C1FC33683A00310005A8019301F0E6F9E2
:104B00002B002A00019905A80DF030FE21F039FB99
:104B1000050003F0A7FC2800039B6360049B23604F
:104B200015B0F0BD982E002010B5040004F058FE1A
:104B3000031E054802D0054921F06EFB22000449FE
:104B400011F0FAFA03F096FCC8350300D25C0300BA
:104B5000FB5C0300010010B5014821F05DFBC0467D
:104B60005C380300F0B589B003900F0016002028D0
:104B700003D191420FD0B048ABE0039B1B2B01D077
:104B80001E2B0DD13100380002F000FE039B0028DF
:104B900003D01B2BEFD1A9489BE01B2BFBD1EAE7ED
:104BA000039B212B28D1100011F00CFB002806D00C
:104BB0003100380025F02AFC0028ECD1DBE7032483
:104BC000344000D05CE19E4B32689A4200D057E1FD
:104BD00073689C42CFD2A300F3189D68280011F09F
:104BE000F1FA002800D14AE12900380025F00EFC36
:104BF0000028D0D10134EBE70123194200D1FBE0BA
:104C000013404D100293002B00D1EDE0039B541094
:104C10001D2B00D934E1180017F07AFD1E00280082
:104C20002A002D0045004C004F0051005D00660039
:104C30007C008400B9001E0028002A002D004500D9
:104C40004C004F0051005D0066007C008400D200E3
:104C5000D6003201DA00DE0025430295029B5C009B
:104C6000634000D5BCE00120204332E06540F4E71A
:104C70002C400294F2E7002C02DA7248FFF76AFF38
:104C80001F2C08DC704B23419D4204DCC0231B0613
:104C900023419D4205DAE917280024F012FB0700A2
:104CA0004CE0A540D9E7002CE7DB1F2C00DD1F24DA
:104CB0002541D2E72B190293D0E72B1BFBE72100FC
:104CC0002800FCF7EDFE0028E5D1012065436D00CA
:104CD000284309B0F0BD002C00D1E4E021002800F9
:104CE00020F017FC0290B9E7002C00D1DBE028008F
:104CF00018F074FE051C200018F070FE011C281C22
:104D000018F088F90323050002209D434F4B2843E8
:104D1000C018DEE7002C00D1C5E02100280020F0FB
:104D2000E8FBDFE72F00002C2EDA280018F056FEF3
:104D3000032302279843454B0743FF18380002F02E
:104D40008FFC8369002B00D19AE032003900039870
:104D500098470028BDD193E001231C4208D03900B8
:104D60000298FCF79DFE002895D1029B7B4302939D
:104D7000012C00D172E7390038006410FCF790FE76
:104D8000002800D087E77F43002CE5D166E7002CA0
:104D900000D188E00021022012F054FD210006001D
:104DA000280020F0B6FB012740003843B060210006
:104DB000280020F09EFBB8400743F760300088E7EA
:104DC000A54200DAE7E6D6E6A54200DDE3E6D2E654
:104DD000A54200DCDFE6CEE6A54200DBDBE6CAE664
:104DE000029824F07DFA74E703231340022B03D1C9
:104DF000174B1340062B5AD1039B1F2B9ED130001B
:104E000002F02EFC83690400002B0CD1636A002B96
:104E100024D1300021F0AFFD0E4902000E4811F000
:104E20008BF903F027FB3A003100039898470028DC
:104E300000D04EE7EAE7C04658F5020060F50200F0
:104E4000903F0300295D0300FFFFFF3F00008080CB
:104E5000070080FF905D0300E437030004A93000E1
:104E6000FFF744FA04002000FFF7A2FA002800D15F
:104E700081E6390002F08AFC0028F4D08BE62E008F
:104E8000039B38009A000E4BD45821F074FD0500A6
:104E9000300021F070FD2B000090220009490A48E3
:104EA00011F04AF9BDE70949094821F0B5F9280090
:104EB00018F094FD3200011C039803F077FE48E7D8
:104EC000441603003E5D0300E4370300635D030006
:104ED00098380300010010B5014821F09DF9C04643
:104EE000E4370300F8B504000D0017001E00002988
:104EF00008D0186802F0B4FB6368984202D00548F5
:104F0000FFF7E8FF33003A002900A068FFF7F8F840
:104F1000F8BDC046BA5C030001214000014310B552
:104F2000024825F062FA03F0A5FAC0467C36030079
:104F3000010010B5014821F06FF9C046403603006A
:104F4000F7B5012422000B4DA0272B780A4E9A407A
:104F50000A4BFF050191FA500100300017F0DAF911
:104F60003000019917F0D6F92B789C40A123DB0083
:104F7000FC50F7BDDE2D0020680100200C0500006C
:104F8000002310B55C1C092C08D00021044AE0B2B3
:104F90009B181970FFF7D4FF2300F3E7014810BDF9
:104FA0004C2E0020F8D30200F0B587B003AB20C927
:104FB0000193314B01380093012313F0D1F9039B86
:104FC0002E4C0593DA074ED49A0706D11A682C495D
:104FD0008A4248D02B498A4245D003221A40022AED
:104FE00002D12340062B3ED105980440062C05D063
:104FF000830735D1244B02689A4231D104A907F0C6
:10500000B1FC04002800FFF7BBFF002319001A00C1
:10501000049F1E4DBB4219D220783A2801D00A289D
:1050200003D100210132D2B201342078312807D1D6
:1050300001262A38401A86403000AE5C3043A8541E
:1050400001310133C9B20134DBB2E3E701240F4A75
:10505000631EE0B2D15C0134FFF772FF092CF6D178
:105060000B4807B0F0BD05AB00220121064807F050
:105070006BF80590B8E7C04630DE0200070080FFFD
:10508000A4FC020068F5020068E202004C2E002039
:10509000F8D3020070B5080016001D0002F0C8FB2E
:1050A0000400300002F0C4FB0600280002F0C0FB40
:1050B000FF232200C5B21A40072A05DC1E40072E36
:1050C00002DC18400F2802DD0F48FFF743FD0721DF
:1050D00001230E4C891B8B40A15C002D10D00B438B
:1050E000A3540126731EF0B2E15C0136FFF728FFDE
:1050F000092EF7D129000A20FFF722FF044870BDCE
:105100009943A154EDE7C046D65E03004C2E002023
:10511000F8D30200F0B5040089B0042015000E0099
:1051200020F0FCFF354B0390601E04AC00932A0076
:105130000423311D019413F013F9314D049B314FB9
:10514000AB4203D0A06801F063FB070063682E4EFA
:10515000AB4203D0049801F05BFB0600606821F0CD
:10516000D8FB2A4B03221870A023C130284CFF30F3
:10517000DB058000C2502100380001F07DFE2100D7
:10518000300001F079FE2100224801F075FE012077
:10519000052305211F4A204C52794042FB56715687
:1051A00052B20090200016F0CDFF002320001A001C
:1051B000082116F04DFF2000184916F081FF00214C
:1051C0000C20FFF7BDFE07210B20FFF7B9FE0021E1
:1051D0000920FFF7B5FE02AB197A0A20FFF7B0FEEF
:1051E00000210F20FFF7ACFE01210C20FFF7A8FEE5
:1051F0000398FFF7C5FE280009B0F0BD38DE0200B5
:10520000F8D3020024EC020034EC0200DE2D002072
:10521000E8F202002CEC02006801002040420F007E
:1052200010B5034B186826F0BCF824F059F810BDEF
:105230009C2A002010B5034B186826F0B9F824F01A
:105240004FF810BD9C2A002010B5034B186826F0BB
:10525000B6F824F045F810BD9C2A00201FB50021A7
:10526000032012F0EFFA0A4B0400196801A826F097
:105270008BF8019824F034F8A060029824F030F8FC
:10528000E060039824F02CF82061200004B010BDE9
:105290009C2A002010B506F02FFF0023064A990033
:1052A0008958884205D001330C2BF8D10348FFF709
:1052B00051FC180010BDC0465CDE0200E75E030032
:1052C000094A70B51378002B0DD1084D2C78E4B243
:1052D000002C08D1013313702B70054B186803683C
:1052E0005B6898472C7070BDDF2D0020E02D0020FA
:1052F0009C2A002010B5FFF7E3FF054B186826F045
:105300007FF8044B8000C3580620DB00184310BD13
:105310009C2A00205CDE020010B50800FFF7BAFFEF
:105320000400FFF7CDFF054B186826F069F8044B21
:10533000844200D0034B180010BDC0469C2A0020B8
:1053400060F5020058F5020010B50800FFF7A2FF53
:105350000400FFF7B5FF0123A340064A0648118861
:105360000B4200D105481188994311800022044B5B
:105370001A7010BDC82D002060F5020058F502001B
:10538000E92D0020F8B5FFF79BFF134C1348237855
:10539000002B1FD020780021C0B212F053FA012652
:1053A00000220F4F2378934212D915005308FB5C5B
:1053B0003540AD002B410F252B400A4D9B005B591A
:1053C00006259100DB0041182B438B600132E9E791
:1053D00000232370F8BDC046E92D0020883F03005C
:1053E000E12D00205CDE020070B543885A1E0A2AB7
:1053F0001FD801252A009A400F490888024392B21B
:105400000E480A8002780F2A13DC02780C4CEA401E
:10541000A25C0678D2B20F212E420BD00A401B01AB
:1054200013430278DBB25208A35403780133DBB292
:10543000037070BD8A43F3E7C82D0020E92D0020DA
:10544000E12D0020F0B50126A02237008300D2050F
:1054500085B09B18E02101930323A0248740019A83
:10546000C9005350174BE405E7500500164821F0DA
:1054700075FDA123DB00E7500F2021F06FFDE02137
:105480000423019AC9005350300021F067FDA22780
:1054900000230B360393FF00039B002B0ED1052046
:1054A000013E21F05BFD002E02D10848FFF752FBC0
:1054B000E3590122EB4013400393EDE70398C0B298
:1054C00005B0F0BD0C050000EE020000F75E030021
:1054D00070B5002911D102253C230124A026844067
:1054E000074AF605B450180021F038FDA123DB006F
:1054F000F450280021F032FD70BD3C250223ECE77A
:105500000C050000F8B5A02301278400DB05E0228C
:10551000E4180323A0268740D200A3500D4BF605C4
:10552000F7500500022021F019FDA123DB00F75000
:105530000C2021F013FDE0220423D200A350A2236B
:10554000DB00F458322021F009FD20000123E8405F
:105550001840F8BD0C050000F7B501244421FA26D7
:105560000500270020F062FEB600094A0197019B62
:10557000934203DC019B01330193F8E72800FFF716
:10558000C1FF012802D00134B442EED12000FEBD9B
:10559000830300007FB504000D001600042020F0F6
:1055A000BDFD03AB0193214B601E291D009332000A
:1055B000012312F0D5FE039821F0ABF90400FFF7A8
:1055C00041FF00282DD01A481EF098FACC21200067
:1055D00020F02CFE2000FFF7BFFF2000FFF732FF76
:1055E000002820D013481EF089FA2000CC2120F09A
:1055F0001DFEBE21200020F019FE200020F030FE0C
:105600000500200020F02CFE0400020029000A48BA
:105610001EF0EEF924012809201823F061FE04B0E1
:1056200070BD0648D0E70548DDE7C046BCDF020094
:10563000015F03000B5F0300135F0300F75E0300CD
:105640001FB503AB01930E4B0431013800930123C6
:1056500012F086FE039821F05CF940B20300A0220C
:105660000C21C133FF33D2059B009950A223DB00EC
:10567000D358C3400348DB0700D5034805B000BD3D
:105680003CE0020060F5020058F502007FB503AB74
:1056900001930D4B043100930138012312F060FE99
:1056A000039821F036F941B204A816F0CDF804A809
:1056B00016F0F0F8A0230021044ADB00D15023F0BB
:1056C0000FFE07B000BDC04644E00200007000407D
:1056D00030B58DB00500684602F0A6FE011E10D15F
:1056E0002A1D012020F05CFD0122EB6804005B1004
:1056F00001335B001343EB6002F0B4FE20000DB0F9
:1057000030BD0198054A0368934205D0044A00243D
:105710009342F3D002F0AEFE0024EFE730370300EF
:10572000D8340300044B0B6003684B6043680800E7
:105730008B600123CB60704750E002000048704747
:1057400018E102007FB503AB01930D4B04310093C8
:105750000138012312F004FE039821F0DAF841B277
:1057600004A816F071F804A816F094F8A0230021FC
:10577000044ADB00D15023F0B3FD07B000BDC046A2
:10578000D0E10200007000407FB504000D0016005B
:10579000042020F0C3FC03AB0193084B291D601EBD
:1057A00000933200012312F0DBFD039821F0B1F8E1
:1057B000034B1870034804B070BDC0465CE20200A1
:1057C000EA2D0020F8D30200F0B585B005220021B3
:1057D00002A81EF0ABF8484EA02432780321130033
:1057E0000125C133FF33E4059B0019512B00934081
:1057F0001A00424B1420E25021F0B4FB2A00337807
:1058000028209A40A123DB00E25021F0A7FB327848
:105810000C2113009540A222C133FF339B00195184
:10582000374BD200A158294206D1013B002BF9D1B8
:10583000344B188805B0F0BDA022A221304BD20510
:10584000C90054582C4017D129230725012700935C
:10585000009B013B0093002B3AD03A00A221337801
:10586000C9009A40264BA020C0054058104207D1DD
:10587000013B002BF7D1DBE7013B002BE1D1D7E760
:1058800021F084FB3A00A221337801909A401C4B0E
:10589000C900A020C0054058104203D0013B002B96
:1058A000F7D1C5E721F072FB019BC01A2D2806D95C
:1058B0003A00AA4002AB1B5D134302AA1355002D08
:1058C00003D10134E4B20735C2E7013DEDB2BFE7D1
:1058D00002AB9A78187802A9497813185B1802A9C4
:1058E000C9785B1802A90979DBB29942A0D10004FA
:1058F000044B104318809DE7EA2D00200C050000A2
:10590000E12E0000CA2D0020044B88600B60044B80
:1059100008004B600023CB607047C046040B0300B7
:10592000A762020013B50400080001A906F0FCFB01
:10593000002C03D0012C07D0002004E0019B054877
:10594000002B00D1044816BD01991FF0A8FC4000AF
:105950002043F8E760F5020058F50200F0B585B085
:105960000400080003A9150006F0DEFB0600002D68
:1059700007D10300039A2F49200022F036FA05B020
:10598000F0BD039B0200C318002101200193019B7D
:10599000934206D82727002900D0053F3A00264920
:1059A0001AE01378272B08D0223B5D426B41DBB213
:1059B0000132002BEBD02727F0E700230100F7E7A7
:1059C00030001FF039FC050030001FF050FC0600CD
:1059D000AF4205D13A001949200022F006FA14E03E
:1059E00017495C2D0ED02B00203B5E2B01D82A00DE
:1059F000D5E714490A2D05D013490D2D02D0092DE4
:105A00000CD11249200022F028F9019BB342D7D8CB
:105A10003A000949200022F0E8F9B0E7FF2D02D84A
:105A20002A000B49D8E70B4B2A000B499D42D3D9DA
:105A30000A49D1E7166003001C6003001B600300E5
:105A40001F6003002260030025600300286003003C
:105A50002B600300FFFF0000326003003960030089
:105A6000F7B51F0008AB1D782A4B0C0016009842B2
:105A700007D12B003A00310001F0B2FF24182000BA
:105A8000FEBDFB0714D57F100197019BA219002BC7
:105A90002BDA00203F260127013A94421AD9002828
:105AA00000D00193002DEAD11B491C4820F0B4FB23
:105AB00001A9380001F0FAFE0028E6D1380020F0F4
:105AC0005AFF17490200174810F036FB02F0D2FCCB
:105AD0000A00E2E71178B143802901D03800013390
