:020000040000FA
:1000000000400020F9B8010035B9010037B90100FE
:1000100000000000000000000000000000000000E0
:1000200000000000000000000000000039B90100DD
:1000300000000000000000003BB901003DB90100D4
:100040003FB901003964000041C001003FB901001F
:100050003FB9010000000000F9B901003FB90100FB
:10006000551F0000ADC50100B5BE01003FB901003C
:100070003FB901003FB901003FB901003FB901009C
:100080003FB901003FB901003FB901003FB901008C
:100090003FB90100A9B5010075B60100912000002B
:1000A000A12000003FB90100000000000000000096
:1000B0000000000000000000000000000000000040
:1000C000054B0648033310B51B1A062B03D9044B06
:1000D000002B00D0984710BD180100201801002007
:1000E000000000000648074910B5091A8910CB0F17
:1000F0005918491003D0044B002B00D0984710BD6D
:1001000018010020180100200000000010B5074C65
:100110002378002B09D1FFF7D3FF054B002B02D02A
:10012000044800E000BF0123237010BD200100201F
:1001300000000000ECE80300094B10B5002B03D0D1
:100140000849094800E000BF08480368002B02D1B5
:10015000FFF7C8FF10BD064B002BF9D09847F7E713
:100160000000000024010020ECE80300180100203A
:1001700000000000144B002B00D1124B9D46402282
:1001800092029A1A924600218B460F461148124A53
:10019000121A23F047FC0D4B002B00D098470C4B54
:1001A000002B00D098470020002104000D000B48D0
:1001B00023F044F923F0FEFA200029002CF07AFA0B
:1001C00023F05AF900000800004000200000000061
:1001D0000000000018010020F82F0020F136020076
:1001E000FF230322DB05CB1810B59343042804D862
:1001F0001CF0F6FA06030F0416000021080010BDDB
:100200000021181C1CF0CAFC0A490028F6D00A4933
:10021000F4E7181C1DF03EFC012140000143EDE70E
:10022000802109065B18022193431943034BC91827
:10023000E4E7C046F0F20200E8F20200000080802D
:10024000FF23DB0510B50400C818032398430023DF
:1002500086B00193063300931022613302A918F08F
:1002600011F902A9200028F020FB2E2102A823F07A
:10027000EFFD00280FD1652102A823F0E9FD002839
:1002800009D16E2102A823F0E3FD002803D1034920
:10029000200028F00AFB06B010BDC046F9B90300E3
:1002A00030B50C001100002285B01D000092012322
:1002B000200000F027FC002C23D02868124B0340BC
:1002C000062B06D0032420420ED1104B02689A421E
:1002D0000AD103A915F094F90022039900921300A2
:1002E00009F07AFD05B030BD03002340022BF9D0A0
:1002F00013F068FD03000220A3431843044BC01809
:10030000F0E70448EEE7C046070080FFA03E030088
:100310000000808002008080F0B5050087B01000EA
:10032000019113F04FFD041C0390681F182800D999
:10033000BDE01CF055FA0D121F24333E6F81BCBC8A
:10034000BCBCBC0D121F24333E6F9FA8ADB2B700DA
:100350000198211C1CF048FD03E0211C01981DF0B0
:10036000E5F9019003230198524A9843013B034366
:100370009B187CE0211C01981DF0B8F8F1E70021E2
:10038000201C1CF00BFC002803D04B494B4827F0E5
:100390008EFC03A901A824F0DCFEE3E70021201C69
:1003A0001CF0FCFB0028F0D1211C01981CF0AEFED3
:1003B000D7E70021201C1CF0F1FB0028E5D1211C0F
:1003C00001981FF087FF0021041C01901CF0E6FB40
:1003D000002807D0039A0023002A01DA80231B0695
:1003E0000193BFE70021201C039E01271CF0DCFBCA
:1003F000002800D1071C0021301C01251CF0D4FB73
:10040000002800D1051CFFB2EDB2AF42AAD0311CCA
:10041000201C9FE7019D0021281C1CF0BFFB002829
:1004200005D00021201C1CF0BFFB0028ADD1211CF1
:10043000281C20F033F894E70021201C1CF0AEFBB0
:100440000028A2D103A901A824F083FE03220220E0
:10045000019B1849934303435B180493039B934305
:1004600003435B1804A9059316F054FC030018001D
:1004700007B0F0BD0199201C1CF0AAFB104B00280E
:10048000F5D1104BF3E70199201C1CF08DFBF5E72B
:100490000199201C1CF082FBF0E70199201C1CF044
:1004A000A1FBEBE70199201C1CF088FBE6E7002389
:1004B000DDE7C0460000808062520300EC010300CB
:1004C000F0F20200E8F202000139C9B2054B40180F
:1004D00080301970044A03781370044AD25C044BCC
:1004E0001A707047D92D0020DA2D002032640300E5
:1004F000D82D00200131C9B2054B40188030197049
:10050000044A03781370044AD25C044B1A70704793
:10051000D92D0020DA2D002032640300D82D0020D0
:10052000074B984206D9074B1818074B4118C918B2
:1005300008787047054B18184118054BF7E7C04677
:10054000A4920000736203005B6DFFFF87520300FB
:100550000083FFFF030020228033F0B504001A70EF
:100560007F2000224F255F2689B0A15C531C0A0022
:10057000DBB202406F2A28D90A003240E1188031EC
:100580000A701A007F2BF0D1BB4A137023001B2284
:10059000FF331A70E4320192531CDBB203936B46B3
:1005A000B6481B7BB6490370039BE31880331B7866
:1005B0000B705B2B0ED19B22019B0A700133DBB2C7
:1005C0000370E254012009B0F0BD5F2AD6D90A00B9
:1005D0002A40D3E72E2B13D10232D2B20270A218D6
:1005E00080321278A4480270A648825C0120024240
:1005F00006D1019A0B701218D2B20192A3546FE285
:1006000002209D4A13709F4AD25C104000D0ADE09A
:10061000002A19D19948203203780A70E3188033F0
:100620001A70019B0133DBB201936B461B79037097
:10063000019B782B01D8E25452E29B23019AA354E8
:100640006B461B7B0B70BDE716007F2552B2AE4395
:100650000E70002A03DB8C4A8C4B1A60B3E7413BD7
:100660008B4ADBB28B49D25CCB5C12021343029300
:10067000029B002101339BB218000293FFF750FF49
:100680000306F5D50123012700267B4D2B70390089
:100690000298FFF745FF7B1CDBB2282868D1002EAB
:1006A00000D02F702B780133DBB2059305990298A7
:1006B000FFF736FF059B0133DBB22928F5D17F25F3
:1006C000049304990298FFF72BFF049B2840013301
:1006D000DBB23D284FD16A46694B127B1870674BDD
:1006E00000261A706A467B1CDBB200931278624BBC
:1006F000039D1A700695631980331B780099029840
:100700000793FFF70DFF079B8342B1D1009B05992B
:100710000133DBB20093009A6B1CDBB28A422CD10E
:10072000002E01D0554B1D70039D013FFFB2524B6F
:10073000390002981F70FFF7F3FE514E030600D5F3
:1007400004E14E4B7F2118704E4B1B5C1A005BB2CC
:100750008A433270002B14DA484B013DEDB21D7014
:10076000631980331B789842DFD081E74A4B7EE7DC
:100770001F0001268BE70493A3E71D0001260693C3
:10078000B9E7307020281BD0232825D02E282CD064
:10079000262832D040284ED05E2856D02B285CD058
:1007A0003A2800D00EE1202629002000FFF78CFE19
:1007B000334A137833401370B7D0304B1D78F3E7CA
:1007C00029002000FFF780FE0023F356002B00DAFB
:1007D0004EE72A4B1D78A8E729002000FFF774FE9A
:1007E000402233781342F4D142E729002000FFF77A
:1007F0006BFE33781B07ECD43AE729002000FFF7A3
:1008000063FE1022337813403370E2D11B4B1B7808
:10081000E118803109783170482900D028E7013B80
:100820001649DBB20B70E31880331B789343432BDC
:1008300000D01DE7CDE729002000FFF745FE042288
:10084000337813403370C4D112E729002000FFF73A
:100850003BFE33789B06BCD40AE7084B013DEDB262
:100860001D70651980352B78452BB2D0102293432B
:10087000492B00D0FCE6ACE7DA2D0020D92D002072
:10088000D82D0020326403007352030010000020B2
:10089000B86403009E640300A59200006B1C934A99
:1008A000DBB21370E31880331B7891490B70452B32
:1008B00036D1A81CC0B2231880331B788D4E3370FC
:1008C0008D4EF656002E02DB884B1D783FE01070EF
:1008D0000B70522BF8D0532BF6D0442BF4D04C2B6A
:1008E00008D10335EDB21570651980352B78592B79
:1008F000EAD0BDE6462B00D0BAE6EB1CDBB21370A3
:10090000E31880331B780B70552B00D0B0E604350C
:10091000EDB21570651980352B784C2BD4D0A7E635
:10092000492B00D0A4E6AB1CDBB21370E318803374
:100930001B780B704E2B00D09AE60335EDB2157084
:10094000651980352B78472BBED091E6069D6A4607
:10095000009B0133DBB200931278664B1A70009B48
:10096000049A934200D19CE019000298FFF7D8FD49
:10097000614B7F211B5C5D4F1A005D4E8A435BB269
:1009800038703270002B08DA0135EDB2631980330C
:100990001B783D709842DAD06AE63070202816D075
:1009A00023281ED02E2826D026282DD0402848D0F7
:1009B0005E2851D02B2858D020263A2864D02528EC
:1009C00000D16BE74D4A4E4B00201A60FBE5290031
:1009D0002000FFF78FFD0023F356002B00DB73E7A9
:1009E00046E629002000FFF785FD402233781342B8
:1009F00000D069E73CE629002000FFF77BFD337853
:100A00001B0700D560E733E629002000FFF772FDE1
:100A1000102233781340337000D055E73B78E1184B
:100A2000803109783170482900D021E60133DBB2EA
:100A30003B70E31880331B789343432B00D017E6B9
:100A400042E729002000FFF755FD042233781340C8
:100A5000337000D038E70BE629002000FFF74AFD8D
:100A600033789B0600D52FE702E60135EDB23D70E5
:100A7000651980352B78452B00D125E7102293434B
:100A8000492B00D0F4E51FE729002000FFF732FDD5
:100A9000174A13783340137000D158E7134B1D7871
:100AA000F2E700257F272E0000990298FFF738FD16
:100AB00003003B403D2B04D0019A0132D2B2019297
:100AC000A354009A0132D2B201060BD5002E03D0F6
:100AD0006946084A09781170054A1370069B03930A
:100AE000039A59E500920126DEE7C046D92D002081
:100AF000D82D0020DA2D0020326403007D5203003F
:100B00001000002010B51C0002AB1B78002904D097
:100B1000002B02D10E480CF0B1FEA24207D1824256
:100B200014D003000B490C480BF08EFD06E0824206
:100B300006D9121A094908480BF086FD00F052FA4E
:100B4000844203D2030022000549ECE710BDC046F1
:100B5000D2640300FB640300380103003465030022
:100B600066650300F0B50025170087B00C9C0D9E4C
:100B700003900491059302950195059B9D4206D132
:100B8000019B039A93423CD222480CF077FE039BD0
:100B90009D4211D263889B05F6D4019B049A0133D0
:100BA0000193AB00D058FF2263881340012B22D160
:100BB00013F0E2F9307015E0062321880022C90005
:100BC0001943380013F04CFE00280FD16388DB0571
:100BD00006D52288104911480BF036FD00F002FAC4
:100BE00063683360013508340436C6E7029B406809
:100BF00001330293D7E7022B01D113F07FF8306065
:100C0000F0E73B68029ADB089A4201D20448BCE74D
:100C100007B0F0BDAC650300956503003801030023
:100C2000CD65030000237F2803D8034B1B5C9B0783
:100C3000DB0F18007047C046EB65030000237F28D8
:100C400003D8034B1B5C1B07DB0F18007047C04623
:100C5000EB65030000237F2803D8034B1B5C5B0775
:100C6000DB0F18007047C046EB65030000237F28A8
:100C700003D8034B1B5C5B06DB0F18007047C046B4
:100C8000EB65030000227F2808D8054B0132195C70
:100C90000C23194202D15F38424242411000704792
:100CA000EB65030000237F2803D8034B1B5CDB06A6
:100CB000DB0F18007047C046EB65030000237F2858
:100CC00003D8034B1B5C9B06DB0F18007047C04624
:100CD000EB650300F7B5254B00261A68244B9446B4
:100CE0001B78191D4900501807008C5A518864055B
:100CF000640D4C431F49A412096801967878C00816
:100D00001F2822D001258540A1272800A025FF000B
:100D1000ED050133E851DBB2181D400015182F0016
:100D2000855A50886D056D0D68438012001BE5D013
:100D30000F4A1370019B002B01D00E4B1960002E3F
:100D400002D06246094B1A60FEBDA0200A4B5468CF
:100D5000C005C450002902D10B000C00DCE70126BD
:100D60008C460A0001960021F6E7C0463C010020AF
:100D7000DB2D0020400100200C05000010B572B6EC
:100D800000220F4B18681A6062B6904211D10D4BC9
:100D90000D4A1B680D48934200D010001A780021BC
:100DA00002705A8842805A68426008221C78A14228
:100DB00000D310BD9C5A013184520232F6E7C0467E
:100DC000400100203C01002044010020740100206B
:100DD000044A054B1A600023044A1360044A137046
:100DE0007047C04614CC02003C01002040010020A6
:100DF000DB2D002010B578220249022001F0FAF81C
:100E000010BDC046D50C0000421E084BFF3A10B57D
:100E100004009A4207D8FFF7B1FF054B2411448024
:100E20001860002010BD01204042FBE740410F0048
:100E300040010020044B1B68002B01D1034B1B68B1
:100E4000588800017047C046400100203C01002046
:100E50003C4BF7B504000D00994200D91D008023DA
:100E6000DB005B1B0193FFF789FF0122A24046686C
:100E70000092164207D12300A0210327C133FF337C
:100E80009B00C9055F50002703789F4206DB002DB9
:100E900001D0132B0BD92C4B1860F7BD391D49001D
:100EA00042185278D208944242D00137EDE7009AB6
:100EB000191D32434260019A490055050A5A6D0DC9
:100EC000D20AD2022A430A525205E400520F4118B4
:100ED000144301334C7003700122851C03789A423D
:100EE000D9DA2F00131D5B00195A2E894905490DC7
:100EF000531E1C1D6400245A6405640D8C4204DDDD
:100F0000FC88023F7C81013BF3D205335B001E521B
:100F100001320235E2E7009A013BDBB296430370EF
:100F20004660BB42D8DD04335B001B5A0B52D3E74B
:100F3000002DF0D0019B5A050B5A520DDB0ADB0243
:100F40001343F3E7FF0300004001002070B50021C8
:100F50000400FFF77DFF00210D4B18680578A942BA
:100F600000DB70BD0B1D5B00C3185A78161CD2083D
:100F7000944201D00131F2E70822524232435A70C2
:100F80000123A021A340034AC9058B50E9E7C046CD
:100F90003C0100200C050000C460056146618761CA
:100FA0004146C161494601625146416259468162EA
:100FB0006946C1627146816000490847C50F00005B
:100FC0000020C046024B9A6802609860002070477B
:100FD000982E0020024B9A6812689A607047C046AB
:100FE000982E00200E4A9368002B01D127F06FFF46
:100FF000196858609160181CC4680569466987695A
:10100000C1698846016A8946416A8A46816A8B4677
:10101000C16A8D4681688E4601207047FEE7C04652
:10102000982E002030B507240278084DA243140002
:101030000222224302707F22039C41602240D4009E
:10104000028883602A402243028030BD07FCFFFFF4
:1010500010B50B00072401782340A14319437F23D7
:10106000017004990A4C0B40D90003884260234068
:101070000B430380039B04685905064BC90A2340B0
:101080000B430360029B8360059BC36010BDC04699
:1010900007FCFFFFFF03E0FF70B51500040024F01C
:1010A000ADF92A000249200024F062F970BDC04663
:1010B000DB53020070B543790D000024032B06D9E1
:1010C000836A074C9200E41AC369D358E4180321D9
:1010D00024F083F9447024120570847070BDC046FA
:1010E000FD7F0000F7B50023040061718360837108
:1010F000E260036101330F0015004361032906D844
:101100000121836949429A00C06922F08BFC0023C7
:10111000A3622362AA8BEB8BD218002A00D1013282
:10112000384E2000310024F023F92A8C31002000B1
:1011300024F01EF9E3682000197D24F047F9E368E4
:101140002000997D24F042F9E3682000197E24F004
:101150003DF9E3682000997E24F038F9042F27D167
:10116000636A226A31009A1A200024F001F93100E2
:10117000EA89200024F0FCF83100AA89200024F03C
:10118000F7F80026AB8C9E4217DBFF21200024F0ED
:1011900035F9042F35D1EA8A2B8B0237D318009307
:1011A0000023009A93422CD0AA8C0021019223E0C4
:1011B0000221200024F0FCF8D9E7AA6AF300D31832
:1011C0001A78032A03D19978200024F017F9013600
:1011D000D8E70126A86ACA008218507830420AD09F
:1011E0005088834207D15268D200606B99003A431D
:1011F0000A500133D5E70131019A9142E9DB02221D
:10120000F2E7F7BDB1530200F7B5234B0500A83351
:101210001B680191022B0DD847698F420AD2836A5D
:101220000269CF1B9C1A3B00234304D1AB6A2B619C
:10123000019B6B61F7BD062F01D90F2C18D90094C3
:101240001F2C01D91F230093009B00269C4203D82A
:101250003E00032F00D903260121280024F0A8F81E
:10126000009A730113430370009BBF1BE41ADAE773
:101270000A4B3E009F4200D91E000221280024F0A4
:1012800097F8702233091340F03A22431343037056
:1012900046700094E8E7C046982E0020FF07000043
:1012A00070B50D000121040024F026F90E2D14D094
:1012B0000F2D17D010210D2D10D01721200024F054
:1012C0009DF80322A36A042103339343A362200001
:1012D00024F083F8044B036003E01121200024F084
:1012E0008DF870BD1221F9E790D50200F8B5050020
:1012F0000C00171E194E1ED1110024F0FDF880239A
:101300001B021C4206D12200352132402800FFF783
:10131000D1FEF8BD2800322124F070F828003221D7
:1013200024F06CF82800322124F068F832212800DB
:1013300024F064F8E7E732000A404621FFF7BAFEDE
:1013400080231B021C4021004C1EA141C9013943CE
:10135000C9B2280024F052F8DBE7C046FF7FFFFF48
:1013600010B5040007F074F8074B02001B69074929
:10137000074827F062FB01F095FE012C01D101F036
:10138000B3FE044810BDC046982E00206B660300D3
:10139000541C0300CC0E030010B512F0AFFC03F098
:1013A000AFFE014810BDC046CC0E030010B501F0E1
:1013B00077FB014810BDC046CC0E030010B501F00C
:1013C00065FB014810BDC046CC0E030010B586B0C9
:1013D000040005AB04AA03A902A816F02FFD059B83
:1013E000029A0193049B064900930648039B27F049
:1013F00024FB012C01D116F05DFD034806B010BDA1
:1014000080660300541C0300CC0E030010B5084C8A
:10141000002805D1A834236801305B00184310BDB3
:10142000086812F06BFCA83420600248F7E7C04659
:10143000982E0020CC0E0300F0B50D00002785B0DB
:10144000110003901E002800104B02220097FFF7A6
:1014500059FBA81C800027F036FB039B04000360A7
:101460006B1E3D000393436033688360039B9D4282
:1014700002D3200005B0F0BD0135AF00F0590021C6
:101480000BF008FCE719B860F0E7C046FFFF00006A
:101490001FB503AB01930E4B0431013800930123B8
:1014A000FFF760FB039824F0C8FC40B20300A022C1
:1014B0000C21C133FF33D2059B009950A223DB00DE
:1014C000D358C3400348DB0700D5034805B000BD2F
:1014D000DCCD0200F0F20200E8F202007FB503ABBF
:1014E00001930D4B0431009301380123FFF73AFBC0
:1014F000039824F0A2FC41B204A81AF021FA04A82F
:101500001AF044FAA0230021044ADB00D1508010D5
:1015100027F0E4FD07B000BDE4CD020000700040FC
:101520007FB503AB01930D4B0431009301380123C8
:10153000FFF718FB039824F080FC41B204A81AF0CE
:10154000FFF904A81AF022FAA0230021044ADB00C4
:10155000D150801027F0C2FD07B000BDECCD0200D5
:1015600000700040F7B5CC1CA400070020000E005E
:10157000019227F0A8FA22000500054B476086601B
:1015800003600C3A01990C3022F0BAF92800FEBD34
:10159000F8CD020010B504000C2027F094FA034B9C
:1015A0004460036001235B42836010BD34CE0200BF
:1015B0001FB503AB01930E4B043101380093012397
:1015C000FFF7D0FA039824F038FC40B20300A022C1
:1015D0000C21C133FF33D2059B009950A223DB00BD
:1015E000D358C3400348DB0700D5034805B000BD0E
:1015F0004CCF0200F0F20200E8F20200F0B5324BEC
:1016000085B002AC04310138019400930223FFF746
:10161000A9FA029824F011FC0500606824F00DFC82
:101620006AB21100A0230024C131FF31DB0589001B
:1016300040B2CC500100A225C131FF318900CC500D
:10164000ED0059590134D1405A592140C24022403D
:101650001E4C2378994203D11D4B1B789A4231D0FE
:101660001C4ECDB23378D0B29B00C3186F00DB198B
:10167000DBB23370002922D0002A20D04B2B10D1AE
:101680001549164B0A78002A08D000220A701A80E1
:101690000020185E27F022FD05B0F0BD1A88013247
:1016A000F5E7872B0ED10C4A0C4B1178012903D09A
:1016B000012111700022EAE71A88013AE7E7044B9A
:1016C000257018700020E5E73CCF0200E72D0020D0
:1016D000E82D0020E62D0020D8000020C82D002095
:1016E000184BF7B530CB0F00160001281AD94B68FC
:1016F000154A934207D0990711D114491C688C42AE
:101700000DD11C001D0002280CD0BB68934209D0EB
:101710009A0704D10D4A19681C00914202D000209A
:101720000CF0ACF801A9386813F06AFF019A0100C7
:101730000023102028F055F82A00310023000BF078
:1017400095FEFEBD982E0020CC0E0300A4D702000B
:1017500010B50D21034822F0C7F90D2027F0BEFC7B
:1017600010BDC046C866030073B50600194D0C00D5
:10177000280022F03FFA3100174822F0B5F9174847
:1017800022F038FA164822F035FAFF239B00E618BB
:1017900021787F2901D0B44206D1280022F02AFA0C
:1017A000104822F027FA73BDA37850290CD80E4AAE
:1017B000505C0E4A525C01936378009303000C481E
:1017C00022F092F90434E3E762780A4822F08CF9B7
:1017D000F8E7C0468F670300BC670300C4670300D7
:1017E0004D6703006B670300C66C0300756C030054
:1017F000E567030008680300F0B51D008BB0079093
:101800001B481600089122F0F5F92900194822F02A
:101810006BF9194822F0EEF9184822F0EBF9002490
:10182000AC4204DB124822F0E5F90BB0F0BD089B96
:10183000375DA0000799181803788278095D04972E
:1018400007689B063F037F0E0397C7789B0E09939B
:101850003B09029300883F07C004400E3F0F0190F0
:1018600012090097099B064822F03EF90134D7E798
:101870008F670300DC660300096703003B67030012
:101880006D6703007822054B054898331B681A8062
:10189000743A5A801A715A717047C046982E0020C7
:1018A000CC0E0300084A10B5130098331B689979D1
:1018B000002908D0916C0029F9D0002199711B6989
:1018C0005879FFF7C5FA10BD982E002013B5084CC3
:1018D00098342368188827F001FC23680090588802
:1018E00027F0FCFB69460190022015F013FA16BDA3
:1018F000982E002010B50D4C002803D0086800F089
:101900007BFD04000A4920000DF0EEFA6079002109
:10191000FFF79EFA20000DF0D1FA0022054B064891
:1019200098331B681A619A7110BDC04684D40200B6
:1019300020110300982E0020CC0E03001FB50C4B85
:1019400002AC009301940223FFF70CF9029A002ADB
:1019500003D0084B98331B685A806268002A03D072
:10196000044B98331B681A80034804B010BDC0466E
:1019700010D10200982E0020CC0E0300F0B5264BAB
:1019800089B004AC009301940423FFF7EBF8234FD4
:1019900004223B0098331B6804981A715A71204B3B
:1019A0000340062B06D0830730D102681D4B926995
:1019B0009A422BD1012303940293002598373B6868
:1019C00018690DF07BFA3B6860681D6100F014FD3A
:1019D000154906000DF088FA3B68144A9D7112689B
:1019E00002999A60227B9981DA71DD81039A01293B
:1019F00000D112685A6101221E619A71237A002B6C
:101A000001D0FFF74FFF0A4809B0F0BD03AA02A9B1
:101A100012F016FAD1E7C046D0D00200982E00206E
:101A2000070080FFA95B010020110300902E002019
:101A3000CC0E0300F0B5274B89B004AD019500939F
:101A40000423FFF78FF86B68A868049E039300F0E7
:101A5000D3FC214F040098373B6818690DF02EFA2B
:101A600000223B681D491A6120000DF03DFA6079A3
:101A700080212D7BFFF7ECF9002E1DD16079FFF757
:101A800065FA039B002B14DB0022134B1449983397
:101A90001B6803989A710968DA7141189A81DA8192
:101AA0005A61023299601C619A71002D01D0FFF7D2
:101AB000F9FE0C4809B0F0BD31000B481AF0AEFE3B
:101AC000FFF7A2F90028DCD06079FFF73FFA07485A
:101AD0000BF014FDF0D00200982E0020201103001E
:101AE000902E0020CC0E030040420F002968030016
:101AF00010B5182026F0E7FF074B983318607823BD
:101B00000380743B4380037143710023837103613D
:101B10004361024810BDC046982E0020CC0E030041
:101B2000F0B56D4C87B0260098363368002B40D056
:101B30009A79002A3DD0694D99682A68914238D82F
:101B40009A79022A0BD11B6900215879FFF780F995
:101B50002B6832680A3393600123937129E09A79E4
:101B6000012A26D19A89D989914204DBDD79002D99
:101B700019D00021D9815869012A02D0DA8992004E
:101B80008058574A904216D11B69002158799834E1
:101B9000FFF75EF92468534821881AF0C9FE012333
:101BA000A060A37105E09D7118690DF087F9336895
:101BB0001D6107B0F0BD05A913F022FD983423681C
:101BC00001901B69802158790293059EFFF740F927
:101BD000019B24681F781F23218842481F401AF068
:101BE000A7FE61881AF0A4FE7D1EEDB20390012EBF
:101BF0005AD9019B5B78232B4DD0622B50D1002DFD
:101C00004BD0023FFDB26A1E514251414A42022E60
:101C10004ED0012102230198C05C3A2803D00F273F
:101C2000384020710133207984469E420ED90198B4
:101C3000C05C3A280AD1581C864207D9019F02335A
:101C4000385C0F2738409E4235D86071092D3DDC45
:101C50006346043B9A1852B26F00234B002900D10F
:101C6000224BD85B002A2EDB1041FFF7CDF81A4B30
:101C7000039998331A68537959430B0017490A3B63
:101C800009680A2B00DA0A235B189360D3890133B1
:101C9000D381022361E70022B9E72A000625B6E7CF
:101CA000002101230A00B6E7002101230A00BAE758
:101CB00033000121B7E70A267043019E6071F65C8C
:101CC0003E408019C1E752429040CEE7029B00217E
:101CD0005879FFF7BDF8CAE7982E0020902E002013
:101CE000CC0E030060EA0000124D0300044D030017
:101CF0007FB504000D001600042026F0E4FE03ABBF
:101D00000193084B291D601E009332000123FEF74A
:101D100029FF039824F091F8034B1870034804B08E
:101D200070BDC046E8D10200E92D0020CC0E0300B2
:101D3000F0B585B00522002102A821F073FE484EBF
:101D4000A0243278032113000125C133FF33E405B9
:101D50009B0019512B0093401A00424B1420E25073
:101D600026F006FD2A00337828209A40A123DB00C4
:101D7000E25026F0F9FC32780C2113009540A222A3
:101D8000C133FF339B001951374BD200A158294270
:101D900006D1013B002BF9D1344B188805B0F0BDBA
:101DA000A022A221304BD205C90054582C4017D193
:101DB0002923072501270093009B013B0093002B5B
:101DC0003AD03A00A2213378C9009A40264BA0208D
:101DD000C0054058104207D1013B002BF7D1DBE78B
:101DE000013B002BE1D1D7E726F0D6FC3A00A22137
:101DF000337801909A401C4BC900A020C005405880
:101E0000104203D0013B002BF7D1C5E726F0C4FCFC
:101E1000019BC01A2D2806D93A00AA4002AB1B5DCF
:101E2000134302AA1355002D03D10134E4B2073540
:101E3000C2E7013DEDB2BFE702AB9A78187802A97C
:101E4000497813185B1802A9C9785B1802A90979A7
:101E5000DBB29942A0D10004044B104318809DE7E7
:101E6000E92D00200C050000E12E0000CA2D002005
:101E70008022044B52001A600123034A1360034A74
:101E80001360704700E100E00C8C004000800040CF
:101E90008022054B5200DA67044BFF3A5A60002259
:101EA000034B1A607047C04604E100E00080004028
:101EB0000C8C004070B5002501261E4B1E4C1D6089
:101EC0001E4B18601E4BE650C046FFF7E1FF1D4A4F
:101ED0001D4BE660E25002221C4BFF20E55004330C
:101EE000E25092180833E2508022C12312039B0073
:101EF000E250053BFF3BE550C2244022144BA400B6
:101F0000195981430A4380211A510C341A59090680
:101F10001202120A0A431A51C02204341959814389
:101F20000A431A51802212041A60802252041A6055
:101F300070BDC046902E002000800040B4010020FB
:101F4000FC0F0000701700004C05000004050000A5
:101F500000E100E070B51F4C1F4D636C002B0AD0F0
:101F6000002363641D4B1B689847A823DB00EA58D5
:101F700000018018E850A36C002B09D00023A36453
:101F8000164B5B689847164B0001EA588018E850DA
:101F9000E36C002B0AD00023E364104B9B68984746
:101FA000A923DB00EA5800018018E850236D002BBC
:101FB0000ED000230B4A2365AB580B495B18AB507E
:101FC0000A4A1368063313608022094B12045A60D0
:101FD00070BDC046FC80004000800040040000202E
:101FE000440500004C05000070170000902E0020F2
:101FF000FCE100E0F7B50191032823D8134B8000E2
:10200000C758C223124D9B00EF500123441923648B
:10201000A8230F210F4EDB009C46E358AE59921BBC
:10202000D218D3170B409A1801990B4B1211C150BB
:10203000C1239B00EF506346002001321201961924
:10204000E650FEBD01204042FBE7C046F4D102004D
:10205000008000404C0500000400002003280BD83D
:10206000074B8000C158C223064A9B00D150064A44
:10207000064BC2500020704701204042FBE7C0469B
:10208000F4D1020000800040ED5D02000400002059
:1020900010B5024B1B68984710BDC046B401002024
:1020A00010B50024054AA358002B02D00021A150EE
:1020B00098470434102CF5D110BDC046A40100206F
:1020C000074A89008B58002B06D1885080211800C0
:1020D000044A49045160704701204042FBE7C04672
:1020E000A4010020FCE100E0A3230021024A5B00E0
:1020F0000248D1527047C046982E0020CC0E0300F3
:10210000A3230121024A5B000248D1527047C04616
:10211000982E0020CC0E0300A323044A5B00D35A60
:102120000348002B00D103487047C046982E00207A
:10213000F0F20200E8F2020010B514F005FF0148C9
:1021400010BDC046CC0E030010B50C4C002808D1C1
:10215000FC34236D18005A1C02D0180126F0BEFF73
:1021600010BD086811F0CAFDFC34031E044803DAF0
:1021700001235B422365F3E71B09FBE7982E002050
:10218000CC0E030010B50400080011F0B7FD431099
:1021900002D00B480BF0B2F96179A0220B000324A6
:1021A000C133FF339B00D2059C5001238B40002894
:1021B00004D0A121C9000348535010BD0249FAE7D9
:1021C00084680300CC0E03000C05000070B5050008
:1021D000080011F093FD0B2303410400DB0702D438
:1021E00009480BF08BF9280008490CF07DFEFF220E
:1021F000A40092001440A0226B79D205C133FF33B2
:102200009B0003489C5070BD5668030000110300FA
:10221000CC0E030010B50C4904000CF065FEA022A2
:10222000D205002805D004216379C133FF339B0018
:10223000D150A223DB00D0586379D8400123184045
:1022400026F04CFF10BDC0460011030010B504007D
:102250000CF016FE0A4B984205D00A4B984202D069
:1022600020000CF01BFEA0226379D205C133FF339E
:102270009B0098580007800F26F030FF10BDC04625
:102280000011030018110300032370B50B40050073
:102290000800022B03D1194B0B40062B22D111F061
:1022A0002DFD174B04009C4202D916480BF026F96D
:1022B000154928000CF018FE002807D0A0220321A1
:1022C0006B79D205C133FF339B00995068792100A7
:1022D000FEF7BEFD002C03D10C4928000CF004FED3
:1022E0000B4870BD11F06EFD1DF0DAF90022094BAC
:1022F0001BF086FC1DF05EF9D3E7C046070080FFA7
:10230000FF0300006368030048110300F810030096
:10231000CC0E03000000E03F13B50A4904000CF0A6
:10232000E3FD05216846615619F00AFB684619F07D
:102330002DFBA0230021044ADB00D15026F0CEFE65
:1023400016BDC046F81003000070004010B508002C
:1023500011F0D4FCFA239B005843FEF755FD0028EA
:1023600002D002480BF0CAF8014810BD47680300CC
:10237000CC0E030010B5080011F0C0FCFEF744FDC0
:10238000002802D002480BF0B9F8024810BDC04640
:1023900047680300CC0E030010B504000CF070FD7C
:1023A0000C4988420DD00C4B98420AD020000CF00A
:1023B0009BFDA02200216379D205C133FF339B002E
:1023C000995020000CF08CFC044B002800D0044BEA
:1023D000180010BD3011030018110300F0F20200C4
:1023E000E8F20200A0230C220249DB055A502431F6
:1023F0005A5070474407000010B5040011F096FBD6
:10240000064B984208D0064B984205D0054B98429F
:1024100002D005480BF032FA200010BD54D502005E
:102420000CD4020048D402003768030010B54A6893
:10243000014926F002FB10BD52880300044B88605E
:102440000B60044B08004B600023CB607047C04614
:1024500038E702008D5E0200044B0B60037A0B71BB
:10246000436808008B600023CB60704720D70200D0
:1024700010B504000C2026F026FB034B44600360DB
:102480000223037210BDC0465CD7020010B50430B1
:1024900026F0ACFE004810BDCC0E0300002803D08F
:1024A000012808D0002005E007224B680448934328
:1024B00000D1044870474B68DB085B001843F9E71C
:1024C000F0F20200E8F202000B6870B506000D00A1
:1024D000181D4968140012F0C3F9002802D043689F
:1024E000002B10D1022E08D1094B022C06D16968AD
:1024F000084825F06CFBFEF775FDAB68012C00D198
:102500004360180070BD022CFBD100224260F8E746
:10251000CC0E030068FE020070B504000D000B7ABB
:10252000164A9B0086B0995826F0BFF9144920003E
:1025300026F0BBF9134B02AA02932B7A01261371E2
:102540006B68019304930023059302A823F0A8FC71
:10255000051E05D10C49200026F0A7F906B070BD74
:10256000002E03D10949200026F09FF901222900FD
:10257000200011F0F3FA0026E7E7C04698D70200E2
:10258000E468030020D70200EA680300E76803005C
:10259000F0B513681400012287B00F680D00009297
:1025A000D90802230600FEF7ADFA022E12D103234A
:1025B000686803401DD101682A4AC968914218D150
:1025C0002A68904206D0059305A9686823F049FC63
:1025D000061E06D1002563689D4232D3224807B00B
:1025E000F0BD381D0122316812F03AF9736843607A
:1025F000EAE700210AF04EFB039003980AF0ACFBD7
:102600000028E7D000210AF045FB05000AF0A4FBF2
:10261000029028000AF0A0FB060028000AF09CFBAC
:10262000029B002B03D0002E01D0002802D00F48BF
:102630000AF064FF381D0122029912F011F9466078
:10264000DBE7A368EE009959002909D0042907D0D7
:10265000381D012212F004F9A3689E1973684360C3
:102660000135B8E7D9280000CC0E0300BE6803008E
:1026700030B5002585B001A90400019523F0F1FBD8
:10268000A84203D109490A4825F011FB636802A951
:10269000083B63600368029343680393042328C0E4
:1026A000022014F037FB05B030BDC0469968030026
:1026B00068FE0200F7B50D0014001B280DD00023A2
:1026C0001F2808D1081D0022210012F0C9F82B4B49
:1026D000002800D12A4B1800FEBD0323194226D141
:1026E00028492A688A4222D1234020D12168914278
:1026F0001DD1009301930BE03168386811F0ACFAFA
:102700000028E7D07168786811F0A6FA0028E1D0B7
:102710006946280023F0A5FB01A90700200023F04B
:10272000A0FB0600002F25D00028E5D1D2E7A307A3
:10273000D0D1154B22689A42CCD162686B68534065
:1027400007229343C6D1019301A9280023F089FBF6
:10275000061E01D1094BBEE7201D0022316812F090
:102760007FF80028B6D04168706811F075FA00282B
:10277000EAD1AFE7014B0028ACD1ACE7F0F20200A0
:10278000E8F20200E0D70200A4D70200F7B50B6818
:102790001C4A04000D00934203D05A681A4926F0DF
:1027A0004CF91A49200026F080F8002301270193F4
:1027B00001A9280023F055FB061E0CD11449200066
:1027C00026F073F82B680F4A934203D0114920007A
:1027D00026F06BF8F7BD002F03D10F49200026F03B
:1027E00064F801223168200011F0B8F90B4920008B
:1027F00026F05BF801227168200011F0AFF9002784
:10280000D6E7C046A4D70200B8680300BC6803003E
:1028100008850300C5B80300E7680300F86E0300ED
:1028200010B504000C2026F04EF9034B4460036001
:102830000023037210BDC0465CD7020010B504002F
:102840000C2026F040F9034B44600360012303721F
:1028500010BDC0465CD7020010B5043000220C0049
:1028600011F0FEFF002805D12100034825F0AFF943
:10287000FEF7B8FB406810BD68FE020010B5024BC1
:1028800008C026F094FC10BDA4D70200F8B50E00D5
:102890000700002170680AF0FDF90E4C0500022FB8
:1028A00000D9B468706811F043FB002809D123F007
:1028B00021FB060028000AF04FFA011E03D1300068
:1028C000F8BD4010F3E7331D0122180011F0C8FFD6
:1028D0004460EFE7CC0E0300F0B5070089B000209C
:1028E0001E000D00019223F005FB0E4B0400076053
:1028F0009F4203D10423027913430371019B2B43AD
:102900000DD03368AA00B218019905A80394049366
:1029100026F05FFC681C05AA03A9FFF739FE20001A
:1029200009B0F0BDE0D7020010B50C00002A03D1B9
:1029300023F022FB0A480EE0042A0DD104300022C5
:1029400011F08EFF002805D12100064825F03FF93F
:10295000FEF748FB406810BD23F004FBEAE7C046E1
:10296000CC0E030068FE0200F7B52D4FB437019777
:102970002B4A2C49FC32536C8B4200D8F7BD0325FF
:10298000043B53641A68264B501CAC331E68040089
:102990008108715C2C4064002141831A2940013078
:1029A0000229F4D003260199120109681B018A1833
:1029B0001B499B08002BDBD00F201468044229D14F
:1029C00019480068844225D30D00B8352D68AC4203
:1029D00020D2241A200900900800AC300068A40915
:1029E000009D0419207835406D0084462841304010
:1029F00001280FD13700AF403D0067463D432570A9
:102A00000D00FC356C6C094FBC4206D2201D686479
:102A100000982060013B0432CCE70C00BC34F8E79E
:102A2000982E0020582F00204C2F0020D82F002057
:102A30000F23994370B506000D00081A412119F0C3
:102A4000EDFE114C02002300B0331860230021007A
:102A5000AC331E608301EB1AB4310B6023003000ED
:102A6000B83300211D6020F0DDFFA22100220120EB
:102A7000230049006252023160524839FC33FF3969
:102A80005A651965DA6470BD982E0020A2220349A8
:102A900052008B5A01338B527047C046982E00204B
:102AA000A222034952008B5A013B8B527047C04609
:102AB000982E0020A223034A5B00D05A431E98415F
:102AC000C0B27047982E0020F7B50024032500906F
:102AD0000191019B9C4200D1F7BD009AA300D158FF
:102AE0000F23194229D1184B1A00B43212689142AF
:102AF00023D31800B830006881421ED2891A1A0008
:102B00000F093800AC321268890951180A78284038
:102B10004000944602412A40012A0ED12E008640F0
:102B200030006646304308701800FC30416C074E98
:102B3000B14206D20B1D43640F60FFF715FF01344D
:102B4000C7E7BC331A60F8E7982E0020D82F002082
:102B5000A22210B508485200835A01000133835263
:102B600003000022FC33BC310A60DA64034A2721E7
:102B70005A64FFF7A9FF10BD982E0020582F00209F
:102B8000F8B503262E4C00252200BC321368AB4258
:102B900013D102221900032794462200B032126892
:102BA000920091422AD323000022FC335A65453219
:102BB000FF32A35A013BA352F8BD23001560214AFE
:102BC000FC335A642300B0331B689B009D42D9D26A
:102BD0002200AC321268AB08D35C2A0032405200AB
:102BE00013413340032B07D12200FC32536C191DD3
:102BF00051641D60FFF7B8FE0135E3E72000AC30FB
:102C000000688A08801802780D0016003D406D00AB
:102C10002E413E40022E09D0032E0BD0012E07D1AB
:102C20003B00AB409A430270012301E0002BF7D137
:102C30000131B2E76346AB409A4302700023F7E7E5
:102C4000982E0020582F0020334BF7B51A0019009A
:102C5000B832B431096812680327521A19000260A9
:102C60000022AC310968140001911100B0331E68D4
:102C700042608260C260026142618261B600019D71
:102C80008B08EB5C0D003D406D002B413B40012B60
:102C900033D0002B2BD0022B33D00131B1420AD0DC
:102CA000019D8B08EB5C0D003D406D002B413B40CE
:102CB00001D0012BE3D1012C28D105690135056133
:102CC0008569AC4200D98461B14201D0012BD6D1D3
:102CD000C3689A4200D9C260B14206D143681B0161
:102CE000436083681B018360F7BD0022C7E78468E7
:102CF0000132013484601C00CFE744680134446031
:102D0000F9E74568013401354560C6E7022CD7D1A3
:102D1000456901354561D3E7982E0020F7B50F309E
:102D20000309019302D100252800FEBDA223474AD2
:102D30005B00D35A002BF6D14733FF33D35A5C42A2
:102D40005C41002B07D0414BFC33DA6C1B6D9A427F
:102D500001D314F0F9F8002530213F263B4A3B4BC4
:102D6000B0321268FC339446384A5B6DAC3210685E
:102D7000634505D3002CD6D114F0E6F80134EBE717
:102D80000327C25C3A4231D1019F0135AF422ED8B0
:102D90009B00591B4C1C012D04D12C4D5A1CFC3599
:102DA00092086A65A20880182600032201251640B1
:102DB0007600B540067802313543244E0570AC36B6
:102DC0008B4235D221492201B4310D680199AD18E9
:102DD0001E4A0133FC32D66C2800B4466144D164EB
:102DE0001A1B1201002120F01DFE9DE700250C2773
:102DF0003A4206D1019F0135AF4203D89B0001330F
:102E0000C7E700250A4206D1019F0135AF4203D82A
:102E10009B000233BDE70025B24306D1019A01357C
:102E2000AA4203D89B000333B3E7002501339FE791
:102E30003568880828180D00022715406D00AF403E
:102E40003D00077801313D430570B9E7982E002019
:102E5000A22230B5164B52009A5A002A26D10028D9
:102E600024D01A00B4321268801A1A00FC32546D51
:102E700001098009A04200D25065AC33180003223A
:102E800004688B08E3180C00150014406400A5408A
:102E90001C780131AC431C7004688B08E35C0C00A7
:102EA0001440640023411340022BE9D030BDC046DA
:102EB000982E00200F2203000240002070B58242AD
:102EC00028D1154C10002100B43109688B4221D360
:102ED0002000B83005681000AB421BD2AC345B1A3E
:102EE000246819099B09E55C080003231840400089
:102EF000054110001D40012D0CD14D1C2E00AA08CB
:102F0000A25C1E4076003241681A1A400135022A3E
:102F1000F4D0000170BDC046982E0020F0B585B0F9
:102F200007000D000292002807D101002800FFF7DA
:102F3000F5FE0600300005B0F0BD002903D1FFF713
:102F400087FF2E00F6E70F2100260140B142F1D1A4
:102F500053480E000300B4331B689F42EAD30200BB
:102F6000B83212689742E5D2FB1A1A0900920200A1
:102F7000AC3212689B090192D25C0323009C23406F
:102F80005B001A4103231A40012AD3D14233FF3395
:102F9000C35A002BCED129000F310909B0308C461D
:102FA0000168032689000391210014000131039A6E
:102FB000914212D201988A08825C08003040400099
:102FC00002413240022A02D101340131EFE7002AE6
:102FD00003D10133E2189445F7D8644501D13E008E
:102FE000A8E7644521D9009B032663441900009B90
:102FF0000800E218AC239C46294B9C44634605001C
:103000001B6884081C19330035406D00AB402578DF
:1030100001309D4325709042F0D1214B8908FC334B
:103020005A6D9142DBD25965D9E71B199C4523D8CB
:10303000032502261A49009BAC31E3180191009A3E
:103040006244934209D36346191B090120010A0017
:103050003818002120F0E6FCC1E701991800096842
:103060009A088A18310028404000814008001178F1
:10307000013308431070E2E7029E002E00D159E7A9
:1030800000212800FFF74AFE061E00D152E7220168
:10309000390020F035FC3800FFF7DAFE4AE7C04679
:1030A000982E002010B58CB005A8FFF7CDFD079B2A
:1030B0000A4C03930093059A069B0949200025F0CA
:1030C000BCFC089B099A01930B9B06490393009350
:1030D00020000A9B25F0B1FC0CB010BD541C03006D
:1030E0004D69030070690300F8B5434E434F330048
:1030F000B4331A684249380025F09FFC002433009D
:10310000B0331B689B009C4223D23F2214422CD137
:1031100032002500AC3210680321AA08825C2940E5
:1031200049000A4103210A4202D10135AB42F3D1E1
:103130002A1B7F2A12D992093249380025F07DFCDA
:103140002C003F239C433300B0331B689B009C4200
:1031500004D338002C4925F0A8FBF8BD2B4B2201E5
:103160001A402B49380025F068FC3200AC32126856
:10317000A308D35C032222405200134103221340D0
:103180003A32022B31D03032032B2ED02E22012B9B
:103190002BD13300B4331B682201D3581D4954226C
:1031A0008B4222D01C49083A8B421ED01B49083A58
:1031B0008B421AD01A490F328B4216D019498B42D2
:1031C00013D01949123A8B420FD018498B420CD0B8
:1031D000174905328B4208D01649043A8B4204D075
:1031E00015490B328B4200D01B321449380025F0B0
:1031F00024FC013483E7C046982E0020541C0300B1
:103200000E690300296903002BC10300F0FF0F00C2
:1032100045690300D02B03002C120300A4D7020041
:10322000A03E0300EC270300041D0300C81C03009C
:1032300088CB020000EF020098E8020005BE030000
:103240001FB503AB01930E4B0431013800930123EA
:10325000FDF788FC039822F0F0FD40B20300A022A5
:103260000421C133FF33D2059B009950A223DB0018
:10327000D358C3400348DB0700D4034805B000BD62
:103280007CD80200F0F20200E8F202001FB5084B01
:1032900003AA1978002310704900009305480133F0
:1032A00016F0B8FD012025F063FA05B000BDC04658
:1032B000D9000020342B00201FB503AB01931B4B1A
:1032C0000431009301380123FDF74CFC039B002BD4
:1032D00001D0174A13700821332022F06BFE05201D
:1032E00025F046FA00220821302022F052FE052067
:1032F00025F03EFA00220821202022F04AFE052077
:1033000025F036FA0821282022F054FE08210C204E
:1033100022F050FE0821062022F04CFE0821012058
:1033200022F048FE034805B000BDC0467CD902002B
:10333000D9000020CC0E030010B50120082122F096
:1033400039FE014810BDC046CC0E030010B5002068
:10335000082122F02FFE014810BDC046CC0E03000C
:10336000002110B5080022F025FE014810BDC0461E
:10337000CC0E030010B50C20082122F01BFE0148E2
:1033800010BDC046CC0E0300082110B5080022F085
:1033900011FE014810BDC046CC0E030010B5182028
:1033A000082122F007FE014810BDC046CC0E0300E4
:1033B00010B51C20082122F0FDFD014810BDC046BB
:1033C000CC0E030030B5244B89B005AD0093043119
:1033D000032301380195FDF7C5FB059B0493DA072C
:1033E0002ED49A0706D11A681C498A4228D01C4953
:1033F0008A4225D003221A40022A03D1194A1340D7
:10340000062B1DD103A9049812F0FAF8AA6804004B
:10341000D2B22B79C020002A00D14038C018C0B2E7
:10342000082122F0C7FD25002B1B039ADBB2934233
:103430000ED228780122082122F0C9FD0135F3E7D8
:1034400004AB00220121084811F0CCFC0490D9E71C
:10345000064809B030BDC04684D90200C02603002A
:10346000F8F20200070080FFA03E0300CC0E03002C
:1034700010B5010083880120A0229840044BD2059A
:10348000D050CA88123121F03DFE024810BDC0461E
:103490000C050000CC0E0300F7B5040000AF0800D7
:1034A000150010F02BFCE081280010F027FCE288CA
:1034B000208280B2824200DA228203235A430732FA
:1034C000DA4069469A408A1AE18995464B437A6008
:1034D0001A00208A1232A2186B44814209DC157846
:1034E00001311D7055785D70957803329D700333FE
:1034F000F3E703252E0033000020E289218A53439D
:103500001233E3188A4205DC187058709870013243
:103510000333F7E72000FFF7ABFFFA20400025F068
:1035200027F9238AE1893B6033004B437A68D2183C
:103530001233E3183868814209DC107801311870C1
:10354000507858709078033298700333F2E7200077
:10355000FFF78EFFFA20013D400025F009F9002D0C
:10356000C9D1BD460048FEBDCC0E0300F0B585B004
:10357000040000AF0800150010F0C0FBE081280037
:1035800010F0BCFBE388208280B2834200DA238201
:10359000032253430733D34069469340CB1A7B60E1
:1035A0009D46E3895A431500BB6012351300651927
:1035B0002A006B44B868218AFB60884209DC1678CF
:1035C00001301E7056785E70967803329E70033319
:1035D000F3E7FA267600228ABB68934220DCFB6878
:1035E00020001B782B70FB685B786B70FB689B7806
:1035F000AB70FFF73DFF300025F0BAF80023200044
:103600002B706B70AB70FFF733FF300025F0B0F814
:10361000BB6803350133BB60FB680333FB60DAE74B
:103620000323E18978684B43C0181233E4189142B0
:1036300009DC0378013123704378637083780330A9
:10364000A3700334F3E7BD46014805B0F0BDC046A2
:10365000CC0E0300F0B587B0040000AF08001500E1
:1036600010F04CFBE081280010F048FBE28820823B
:1036700080B2824200DA228203235A430732DA40C0
:1036800069469A408A1AFA60E18995464B431A00C6
:10369000208A1232A2186B44814209DC157801316C
:1036A0001D7055785D70957803329D700333F3E794
:1036B0003C236426BB600325E3893B61238A7B604E
:1036C0003B695D43FB685B1912357B6165193B699A
:1036D0007A68934219DC7B693100187819F028F96F
:1036E0007B6928703100587819F022F97B6968707D
:1036F0003100987819F01CF93B69A87001333B61DF
:103700007B69033503337B61E1E72000FFF7B0FEFF
:103710001E20BB684042023BDBB21900BB6019F0BF
:1037200007F9013E8619502025F022F8002EC2DC50
:103730003C230125BB60E3893B61238A3A697B60B6
:1037400003235343FA68D6181233E3187B617A686F
:103750003B69934218DC3078290019F0E9F87B695D
:1037600029001870707819F0E3F87B692900587007
:10377000B07819F0DDF87B69033698703B69013346
:103780003B617B690333E1E72000FFF771FEBB6813
:103790001E20023BDBB21900BB6019F0C9F80135ED
:1037A0004519502024F0E4FF642DC4DD0323E28991
:1037B000F8685343C0181233218AE4188A4209DC9E
:1037C0000378013223704378637083780330A370E9
:1037D0000334F3E7BD46014807B0F0BDCC0E03004B
:1037E000F7B5050008001C00160010F087FAE88104
:1037F000300010F083FA2882200010F07FFA642352
:10380000181A984201DDAB6002E0002824DDA860B0
:103810000324EF892B8A7C43123401932C19019BDA
:10382000AE689F421ADCAB89207831005843009380
:1038300019F07EF8009B207060783100584319F031
:1038400077F8009B6070A0783100584319F070F849
:103850000137A0700334E2E70123D4E7AE812800EA
:10386000FFF706FE0048FEBDCC0E0300EFB50700D3
:1038700008001500F98802000023386810F016FBD4
:1038800003267043002D14D03F18042D14D10123BA
:10389000FA7C01A952001A430192BA7C30009A4086
:1038A0001A4302923A7D9A401343039313F032FA7B
:1038B0000500280004B0E0BD310001AA280010F086
:1038C000E1FA019B186810F019FA019B060058688C
:1038D00010F014FA019B0500986810F00FFAFF2E03
:1038E00003D8FF2D01D8FF2802D9044809F006FEAD
:1038F000BD74FE743875024DDBE7C046CE69030027
:10390000CC0E0300F7B51C0000230093023308001F
:1039100011001A00FDF7F6F8206822F08EFA47B27F
:10392000606810F0EBF9041E02DC114809F0E6FDB6
:10393000032630006043143025F0C5F80D4BA2B2C9
:1039400003600123050087807243C48083810021C6
:10395000123020F067F83B00A022C133FF33D205BC
:103960009B009E500123BB40034928005350FEBDDD
:10397000B569030038DA02000C050000032210B517
:103980000400C38800215A43123020F04BF8200075
:10399000FFF76EFD004810BDCC0E030010B50C0003
:1039A00010F0C4F8006B00280ED0E30702D50368BE
:1039B000002B09D0A30702D54368002B04D063076E
:1039C00006D58368002B03D10249034824F06FF920
:1039D00010BDC046DD690300D0FF0200F0B50D0048
:1039E0008DB00400012128681700FFF7D7FF0600FB
:1039F000012C22D12B68012118000493FFF7CEFF80
:103A000080210700490008A825F0A5FF8024002395
:103A10000A9E6400039307AB2200310004983D68BE
:103A2000A847431C28D107980B2800D0ADE0039B82
:103A3000002B34D159480DB0F0BD686810F05EF924
:103A4000030003900133D5D00124337B234200D1FE
:103A500084E00027039E08A8310025F07CFF059430
:103A6000002E70D0310008A825F0B5FF011E1ED130
:103A70004B494C4824F01BF9002810D0039B1B181D
:103A80000393844202D9241A3618C4E7802108A877
:103A9000490025F08DFF802406006400BBE7039BEE
:103AA000414809933B7BDB0776D4404874E0002310
:103AB0000093320007AB286822F0D3FA079B04007A
:103AC000002B0ED008A8310025F0E9FF07980B283D
:103AD0005BD1099B0393002B35D108A825F05DFF2E
:103AE000A8E7864229D80A9B3800049302239C4603
:103AF000099E049B059ADB5D59B2002912DA190070
:103B00001F246246A143C0290CD01900103C032297
:103B1000A143E02906D004329343F03B1A00511E22
:103B20008A410432D719B74212D8039B3800013BAF
:103B30000393B742DDD31E0092E7311A08A825F09F
:103B4000AEFF002CCFD1184808A911F0CBF872E7CE
:103B5000F643039BF618F619070081E7039908A8B6
:103B600025F00AFF009707AB039A0A99286822F00C
:103B700078FA079B002B0AD008A825F00EFF079BB8
:103B800006480B2B00D156E7180009F099FE337B4D
:103B900009900548234288D008A9D6E7CC0E030037
:103BA000FC6903001CFF0200A03E0300EC27030099
:103BB00030B50C0087B0012105002068FFF7EEFE4C
:103BC000022203A9606810F053FA049A022D06D964
:103BD000A06810F093F8049A824200D902000023F2
:103BE00003990093206802AB22F03BFA029B002B62
:103BF00005D005480B2B05D0180009F061FE4300E5
:103C00000120184307B030BDCC0E0300F0B589B0D9
:103C10000191019B040001211868FFF7BFFE070016
:103C2000012C18D9019B5B685C10631C13D0210028
:103C300004A825F090FE631C03D0631E002C2FD037
:103C40001C00012104A825F0C6FE061E0AD11B494E
:103C50001B4824F02CF80124102104A825F07BFE39
:103C60006442E8E70100019803AB012200683D6867
:103C7000A847431C0ED103980B2809D1059B01933B
:103C8000012B09D104A825F088FE0E4809B0F0BD2B
:103C900009F016FE00280CD1012104A825F0FFFE32
:103CA0003B7B0948DB0700D4084804A911F01AF847
:103CB000ECE733780A2BBED1F2E7C046FC6903007B
:103CC0001CFF0200CC0E0300A03E0300EC27030003
:103CD000F0B51F0004000D00160085B00221FFF7AB
:103CE0005DFE03AB009732002900200022F0B9F9F5
:103CF000039B002B05D005480B2B05D0180009F0BD
:103D0000DFFD43000120184305B0F0BDCC0E0300D9
:103D10001FB503AB01930E4B04310138009301230F
:103D2000FCF720FF039822F088F840B20300A0229D
:103D30000C21C133FF33D2059B009950A223DB0035
:103D4000D358C3400348DB0700D5034805B000BD86
:103D500064DB0200F0F20200E8F20200F0B5036852
:103D600099B007009868079122F04AFD01220F21BF
:103D7000431E0430800004933B18029304330393E2
:103D8000FB6806A81A4009180A70032293430A9395
:103D90000CA8FDF701F9031E00D059E3079A7D68CE
:103DA000BC68002A00D1A3E22A785E2A00D19FE2F3
:103DB0000798079309F0BAFA04000AE0D64B63604B
:103DC0000434D64B9A6C002A00D190E200229C6CFD
:103DD0009A64FDF7FFF80D943AE3D14BEFE7D14B2E
:103DE000EDE77F216B785B06DB173278DB01100093
:103DF00052B2084003430136002AF6DB01225B0081
:103E00001343DCE700237F213278DB01100052B23C
:103E10000840C3180136002AF6DBDB000622EFE774
:103E200003220336964308CEC9E70023C7E70023E1
:103E30007F213278DB01100052B20840C3180136EE
:103E4000002AF6DB9B005B42029A9858002800D0BB
:103E500040E3B549B54823F0C1FEADE700237F211B
:103E60003278DB01100052B20840C3180136002A34
:103E7000F6DB029A9B005B42985823F0C9FEE5E707
:103E800000207F223378C00119005BB2114008186E
:103E90000136002BF6DB251D08F038FD60603EE0A2
:103EA00000207F223378C00119005BB2114008184E
:103EB0000136002BF6DB251D08F0F6FCEEE70021AD
:103EC0007F223378C90118005BB2104041180136D7
:103ED000002BF6DB206823F0BDFE206071E7002197
:103EE0007F223378C90118005BB2104041180136B7
:103EF000002BF6DB220001CC08F080FE61E70020F9
:103F00007F223378C00119005BB2114008180136D6
:103F1000002BF6DB21000839251F03F0DDF92C000A
:103F20004FE7251D08F00AFDB8E7251F0422216888
:103F3000286810F06BF82860F1E700237F213278C1
:103F4000DB01100052B20840C3180136002AF6DB2C
:103F50009B005B42029A21689950F8E000237F2180
:103F60003278DB01100052B20840C3180136002A33
:103F7000F6DB029A9B005B4221689858251F23F0CC
:103F800049FECCE700207F223378C00119005BB2E4
:103F9000114008180136002BF6DB2168251F08F0B8
:103FA000E3FCBCE700207F223378C00119005BB23C
:103FB000114008180136002BF6DB2168251F08F098
:103FC000EBFCACE700217F223378C90118005BB21B
:103FD000104041180136002BF6DB231F1A682068B9
:103FE00008F034FE083CECE62200231F083A216862
:103FF0001268186810F00AF80C3CE2E600237F21F2
:104000003278DB01100052B20840C3180136002A92
:10401000F6DB029A9B00D31A1A68002A00D118E72F
:1040200000221A60CDE600257F223378ED011900C9
:104030005BB211404D190136002BF6DB029BAD003F
:104040005D1B286823F0E4FD002800D101E7002172
:10405000286823F0DFFDB4E600207F223378C0011A
:1040600019005BB2114008180136002BF6DB08F08E
:1040700087FCA6E600207F223378C00119005BB2DE
:10408000114008180136002BF6DB08F091FC98E689
:10409000236894E62368A360231F1B6863600834C9
:1040A0008FE6231F196822682160BAE7221F136870
:1040B000216823602300083B18681060196080E6BF
:1040C000737832781B021343194A9B18EE1878E66E
:1040D00033787678206836021E4301960FF04CFF45
:1040E000EE1C251F2C00002800D16AE6114A019B16
:1040F00094466344F61864E633787678206836028E
:104100001E4301960FF038FFEE1C251F2C000028DF
:1041100000D056E6EAE7C046E8F20200982E0020FA
:10412000CC0E0300F0F202000A6A030058FF0200FE
:104130000380FFFF0080FFFF337876782068360227
:104140001E430196EE1C0FF017FF0028CED1043C51
:1041500037E633787678206836021E430196EE1CE7
:104160000FF00AFF0028C1D0F1E7266822003000D6
:10417000B14908F043FD230008331A003000AF496D
:10418000019308F03BFD0021019A080023F053FD44
:10419000AB786A781B0213430A9A0F210C320A92F9
:1041A0000A9AEE1CF3181360022206ABC9180A9D86
:1041B0000B781A43231D13436B6000230A9A0B707C
:1041C0009360A060019CFCE5250023689C4A019354
:1041D000083D934209D16360A3602A0000210320B7
:1041E00023F029FD019B2B6099E60122019B1340DE
:1041F000059331D0019B5A10231F012A13D11A684D
:10420000002105928E4A03201A6023000C3B226095
:1042100062601A00019323F00EFD019B059A1A605B
:1042200003232B60DEE62A68002105921A6803202A
:104230000692834A2A601A602300103B22601A000B
:10424000019323F0F8FC019B059A1A602300069A5B
:104250000C3B1A600523E4E7019B636018000FF034
:1042600065FC774B2060A3602A000599032023F0AA
:10427000E2FC0FF081FE00280DD00122704B06A950
:104280002B600A9B5B6813400E32521813700A9B16
:104290000C3B0A9343E66368A5E7737832781B0208
:1042A0001343684A9B18EB186360EB78083423606B
:1042B0000F267F210220012506AA2368B6180B428B
:1042C00006D1221F1668002B00D18BE6183C78E53A
:1042D0000A9A013B526802426FD0220008C20523AD
:1042E000636014000A9B1E680A9B0C3B0A9335000E
:1042F0007D602B786E1C180010385A2800D90BE30B
:1043000018F078FA5CFD6BFD6DFD0A036FFD0A0382
:1043100080FD8EFD93FD95FDACFDBEFDCEFDDDFD6A
:10432000EDFDFDFD0FFE13FE1BFE2CFE40FE50FEBC
:1043300060FE72FE7CFE91FEAAFEB8FE0A030A032E
:104340000A030A03C6FEC8FE25FFCFFED4FEDEFE2A
:10435000E6FEFAFE1AFF27FF0A030A030A0333FFE9
:1043600062FF630063008000C100D200EA00EA003F
:10437000CBFFC6000A030A030A030A030A030A035F
:104380000A030A03F60008010A031A0129010A03B5
:1043900032016501440187019D014E027B02A802A2
:1043A00093020A03B201BE01C901D701E301000271
:1043B0001A023702E102F30204030A9A52682A4001
:1043C00032700A9A0C3A0A9279E7737832781B02B3
:1043D00013430A9AEE1C0C320A920A9AF3181360DD
:1043E0002B780A9A403B584258410F21430006A8B7
:1043F0000918087803432343536000230A9A0B707B
:104400009360DEE423680E4A934200D19FE6DA0708
:104410001AD55B10DBB2043C012B00D048E7022226
:104420000A9B0399994200D8D0E1FCF7D3FD002004
:10443000BC6019B0F0BDC046350200003302000078
:10444000CC0E03000380FFFFFCF7C4FD23680D932F
:104450000D9BDB49186802F04FFF002800D1A1E254
:104460007A68002A00D19DE21378432B00D08BE2BA
:10447000937850781B02D11C0343CB187B60BB6838
:10448000103BBB6084E40021206808F003FC24E5B5
:104490002500210020680C3508F0FCFB844200D187
:1044A0003DE500232360F9E42000337876780C386A
:1044B0003602BC601E4303680196EE1C002B02D13D
:1044C0002300083B186808F01FFC002802D1103CAC
:1044D000019B0FE6606073E401220A9B06A95B68FA
:1044E00013400E32521813700A9B0C3B0A9368E477
:1044F00000207F223378C00119005BB211400818F8
:104500000136002BF6DB8100641A0434210012F01E
:1045100001FCE2E400207F223378C00119005BB285
:10452000114008180136002BF6DB8100641A0434B0
:10453000210023F0C5FED0E400207F223378C001A3
:1045400019005BB2114008180136002BF6DB251D5F
:1045500021F0D0FCA2E42500231F083D1A68216841
:10456000286821F0FFFCDAE400207F223378C001C4
:1045700019005BB2114008180136002BF6DB8100F0
:10458000641A0434210004F063FEA6E400237F21B2
:104590003278DB01100052B20840C3180136002AFD
:1045A000F6DB251F022B05D1864A216828680BF00F
:1045B0004DFAC0E42300083B22681868296801937B
:1045C0000BF044FA019B18601C00FFF7FAFB002374
:1045D0007F213278DB01100052B20840C318013647
:1045E000002AF6DB9A089200524210590322251F36
:1045F000134003D121680AF0D7FC90E4012B04D1C9
:104600002A68216821F0AEFCECE4216822F089F9E7
:1046100085E400257F213378ED011A005BB20A4062
:1046200055190136002BF6DB22002900206808F01E
:104630002DFD654B5D19AD006419FFF7C2FB002528
:104640007F213378ED011A005BB20A40551901361B
:10465000002BF6DB22002900206808F069FDFF220C
:104660002B0A13401540E5E70322F31C9343002275
:10467000186811001E1D251D20F04AFEFFF70EFCD4
:104680000322F31C9343251F2268296818681E1D06
:1046900020F03EFE4FE40322F31C934319795E1D84
:1046A0008A00A41A04342200186820F04CFEFFF798
:1046B00014FC0322F31C934318798021C243490060
:1046C00092005E1DA4180143EDE700207F2133789E
:1046D000C0011A005BB20A4010180136002BF6DB4D
:1046E000FF25FF220100C3096D0011402B405B181C
:1046F0009B00E41A000A0240231D206808F0D6F946
:10470000FFF7EBFB00217F223378C90118005BB271
:10471000104041180136002BF6DBFF22CB09520076
:104720001340CAB29B189B00E41A083C22000020E8
:1047300008F054FBFFF7D1FB00237F203278DB0128
:10474000110052B20140CB180136002AF6DBFF21DE
:104750001800FF250840DA096D002A40451C52194F
:104760009200A41A1B0A1940220023F064FAFFF7F2
:10477000B4FB00217F223378C90118005BB21040DE
:1047800041180136002BF6DBFF22CB095200134003
:10479000CAB29B189B00E41A0C3C22000120C7E718
:1047A0000F2206ABD2181378002B00D137E6012177
:1047B0000A9B5B680B4013700A9B0C3B0A932EE626
:1047C00084000300CC0E0300FFFFFF3F0A9B5B68E1
:1047D00013420ED003220A9B21685B6893431C009E
:1047E00059609A600A9B08341E680A9B0C3B0A9326
:1047F0007DE50A9B0C3B0A9312E66B78022B03D1F2
:10480000043C2068FFF7D6FA002BFAD10A9B039AE2
:10481000934203D29B499C48FFF71DFB98680028F0
:1048200001D0FFF7C7FA0C3BF1E7231F0593079B65
:104830000193002B1BD00021079B07910193019A44
:104840000BAB201F006808F0F7FC012813D12E00E5
:104850000B9B2360FCF7BEFB0F2306AA9B181A785C
:104860000A9B7E601343BC60FB600120E1E50BAB5B
:10487000019A2168E5E7002812D10B9B043C002B2C
:1048800000D1824B2360019B002B19D08049180076
:1048900023F0AEF9002813D0FCF79CFB019BD6E572
:1048A0007C490B9823F0A4F9002805D00B9807F059
:1048B00097FE043C2060E6E7FCF78CFB0B9BC6E50B
:1048C000059CFFF77EFA00207F223378C001190093
:1048D0005BB2114008180136002BF6DB251F2A6851
:1048E000216808F041FDFFF726FB00217F22337885
:1048F000C90118005BB2104041180136002BF6DBED
:10490000250001CD08F042FDFFF7C8FA2068251FF9
:1049100023F0ACF9FFF703FBAF2B05D80120803B58
:104920005B000343FFF74BFABF2B04D8B022D31A26
:104930009B00FFF789FACF2B04D8C022D31A9B0023
:10494000FFF708FBD62B06D8D03B1800216808F0EB
:104950003BF8FFF7C2FAFA2B08D8251FD73B1800FF
:104960002268296808F0D2FDFFF7E5FA4A494B486A
:1049700023F034F90400FCF72DFB049B04339B0067
:10498000FB185C60022054E55E2B0BD1BC680D98CF
:10499000231DBB6007F024FE60607B6801337B60F1
:1049A000FFF7F6F90D9B3E4A93422AD03D4A9342C7
:1049B00027D03B68986821F029FF21F027FF7B680A
:1049C000051D28005C1B21F01BFF0600280021F0BC
:1049D0001DFF050021F014FFA41B0600280021F094
:1049E00015FF050021F00CFF0190280021F00EFFBB
:1049F00001220378002B1ED1330001990D9807F096
:104A000091FE0F23012106AA9B181A78002A29D1AA
:104A10000A9A039991422DD801221A700A9B0232F8
:104A20001B687B600A9B0A995B6893430D9A043369
:104A30008A601A6025E559B2002909DB19001F2593
:104A40005B09294001308C42D6D3641AD218D0E7D2
:104A50000F21E0251940ED001B012B404578023065
:104A60002B43F0E70A9A52680A401A700A9A0C3AE5
:104A70000A92CAE7049B0D9A04339B00FB185A6004
:104A800080E7C046506A030048000300CC0E0300D4
:104A900078FD020084000300366A030094FF0200E0
:104AA000F0FB020000FC02007FB504000E001500C0
:104AB000042024F008F8114B601E02AC311D2A00BE
:104AC000009301940223FCF74DF8029821F0B5F908
:104AD00040B20300A0220321C133FF339B00D20563
:104AE0009950012321798340002904D004490548C5
:104AF000535004B070BDA121C900F8E7B8E402002A
:104B00000C050000CC0E0300F0B5234B85B01E78D9
:104B1000224B10221F78002168461EF083FF3B00C5
:104B2000A0240C220125C133FF33E4059B001A5158
:104B30002A00A123BA40DB00E25033000322C13334
:104B4000FF339B001A510A20B54023F00DFE0026CA
:104B5000134B0A20E55023F007FEA123DB00E550AC
:104B60000A2023F001FEA223DB00E3580122FB40D0
:104B700013406A4693550136102EE9D100206B464A
:104B80001B5C0130002B03D124F0A8FA05B0F0BD66
:104B90000828F4D10348F9E70C2E00200D2E002040
:104BA0000C050000CC0E03007FB504000D001600BC
:104BB000042023F088FF0B4B601E02AC291D32003D
:104BC000009301940223FBF7CDFF029821F035F901
:104BD000054B1870606821F030F9044B18700448D8
:104BE00004B070BD3CE502000C2E00200D2E00200C
:104BF000CC0E0300F0B5002585B0214E03AC257026
:104C000065702200009502238021300015F002F922
:104C1000012704232770637022000095023B802146
:104C2000300015F0F7F8220025706770022380210C
:104C30000095300015F0EEF8052023F099FD257061
:104C40003B00220000958021300015F0E3F83B0086
:104C5000220000958021300015F0CCF81022237836
:104C60008021934363702570022322000095300059
:104C700015F0D0F8052023F07BFD05B0F0BDC0464F
:104C8000342B0020F0B500260F00830089B01C4DA6
:104C9000DBB207AC03930633617023700490059276
:104CA0000096220002238021280015F0B3F8039B10
:104CB0003F0A073323706770220000960223802189
:104CC000280015F0A7F86B461B7D22006370049B3B
:104CD000802102339B00237028000096022315F0E8
:104CE00099F8059B22001B0A6370039B80210933FE
:104CF000237028000096022315F08CF809B0F0BD4F
:104D0000342B002010B50A000F2802D80021FFF72D
:104D1000B9FF014810BDC046CC0E0300F0B5002518
:104D200085B0224E03AC257022000095012380211E
:104D3000300015F06FF8220000950123802130002B
:104D400015F058F86F221023277880213A4013433A
:104D500063702570220000950223300015F05AF888
:104D6000FE232370853B637022000095773B8021F2
:104D7000300015F04FF82200257067700223802163
:104D80000095300015F046F8052023F0F1FC5F2374
:104D90005B423B4363702570022300952200802113
:104DA000300015F037F8024805B0F0BD342B002074
:104DB000CC0E0300F0B53C4B87B003AD00930195DA
:104DC0000323FBF7CFFE394B1A78002A08D00022C4
:104DD0001A70FFF70FFFFFF7A1FF35481EF00AFF1B
:104DE000039E082E21D86B68B42B21DDB4236B60A1
:104DF000AB680A2B20DD0A23AB60A024AB6868688F
:104E000024022C4F0A2B1BD1962360439B032A4973
:104E1000C01817F08DFD0100F01DFFF773FF6968E2
:104E20002648398089B21EF05FFE254807B0F0BDE4
:104E3000002BDDDA0023DAE7002BDEDC0123DBE7E1
:104E400096233E889B037443E418864215DD6B6805
:104E50009E42E4DD0A23AA68013E981A800023F0EE
:104E600087FC1549200017F063FD2B680100D81D51
:104E7000FFF748FF134BE418E9E76B689E42CEDA70
:104E80000A23AA680136981A800023F071FC0A49A7
:104E9000200017F04DFD2B680100D81DFFF732FFF1
:104EA000A0231B02E418E8E7ACE50200DA000020CA
:104EB0006F6A0300CC2D0020204E00007C6A0300A6
:104EC000CC0E03000060FFFF70B5040008000EF078
:104ED00015FF050020000EF011FF431E032B2CD8F8
:104EE0000324012806D00134022803D00338441ECD
:104EF000A041441C013C164B6400E4B21A78661CC5
:104F0000F6B2002A08D000221A70FFF773FEFFF7EE
:104F100005FF10481EF06EFE0F4B2D019D4200DA7A
:104F20001D000E4B29009D4209DD19002000FFF7EE
:104F3000E9FE00213000FFF7E5FE094870BD002DB5
:104F4000F4DA00212000FFF7DDFE6942F2E7C046F7
:104F5000DA0000206F6A030001F0FFFFFF0F00007E
:104F6000CC0E030010B50EF0C9FEC0B2431E032BD9
:104F700021D80324012807D00134022804D00338A3
:104F80000400601E844101340C4B1A78002A08D0BA
:104F900000221A70FFF72EFEFFF7C0FE08481EF031
:104FA00029FE013C640000212000FFF7ABFE601CDD
:104FB0000021FFF7A7FE034810BDC046DA0000201D
:104FC0006F6A0300CC0E030070B50D000EF096FE64
:104FD000040028000EF092FE631E0500032B3AD851
:104FE000404B1A78002A08D000221A70FFF702FE00
:104FF000FFF794FE3C481EF0FDFD012C3ED13B4ADC
:105000003B49002D29DD0720FFF73CFE384A2100EF
:105010000520FFF737FE374A37490620FFF732FEF3
:105020000420354A3349FFF72DFEEB17E818A02579
:10503000B4215840AD014900684317F079FC23F0D2
:1050400097FB012C42D10334200000210134FFF7EB
:1050500059FE082CF8D1294870BD0420FFF712FE34
:10506000234A21000620FFF70DFE224A224905208F
:10507000FFF708FE204A1F490720D4E7022CD4D1AD
:105080001A4A1B49002D10DD0320FFF7FBFD01210B
:10509000174A0800FFF7F6FD164A17492000FFF7E8
:1050A000F1FD154A13490020BDE70020FFF7EAFD96
:1050B0000F4A01212000FFF7E5FD0E4A0E490120AD
:1050C000FFF7E0FD0C4A0B490320ACE7022CC2D1EC
:1050D0000024200000210134FFF714FE042CF8D135
:1050E000B9E7C046DA0000206F6A0300FF0F000036
:1050F000FF070000FF0B0000FF030000CC0E0300C1
:1051000010B50400431C02D0024807F0FBFA024B22
:105110001C6010BDC02E0020942E0020014A024BBE
:105120009A647047C02E0020982E002010B5034BC3
:10513000186826F03BF923F0D1FF10BDB02A0020FB
:1051400010B5034B186826F038F923F0C7FF10BDDF
:10515000B02A002010B5034B186826F035F923F06B
:10516000BDFF10BDB02A00201FB50021032011F0A3
:10517000D1FD0A4B0400196801A826F00AF901982C
:1051800023F0ACFFA060029823F0A8FFE060039832
:1051900023F0A4FF2061200004B010BDB02A00203D
:1051A00010B50FF0F7FD0023064A99008958884290
:1051B00005D001330C2BF8D1034808F09FF91800F3
:1051C00010BDC046CCE50200946A0300094A70B5E0
:1051D0001378002B0DD1084D2C78E4B2002C08D1A7
:1051E000013313702B70054B186803685B68984790
:1051F0002C7070BDEA2D0020EB2D0020B02A00207D
:1052000010B5FFF7E3FF054B186826F0FEF8044BD6
:105210008000C3580620DB00184310BDB02A0020D0
:10522000CCE5020010B50800FFF7BAFF0400FFF755
:10523000CDFF054B186826F0E8F8044B844200D0F7
:10524000034B180010BDC046B02A0020F0F2020047
:10525000E8F2020010B50800FFF7A2FF0400FFF714
:10526000B5FF0123A340064A064811880B4200D12E
:1052700005481188994311800022044B1A7010BD13
:10528000CE2D0020F0F20200E8F20200F42D002002
:10529000F8B5FFF79BFF134C13482378002B1FD062
:1052A00020780021C0B211F035FD012600220F4FF9
:1052B0002378934212D915005308FB5C3540AD00AA
:1052C0002B410F252B400A4D9B005B590625910071
:1052D000DB0041182B438B600132E9E70023237088
:1052E000F8BDC046F42D0020C82B0300EC2D002093
:1052F000CCE5020070B543885A1E0A2A1FD8012542
:105300002A009A400F490888024392B20E480A8048
:1053100002780F2A13DC02780C4CEA40A25C067873
:10532000D2B20F212E420BD00A401B011343027848
:10533000DBB25208A35403780133DBB2037070BDB3
:105340008A43F3E7CE2D0020F42D0020EC2D002021
:105350000022104B10491A6003001233FF3341182A
:105360005A701A7004338B42FAD1010003000022F4
:1053700009310833FF311A709A705A70DA700433A9
:105380009942F8D1C3237F229B00C254034A044BA5
:105390001A607047B801002011030000A46A0300DE
:1053A00010000020F0B500267E24330031009A0062
:1053B0008218FF32577C7F2F44D0927CB618F6B209
:1053C0005A1CEF2E2BD9C1267D25B6008619370031
:1053D000AC46D2B2944516DA92008218FF3251746C
:1053E0009174D17411757D220233DBB29A4211DAC5
:1053F00000269A008218FF3254749174D17411758A
:105400000133DBB2D3E73D68043FBD6001256D4247
:10541000AC44DFE73568013A7560043EE6E77D2F6E
:10542000EED8094DEF5D01252F42E9D0D3B2C1225C
:105430007D26920082189E42DADB1568013E556097
:10544000043AF8E7F0BDC046876B030070B501224F
:1054500040240F49531EDBB29B00C318FF335D7C11
:105460007F2D13D04D5D25420DD05D7D7F2D0AD05F
:105470004D5D7F2D07D9DD7D002D04D06EB2002E4D
:1054800001DB0135DD740132D2B2E3E770BDC04605
:10549000366B03000300F7B500214B4A1333FF338B
:1054A0008218197004339342FBD1FC2300249C46DC
:1054B0002200844453B2002B04DA444A444B0020B7
:1054C0001A6008E063461F69BC4205D37F2344325B
:1054D000920013540120FEBD6346DE68355D602DE9
:1054E00001D9203DEDB2611CC9B28F424FD0735C2F
:1054F000602B01D9203BDBB2232D4BD1303B092B54
:1055000001D9344ADAE70234E1B28F4204D8FF2BE2
:10551000F7D843700C00CDE7745C2500303D092DB1
:10552000F5D80A256B430131303BE318C9B2ECE7EB
:105530000136512E2FD10023274C1F5DDEB22A2FBA
:105540000CD1264FFF5CAF4208D19300C318FF3344
:105550005E74447801321C75D2B2DBE70133512B03
:10556000EBD11F4C493B08342678AE4207D0013CB2
:10557000002B01D11B4AA1E7013BDBB2F4E7002B72
:10558000F8D014004334A4000419A370C2E7232DFB
:10559000B7D000230026F7B20197104FF75DAF4256
:1055A000C6D10D4FF75D2A2FC2D09F42C0D16946A8
:1055B00093000979C318FF335974417801320234DA
:1055C0001975D2B2E1B2A5E712030000A76A030081
:1055D00010000020B96A0300C66C0300756C03005C
:1055E000176D0300C76A030010B51130084A094956
:1055F000FF3003787F2B00D110BD02240457002C0C
:1056000003DCCB5C43700430F3E7D35CFAE7C046BD
:10561000256C0300D56B030084460023F0B585B0EC
:105620009F0067443800FF30417C7F2901D105B0DD
:10563000F0BD0224544A525C224202D10133DBB253
:10564000EEE70124224246D11A190C19E4B2009463
:105650004E4C7D2564186478D2B20194C47C007DE0
:1056600002940390C120800060440400954228DA2F
:105670006C46920024786244FF3254746C4624795C
:105680008D1C94746C46247AEDB2D4746C46247BE1
:1056900014753E4C9A1C61183C00FF348E78217DB5
:1056A000E77C00917D21D2B291420FDA92006244F0
:1056B000FF3255749674D7746946097803331175AF
:1056C000BDE72668013D6660043CCFE70468013908
:1056D00044600438E8E71A000132D2B21000644690
:1056E00044308000005D0028F6D05A1C7F2809D085
:1056F0000825254C245C2C4201D0D3B290E72438F5
:105700000128FAD93C00481CC0B200901F48FF3461
:10571000401840787D260190E07CD2B20290207D36
:105720000390C120800060440500964222DA6D4655
:1057300092002D786244FF3255746D462D79134ED8
:1057400095746D462D7AD5746D462D7B15758D1C1F
:1057500071188F78217D9A1C00917D21E67CD2B250
:10576000EDB291420BDA92006244FF3255749774A5
:10577000D674A1E72F68013E6F60043DD5E7046849
:10578000013944600438ECE7366B0300D56B030045
:10579000F7B500218B00C3181A00FF32547C9C46D9
:1057A000002C02D10131CBB24AE07F2C00D129E19B
:1057B0001026954B1D5D4B1C35422BD0AD06ED0FD1
:1057C0002C00D67C177DC1227D25143492000194D3
:1057D000DBB282189D4218DA6A469B001279C31820
:1057E000FF335A740022DE749A741F756246FF32CA
:1057F000547C4B1C352C00D0C6E0517B834C615C43
:10580000490700D492E0102187E01468013D5460FC
:10581000043ADFE74E2C1ED118210D25D47C557497
:10582000167DC1229200DBB2821870359D420DDADE
:105830009A008218FF3251740021D4749174167545
:105840001900A7E71B21E8E71C21E6E71768013DDF
:105850005760043AEAE74F2CF4D0502CF4D06DB2E4
:10586000002D2CDAD57C002D29D0DBB21D0044356B
:10587000AD002D5C002D22D18E1CF5B20195AD003E
:105880004519FF356F7C7F2F19D05F4EF75D7F2F55
:1058900015D9EF7C002F12D0C1227D2192008218F1
:1058A000019C8C4206DD1F226A740022AA74EA74ED
:1058B0002A75C5E7146801395460043AF0E74B1CB7
:1058C000172C2CD1557B4C1EE4B2452D1CD12A231C
:1058D0005373230043339B001B5C4B4AD55C4B1C2A
:1058E0007F2D23D90134E4B2A4000419FF34617C74
:1058F00000297FD0525C7F2A18D9E27C002A15D17A
:1059000062461E21FF3208E0392D01D12C23DFE74A
:105910003D49495D7F2909D91221517406E0182CAF
:1059200008D1517B384C615C7F2901D8DBB287E715
:105930001321F2E7202C04D1517B3C29F6D12621FA
:10594000EBE7482C15D1547D7F2C02D14B245474A5
:1059500003E02D4D2C5DA406F8D5547C2A4D2D5D19
:10596000ED0700D442E7557B202D3CD10C3C54740C
:10597000DCE73C2CF1D1517D7F29D7D0224C615CF2
:105980008906D3D43F21C8E72A2C17D1D17C147DB6
:10599000C1227D259200DBB282189D4209DA2B25B7
:1059A0009A008218FF3255740025D17495741475CD
:1059B00046E71668013D5660043AEEE72C2C12D1FA
:1059C000D17C147DC1227D259200DBB282189D42DC
:1059D00004DA9A008218FF322D25E4E71668013DAB
:1059E0005660043AF3E7452C02D0392C00D0D9E6B2
:1059F0000C006EE7617D7F2998D0525C7F2A00D928
:105A00007EE793E7F7BDC046366B0300876B030064
:105A1000F7B505000022130044339B005B5D7F2B2C
:105A200041D05E4CE35CDB075FD51300511EC9B269
:105A3000443189005A4F6918013BDBB2002B34D145
:105A4000022799006918FF314A7C7F2A00D1A4E01F
:105A500053488446805C44B2002C5BDA41265A1CD1
:105A6000D2B290002818FF30447C019000967F2C21
:105A700002D06646365D009666464020365D064298
:105A800036D1123C012C0CD860460233DBB24433D1
:105A90009B005B5DC35C4020034202D08B7C013BDA
:105AA0008B741300CDE70023CAE708787F2803D062
:105AB000385C04397F28BFD999006918FF31487CC8
:105AC0007F280ED02027265C3E4204D0344E305C26
:105AD0000426304205D0887C4608B4460130604434
